:020000040800F2
:10000000C8EB002049010008DF310008F72900088B
:10001000DD310008690900085538000800000000BB
:10002000000000000000000000000000DD320008B9
:100030007909000800000000E1310008DF32000803
:100040006301000863010008630100086301000800
:1000500063010008630100086301000863010008F0
:1000600063010008630100086301000863010008E0
:10007000630100086D0900086301000863010008BE
:1000800063010008630100086301000863010008C0
:1000900063010008630100086301000863010008B0
:1000A00063010008630100086301000863010008A0
:1000B000630100083D330008630100086301000884
:1000C0006301000863010008630100086301000880
:1000D0006301000863010008630100084938000853
:1000E0006301000863010008630100086301000860
:1000F0006301000863010008630100086301000850
:10010000630100086301000863010008630100083F
:1001100063010008630100084933000855330008F3
:10012000630100086301000863010008630100081F
:10013000DFF810D000F06CFB00480047BD870208D4
:10014000AFF30080C8EB0020064880470648004710
:10015000FEE7FEE7FEE7FEE7FEE7FEE7FEE7FEE777
:10016000FEE7FEE739330008310100082DE9F05FB2
:100170000546002092469B46884606468146402416
:100180001BE0284641464746224600F020F85346E9
:100190005A46C01A914110D311461846224600F023
:1001A00038F92D1A67EB01084F462246012000213D
:1001B00000F02FF917EB00094E41201EA4F10104B5
:1001C000DFDC484631462A464346BDE8F09F202AF8
:1001D00004DB203A21FA02F00021704721FA02F3F1
:1001E000D040C2F12002914008431946704710B533
:1001F000431A934209D28318881803E010F8011DAE
:1002000003F8011D521EF9D210BD40EA01039B07FD
:1002100003D009E008C9121F08C0042AFAD203E07B
:1002200011F8013B00F8013B521EF9D210BDD2B2C9
:1002300001E000F8012B491EFBD270470022F6E7CF
:1002400010B513460A4604461946FFF7F0FF20464C
:1002500010BD421C10F8011B0029FBD1801A704709
:1002600010B5002200E0521C835C8C5CA34201D1DB
:10027000002BF8D1D8B2E1B2401A10BD034611F8F4
:10028000012B00F8012B002AF9D118467047F0B471
:1002900080EA0102D40F4200B2EB410F02D20246C3
:1002A000084611464A0042D0C30DDDB2C1F3C75221
:1002B000AD1A202D35DAC1F3160141F4000204B164
:1002C0005242C5F1200602FA06F12A411044B3EB6E
:1002D000D05F23D0C4B1012DA0EBC35009DCF0BC2A
:1002E0004FF0004202EAC352DBB200F5000000F01A
:1002F000A8B8400000F1807000EBC350A0F18070FE
:1003000040EAD170490009E0490841EAC071A0EB18
:10031000C35000F50000400800EBC350F0BC00F0F3
:1003200087B86142012202EB4101001BF6E7F0BCF5
:10033000704781F00041AAE780F00040A7E780EA1B
:10034000010210B502F00043400022D04A001FD045
:10035000010E01EB1261C0F35600C2F3560240F4E5
:10036000000042F40002A0FB022000047F391404C4
:1003700000D0401C50EA124001D44000491EC2B2D5
:100380000C0604EBD010401C4008802A02D003E089
:10039000002010BD20F00100002900DA00201843E1
:1003A00010BDC10F80EAE0700844CA0796230021FF
:1003B00000F047B800F0004220F00040C10DC0F34B
:1003C000160040F400007F2901DA002070479629CA
:1003D00003DCC1F19601C84001E096398840002A4B
:1003E000F4D04042704730B50B4601460020202231
:1003F000012409E021FA02F59D4205D303FA02F532
:10040000491B04FA02F52844151EA2F10102F1DC91
:1004100030BD202A04DB203A00FA02F100207047A8
:100420009140C2F1200320FA03F319439040704732
:100430000029A8BF7047401C490008BF20F00100F8
:10044000704710B4B0FA80FC00FA0CF050EA0104D6
:1004500004BF10BC704749B1CCF1200421FA04F468
:1004600011FA0CF118BF012121430843A3EB0C0141
:10047000CB1D4FEA00614FEA102042BF002010BCA4
:10048000704700EBC35010440029A4BF10BC704754
:10049000401C490008BF20F0010010BC70472DE946
:1004A000FE4F804681EA0300C00F0C46009021F009
:1004B000004123F00045B8EB0200A94105D24046B7
:1004C000214690461C460B46024623F0004010434E
:1004D00047D0270DC7F30A00C3F30A510290401A10
:1004E000019040286BDAC3F3130040F4801B00989E
:1004F000924620B10023D2EB030A63EB0B0B019869
:100500005946C0F140025046FFF783FF06460D46AC
:1005100050465946019A00F08DF910EB08006141F0
:10052000002487EA115284EAE7731A4340D0009A04
:1005300062B3019A012A4FEA075215DC001B61EBF6
:1005400002014FF0004202EA0752CDE90042001CCE
:1005500041F5801132462B4600F08DF903B0BDE81D
:10056000F08F40462146F9E7001B61EB0201001CB9
:1005700041F5801300185B412018A2F5001747EBE6
:10058000030140EAD570B6196D4111E06D084FEADC
:10059000360645EAC0754FEA0752001B61EB0201BF
:1005A000001C41F5801149084FEA30000019514103
:1005B00032462B4603B0BDE8F04F00F04DB900982D
:1005C000012240000023D0EB020263EBE0730098AD
:1005D00021464FEAE074B8EB000061EB0401E9E763
:1005E00083F000435BE781F0004158E72DE9FE4FBF
:1005F00081EA030404F0004421F0004100944FF02C
:10060000000B23F0004350EA01045ED052EA0304D9
:100610005BD0C3F30A54C1F30A552C44A4F2F3345B
:100620000194A0FB0254C1F3130141F48011C3F300
:10063000130343F4801301FB024400FB034E840ABE
:10064000970A44EA815447EA8357A4FB0768029556
:100650008D0A05FB07854FEA932C04FB0C542705F4
:10066000029D4FEA065847EA1637B5EB08056EEBD0
:10067000070C870E920E47EA811742EA8312A7FB06
:100680000201B6EB0B0164EB00042B0D43EA0C33C3
:100690005E1844EB1C50DA465146E7FB0201C5F3F5
:1006A00013044FEA0B3343EA14534FEA0432019C1C
:1006B00043EA0603A4F10C040294009CCDE900B4C3
:1006C00000F0D9F803B0BDE8F08F00200146F9E74B
:1006D0002DE9F04D81EA030404F0004B21F00045C0
:1006E00014464FF0000A23F0004150EA050220D0E2
:1006F00054EA01021DD0C5F30A570246C5F313039D
:10070000C1F31300C1F30A5640F4801543F480137B
:10071000A7EB0608101BD64608F2FD3873EB050060
:1007200002D308F1010801E092185B41B8F1000F13
:1007300003DA00200146BDE8F08D00204FF480115F
:10074000064684460EE0171B73EB050705D3121B04
:1007500063EB050306434CEA010C49084FEA3000FD
:1007600092185B4150EA0107EDD152EA030012D022
:1007700082EA040083EA0501084305D0101BAB415F
:1007800006D20122002306E000224FF0004302E0DF
:100790006FF0010253101AEB06004CEB085110EBFE
:1007A0000A0041EB0B01BDE8F04D00F055B8C1F374
:1007B0000A52C1F3130140F2FF3341F480119A420F
:1007C00002DA00200146704740F233439A42A2F217
:1007D000334202DC5242FFF7FABCFFF71ABE0000B8
:1007E00030B5041E71F1000404DB4FF000444042B8
:1007F00064EB0101141E73F1000405DB1C464FF08D
:100800000043524263EB0403994208BF904230BD5B
:10081000064C074D06E0E06840F0010394E807004D
:1008200098471034AC42F6D3FFF786FC2C3503080A
:100830004C350308202A06DBCB17203A41FA02F098
:1008400043EAE07306E041FA02F3D040C2F120022D
:10085000914008431946704710B5141E73F1000407
:1008600008DA401C41F1000192185B411A4301D1A2
:1008700020F0010010BD2DE9F04D92469B4611B1CC
:10088000B1FA81F202E0B0FA80F220329046FFF72E
:10089000C0FD04460F4640EA0A0041EA0B015346F8
:1008A0005A46084313D0114653EA010019D0C8F143
:1008B00040025046FFF78BFC05460E46504659460F
:1008C0004246FFF7A6FD084305D0012004E020467C
:1008D0003946BDE8F08D0020054346EAE0762C431A
:1008E00037430A986305E40AA0EB08000022FD0ADA
:1008F00044EA47540A3002D500200146E9E70105E1
:1009000010196941DDE9084500196941BDE8F04D5C
:10091000A2E770B58C1810F8015B15F0070301D140
:1009200010F8013B2A1106D110F8012B03E010F852
:10093000016B01F8016B5B1EF9D12B0705D4002375
:10094000521E0DD401F8013BFAE710F8013BCB1A17
:10095000921C03E013F8015B01F8015B521EF9D50C
:10096000A142D8D3002070BDFEE70000014800F08E
:100970007FB90000800400207047000072B64FF479
:100980007A7403A003F046F9204600F0D3FAF8E7A2
:10099000696E4572726F725F48616E646C65720059
:1009A0002DE9F041184F14460D460646002210214D
:1009B000384600F0C0FC0A202CF0F2FE0321134858
:1009C00002F07CFCC5F30741104802F077FCC5F348
:1009D00007210E4802F072FCE9B20C4802F06EFCEE
:1009E00005E05521094802F069FC06F8010B641E78
:1009F000A4B2F6D201221021384600F09CFCBDE8DA
:100A0000F0410A202CF0CCBE00080140C0020020BA
:100A100030B5B3F5804F05D06FF0704140F822102B
:100A2000002030BD8C690B688D6823434C68898930
:100A3000240144EA0524234343EA014150F82230CB
:100A4000014C23401943E9E70000F0CF10B50A68D4
:100A500050F8223023F0010340F822308C68082C33
:100A600023D000234A682243CC681C430B692243ED
:100A70001A434B690E4C1A43CB691A430B6A1A434B
:100A80004B6A1A438B6A1A43CB6A1A430B6B1A439D
:100A90008B6913434A6B09681A4350F82130A3430A
:100AA000134340F82130002010BD4023DAE7000056
:100AB0007FFF0F0030B5D1E9003443EA04138C689E
:100AC0008D89240244EA054423430C8A094D00EB36
:100AD000820005EB045423430C7D6D0105EB046497
:100AE000896923430B43416801F040410B43436054
:100AF000002030BD0000F0FF10B590F8211000225A
:100B0000022905D00421816380F82020012010BD36
:100B100001680B6823F00E030B6001680B6823F07B
:100B200001030B6090F84030C46B012101FA03F31C
:100B3000636080F8211080F82020104610BD00006E
:100B40002DE9F05F90F821100024022903D0042140
:100B50008163012485E001680A6822F00E020A60C0
:100B600001680A6822F001020A603F4E3E4FB2154A
:100B7000DFF8F4C0DFF8F090DFF8ECA0DFF8E8B0C1
:100B8000DFF8E4E00168783F13011502ACF1640C72
:100B9000A9F15009AAF13C0AABF1280BAEF1140EF1
:100BA0004FF48018B14227D9B9420ED0614512D016
:100BB00049451DD0514518D0594518D0714501D12E
:100BC000424615E0294EB14201D1012210E0274EE4
:100BD0001436B14201D110220AE0244E2836B14227
:100BE00006D0224A3C32914201D11A4600E02A4600
:100BF0001E49091F0A602BE0B94213D0614517D086
:100C0000494522D051451DD059451DD0714501D1CE
:100C100042461AE0B14202D14FF0807215E0134E05
:100C2000B14201D1012210E0104E1436B14201D17F
:100C300010220AE00D4E2836B14206D00B4A3C3253
:100C4000914201D11A4600E02A46074980394A609C
:100C5000012180F82110002180F82010416B01B1A2
:100C600088472046BDE8F09F80000240080402400B
:100C70002DE9F05FC16B0A6801680B68046C4FF0E6
:100C8000040808FA04F8844D844E854FDFF814C236
:100C9000DFF81492DFF814A2DFF814B2DFF814E2E0
:100CA00018EA020F65D05FEA437862D50A689206B7
:100CB00003D40A6822F004020A60DFF8F0814FF4DE
:100CC0008062016808F1140813011402414524D917
:100CD000A9420DD0B1420FD0B9421AD0614515D00A
:100CE000494515D0514501D1120312E0594501D1B2
:100CF00004220EE0714501D140220AE06D4D143509
:100D0000A94206D06B4A2832914201D11A4600E02E
:100D100022466749091F0A6029E0A94213D0B1425F
:100D200015D0B94220D061451BD049451BD0514553
:100D300002D14FF4800217E0414502D14FF08062AA
:100D400012E0594501D104220EE0714501D1402243
:100D50000AE0584D1435A94206D0564A283291422D
:100D600001D11A4600E022464B4908394A60C16A5F
:100D700071E04FF0020808FA04F818EA020F70D088
:100D80005FEA83786DD50A68920606D40A6822F075
:100D90000A020A60012180F82110DFF810814FF467
:100DA0000072016808F1140813011402414524D9A6
:100DB000A9420DD0B1420FD0B9421AD0614515D029
:100DC000494515D0514501D1120312E0594501D1D1
:100DD00002220EE0714501D120220AE0354D143582
:100DE000A94206D0334A2832914201D11A4600E086
:100DF00022462F49091F0A6029E0A94213D0B142B7
:100E000015D0B94220D061451BD049451BD0514572
:100E100002D14FF4001217E0414502D14FF00072A9
:100E200012E0594501D102220EE0714501D1202284
:100E30000AE0204D1435A94206D01E4A28329142BC
:100E400001D11A4600E02246134908394A600021C0
:100E500080F82010816A00291CD0BDE8F05F0847A7
:100E6000FFE70825A540154214D01A0712D50A68D5
:100E700022F00E020A6090F84020C36B012101FAB3
:100E800002F25A60816380F82110002180F820105E
:100E9000016BE0E7BDE8F09F080002401C00024043
:100EA0003000024044000240580002406C00024002
:100EB000080402401C04024030B560B11A4B0268BD
:100EC00014219A4209D2194B1344B3FBF1F1890062
:100ED000016417490AE0012030BD134B5B42134403
:100EE000B3FBF1F1890001640F490839C1630221A4
:100EF00080F82110136843F6F0718B43F0E9011478
:100F00002143D0E902452C4321430469214344692C
:100F10002143846921431943116000214163012267
:100F200042770177084630BD08040240F8FFFDBF54
:100F30000000024070B5044600F002FA0546601C4D
:100F400002D004480078044400F0FAF9401BA042A3
:100F5000FAD370BD08000020F0B585B000200090E5
:100F60000190029003901E480168002936D11D4C63
:100F700001270760606940F4807060616069022544
:100F800000F4807004904FF68470CDE900050326CC
:100F900069460396144800F0CDF8CDE90075134F6B
:100FA00069460396384600F0C5F84CF23370CDE937
:100FB0000005694603960E4800F0BCF8A014CDE980
:100FC0000005694603960B4800F0B4F80121384645
:100FD00000F012F8A06920F08000A06105B0F0BD1B
:100FE000000000200010024000180140001C0140D9
:100FF00000140140002001402DE9F0430023454F3B
:101000000F2581E001229A400A407BD023F003049F
:10101000E619D6F808809C074FEA147C05FA0CF90B
:1010200009EA0804DFF8F080404502D14FF00008DB
:1010300024E0DFF8E880404502D14FF001081DE0D0
:10104000DFF8DC80404502D14FF0020816E0DFF8FF
:10105000D480404502D14FF003080FE0DFF8C8808C
:10106000404502D14FF0040808E0DFF8C080404559
:1010700002D14FF0050801E04FF0060808FA0CF81D
:10108000A04522D12A4CD4F800C02CEA020CC4F8A6
:1010900000C0241DD4F800C02CEA020CC4F800C023
:1010A000234C0C34D4F800C02CEA020CC4F800C065
:1010B000241FD4F800C02CEA020CC4F800C0D6F8F3
:1010C00008C02CEA090CC6F808C0FF2A01D8064659
:1010D00001E000F104064FEA830401D9A4F12004E1
:1010E000D6F800C005FA04F82CEA080C4FF0040802
:1010F00008FA04F84CEA080CC6F800C0C46824EAF0
:101100000204C46003F1010331FA03F27FF47AAF01
:10111000BDE8F0830000014000080140000C0140E0
:10112000001001400014014000180140001C014063
:10113000000401402DE9F84FDFF8C8910024A9F11F
:10114000040B23460F2709F1040AABF1040ED1E08A
:101150000125A54006EA0502AA4276D1DFF8A8C11A
:101160004E68A6EB0C0866452BD00DDC032E34D060
:1011700005DC36B3012E19D0022E2FD11BE0112E23
:1011800016D0122E2AD119E0B8F5881F19D006DC26
:10119000B8F5803F15D0B8F5801F1FD111E0B8F524
:1011A000001F0ED0B8F5041F18D10AE0CB6815E077
:1011B000CB681B1D12E0CB6808330FE0CB680C3303
:1011C0000CE08B682BB1012B4FF0080303D0456175
:1011D00004E0042302E0056100E00023FF2A01D8B7
:1011E000064601E000F104064FEA840501D9A5F1A5
:1011F0002005D6F8008007FA05FC28EA0C0803FA57
:1012000005F548EA0508C6F800804D68ED0070D580
:101210003E4DAE6946F00106AE61AD6924F00306AD
:1012200005F0010500953A4D06EB050CDCF8085079
:10123000A607360F07FA06F825EA0805DFF8D48076
:10124000404503D14FF0000825E052E0DFF8C880A8
:10125000404502D14FF001081DE0DFF8C080404555
:1012600002D14FF0020816E0DFF8B480404502D109
:101270004FF003080FE0DFF8AC80404502D14FF09B
:10128000040808E0DFF8A080404502D14FF00508CF
:1012900001E04FF0060808FA06F848EA0508CCF81D
:1012A00008804D68D9F80060ED024D4601D516431F
:1012B00000E096432E604D68DAF80060AD025546B6
:1012C00001D5164300E096432E604D68DBF80060C0
:1012D000AD035D4601D5164300E096432E604D6890
:1012E000DEF80060ED03754601D5164300E0964335
:1012F0002E60641C0A681646E2407FF429AFBDE800
:10130000F88F000008040140000011100010024096
:101310000000014000080140000C014000100140A5
:101320000014014000180140001C01408068084082
:1013300000D0012070470AB1016170470904FBE742
:10134000014880687047000008000020024881685A
:10135000027811448160704708000020074810B5EA
:10136000016841F010010160032000F0A1F80F2096
:1013700000F006F800F050F8002010BD00200240F8
:1013800030B505461F4887B0C16941F02001C161F1
:10139000C06906A900F02000009001A800F030F913
:1013A0000498B0B100F04CF940001749174AB0FB5F
:1013B000F1F11748491E0260416040F2E732002116
:1013C000C0E903218160816100F01CFD040003D0AD
:1013D00015E000F035F9E8E70D4800F0AFFD040036
:1013E0000DD1372000F036F8102D07D20022294603
:1013F000372000F03DF80748056000E0012407B001
:10140000204630BD0010024040420F000014004052
:10141000C40400200C0000200C4808B5816941F08C
:1014200001018161816901F001010091C16941F00F
:101430008051C161C06900F080500090044841684B
:1014400021F0E06141F00071416008BD00100240F0
:1014500000000140002809DB00F01F02012191403B
:101460004009800000F1E020C0F800117047000042
:10147000F0B40E4B1B680C46C3F30223C3F10705FF
:10148000042D00D90425191D072901D2002300E0ED
:10149000DB1E012606FA05F1491E214099409E40B7
:1014A000761E16403143F0BC02F0CCBB0CED00E0E0
:1014B000064900F0070208684FF6FF03184040EAAB
:1014C0000220034A10430860704700000CED00E062
:1014D0000000FA052DE9F0470F46050061D0434EA4
:1014E000306800F00700B84209D2306820F00700E9
:1014F00038433060306800F00700B84251D12868A6
:101500003B4C810712D5400703D5606840F4E0608A
:1015100060602878000703D5606840F46050606020
:101520006068A96820F0F000084360602878C00770
:1015300028D06868012810D02168022810D08907B7
:1015400000292EDA616821F0030101436160FFF791
:10155000F7FE804641F288390DE021688903EFE704
:101560008901EDE7FFF7ECFEA0EB0801494502D940
:101570000320BDE8F0876068696800F00C00B0EBFC
:10158000810FEFD1306800F00700B8420BD9306806
:1015900020F0070038433060306800F00700B842A0
:1015A00001D00120E5E72878400705D56068E968A3
:1015B00020F4E060084360602878000706D5606882
:1015C000296920F4605040EAC100606000F058F8DA
:1015D0006168084AC1F30311515CC84006490860BC
:1015E00006480068FFF7CCFE0020C2E7002002405A
:1015F000001002401ADA0208140000200C0000203B
:101600000F2202600C4A536803F0030343605368DF
:1016100003F0F0038360536803F4E063C36052682F
:101620004FF4E06303EAD20202610448006800F06C
:1016300007000860704700000010024000200240D0
:101640000448054900684968044AC1F30221515C15
:10165000C840704714000020001002402ADA020837
:101660000448054900684968044AC1F3C221515C35
:10167000C840704714000020001002402ADA020817
:101680000E4A51680E4801F00C03042B11D0082BB0
:101690000FD10C48C1F38343C903C05C0AD551681C
:1016A000084AC1F34041921E515C054A5043B0FBC9
:1016B000F1F07047044948437047000000100240B1
:1016C00000127A000ADA020800093D002DE9F84FFD
:1016D000040070D02078C04DC00749D06868C0F3BE
:1016E0008100012807D06868C0F38100022809D171
:1016F0006868C00306D52868800339D5606800286B
:10170000E7D035E06068B0F5803F0BD010B1B0F5A0
:10171000A02F11D0286820F480302860286820F499
:10172000802002E0286840F480302860606890B132
:10173000FFF706FE06460AE0286840F4802028608D
:10174000F0E700BFFFF7FCFD801B642873D8286812
:101750008003F7D50CE0FFF7F3FD064605E000BF78
:10176000FFF7EEFD801B6428F0D828688003F7D4CB
:1017700020789A4E80074FF001094FF0000839D5C4
:10178000686810F00C0F07D06868C0F38100022869
:1017900009D16868C00306D42868800714D5206979
:1017A000012808D110E02069B0B1C6F80090FFF719
:1017B000C7FD074605E00AE1FFF7C2FDC01B02288E
:1017C000C4D828688007F7D52868616920F0F80038
:1017D00040EAC10028600DE0C6F80080FFF7B0FDC8
:1017E000074604E0FFF7ACFDC01B022823D8286899
:1017F0008007F7D4207800072CD57948A169D9B1A2
:10180000C0F80090FFF79CFD074604E0FFF798FD45
:10181000C01B02280FD8686A8007F7D571484FF4BB
:10182000FA510068B0FBF1F0009000BF0098411E33
:101830000091FAD20EE080E0C0F80080FFF780FD52
:10184000074604E0FFF77CFDC01B022875D8686AD4
:101850008007F7D42078400760D5E8690027C000EA
:1018600008D4E86940F08050E861E869012700F099
:10187000805000905C480168C90513D40168834614
:1018800041F480710160FFF75BFD824606E000BF16
:10189000FFF756FDA0EB0A0064284ED8DBF80000E5
:1018A000C005F5D5E06801280AD008B1052813D095
:1018B000286A20F001002862286A20F0040002E073
:1018C000286A40F001002862E06841F2883B98B144
:1018D000FFF736FD82460BE0286A40F004002862DC
:1018E000EEE700BFFFF72CFDA0EB0A0159455AD8DF
:1018F000286A8007F6D50CE0FFF722FD824605E056
:10190000FFF71EFDA0EB0A0159454CD8286A800755
:10191000F6D41FB1E86920F08050E861E06988B32F
:101920006968C1F38101022944D00228C6F86080A9
:1019300004D0FFF705FD044638E034E0FFF700FD72
:10194000074604E0FFF7FCFCC01B02282BD82868E0
:101950008001F7D4206AB0F5803F05D16868A1689E
:1019600020F4003008436860D4E90801084369683E
:1019700021F4741108436860C6F86090FFF7E0FC3A
:10198000044606E025E000BFFFF7DAFC001B022852
:1019900009D828688001F7D51BE000BFFFF7D0FC0D
:1019A000001B022802D90320BDE8F88F28688001B7
:1019B000F4D40EE00128F7D06868226A00F4803180
:1019C000914204D1616A00F47010884201D0012074
:1019D000EAE70020E8E70000001002400000424271
:1019E00080044242140000200070004070B50400E2
:1019F00009D0606A002540B125616561A56294F84F
:101A0000510040B10CE0012070BD6068B0F5827FEC
:101A1000F4D0E561F2E784F85050204600F040F839
:101A2000022084F851002068016821F04001016023
:101A3000A088218900F4827001F404410843A1893F
:101A400001F400610843217C01F002010843217D7B
:101A500001F001010843218B01F400710843217F4B
:101A600001F03801084394F8201001F08001084388
:101A7000218D01F40051084321680860A069042108
:101A800001EA1040216848602068C16921F40061C2
:101A9000C1616565012084F85100002070BD00001F
:101AA000F0B585B000250095019502950395006875
:101AB0001B49884232D11B4CA06940F48050A06180
:101AC000A06900F480500490A06940F00400A06177
:101AD000A069154F00F004000490A020009002209F
:101AE00001260190694603963846FFF723FB402004
:101AF000CDE90005694638460295FFF71BFBA06952
:101B000040F00400A061A069694600F00400049060
:101B10001020CDE900063846FFF70CFB05B0F0BDFC
:101B20000030014000100240000801402DE9FF4F45
:101B300081B0044690F8500000260E9F1D46934643
:101B40004FF0010901280FD04FF0010A84F850A08E
:101B5000FFF7F6FB804694F85100616801280DD02C
:101B6000B1F5827F08D103E0022005B0BDE8F08F17
:101B7000A16809B9042801D00226C9E0029800280A
:101B800065D0BBF1000FFBD0002DF9D094F85100C7
:101B9000042802D0052084F8510000206065C4F8B4
:101BA00038B0E587A58702992163E586A58620647C
:101BB000606420680168490603D4016841F040016F
:101BC0000160E068B0F5006F606803D0F0B3012DEC
:101BD00047D081E008B1012D3CD1206B21680088FD
:101BE000C860206B801C2063E08E401EE08631E0E0
:101BF0002068816889070FD5E18E69B1B9F1010FBD
:101C00000AD1216B0988C160206B801C2063E08EA3
:101C1000401EE0864FF0000920688168C9070CD09B
:101C2000E18F51B1C068A16B0880A06B801CA063DC
:101C3000E08F401EE0874FF00109FFF781FBA0EB2A
:101C40000800B84206D3781C04D001E009E05BE04C
:101C500003265BE0E08E0028CAD1E08F0028C7D1C0
:101C600040E0206B216800780873206B401C2063E3
:101C7000E08E401EE0862FE02068816889070FD53E
:101C8000E18E69B1B9F1010F0AD1216B09780173B5
:101C9000206B401C2063E08E401EE0864FF0000960
:101CA00020688168C9070CD0E18F51B1C068A16B71
:101CB0000870A06B401CA063E08F401EE0874FF0CF
:101CC0000109FFF73DFBA0EB0800B84202D3781CE6
:101CD00002D0BAE7002FB8D0E08E0028CCD1E08F38
:101CE0000028C9D142463946204601F07AFA18B197
:101CF0000126202060650BE0A06818B92068C16843
:101D000080680090606D08B1012601E084F851A060
:101D1000002084F85000304627E770B515460E467F
:101D2000040007D0A069B0F5807F03D094F841008B
:101D300010B107E0012070BD002084F8400020466B
:101D400000F01DF804F108012068FEF77FFE31461F
:101D5000A2682068FEF7AEFED4E901022946236B93
:101D6000FEF756FEA168206850F8212042F00102DB
:101D700040F82120012084F84100002070BDFFF7C9
:101D8000EBB870477047000070B590F83C20012A0E
:101D90002CD0012480F83C40022280F83D200368CA
:101DA0005A689D6822F070060A6832435A60104BE8
:101DB00002689A420ED00F4B9A420BD0B2F1804F7C
:101DC00008D00D4B9A4205D00C4B9A4202D00C4BD6
:101DD0009A4204D1496825F080031943916080F844
:101DE0003D40002180F83C10084670BD022070BDC7
:101DF000002C014000340140000400400008004075
:101E0000000C004010B5040003D094F83D0010B160
:101E100007E0012010BD002084F83C00204600F0BF
:101E20001FF8022084F83D00211D206801F098FA77
:101E3000012084F8460084F83E0084F83F0084F8CE
:101E4000400084F8410084F8420084F8430084F89C
:101E5000440084F8450084F83D00002010BD0000D7
:101E600008B501681948B1F1804F11D0184A914264
:101E700017D1C16941F00201C161C069002200F0BF
:101E80000200009011461D20FFF7F2FA1D2019E014
:101E9000C16941F00101C161C06900F00100009019
:101EA00008BD0C4A9142FBD1C16941F01001C161EA
:101EB000C069002200F01000009011463620FFF7A4
:101EC000D7FA3620BDE80840FFF7C4BA0010024038
:101ED000000400400010004090F83D10012901D09E
:101EE00001207047022180F83D1000680E498842A9
:101EF0000ED00E4988420BD0B0F1804F08D00C496B
:101F0000884205D00B49884202D00B49884204D14F
:101F1000816801F00701062903D0016841F0010141
:101F20000160002070470000002C01400034014097
:101F30000004004000080040000C004090F83D10F4
:101F4000012901D001207047022180F83D1001686D
:101F5000CA6842F00102CA6000680E4988420ED089
:101F60000D4988420BD0B0F1804F08D00B49884210
:101F700005D00B49884202D00A49884204D18168C1
:101F800001F00701062903D0016841F00101016059
:101F900000207047002C0140003401400004004044
:101FA00000080040000C004001680A6A41F2111369
:101FB0001A4207D10A6A9B101A4203D10A6822F01A
:101FC00001020A60012180F83D100020704770B5C1
:101FD000044690F83C000025012817D0012684F81B
:101FE0003C60022084F83D002068826822F077027D
:101FF00022F47F4282600868502838D00DDC202807
:102000004FD005DC90B3102811D14AE0022070BDFA
:10201000302846D040280AD13BE060282FD07028D5
:102020000DD0B0F5805F03D0B0F5005F12D0012570
:1020300084F83D60002084F83C00284670BDCB68E1
:10204000D1E90121206801F0DEF92068816841F0C2
:10205000770109E0CB68D1E90121206801F0D3F9CB
:102060002068816841F480418160E1E719E0CA6835
:102070004968206801F09CFA5021206806E0CA688F
:102080004968206801F0A5FA6021206801F0C5F9CF
:10209000CEE7CA684968206801F08AFA40212068C2
:1020A000F4E7226801461046F0E7704770B5044631
:1020B000006801694FF00005C943890715D4C1685C
:1020C000C943890711D4E91E0161012020772068E6
:1020D00080698007204602D0FFF7E7FF04E000F0A8
:1020E000C9F8204600F05CF9257720680169C943EA
:1020F000490717D4C168C943490713D46FF00401D5
:102100000161022020772068806910F4407F20461A
:1021100002D0FFF7CAFF04E000F0ACF8204600F060
:102120003FF9257720680169C943090716D4C168BA
:10213000C943090712D46FF0080101610420207718
:102140002068C0698007204602D0FFF7AEFF04E098
:1021500000F090F8204600F023F925772068016907
:10216000C943C90617D4C168C943C90613D46FF05F
:1021700010010161082020772068C06910F4407FB9
:10218000204602D0FFF791FF04E000F073F82046EC
:1021900000F006F9257720680169C943C90708D10D
:1021A000C168C943C90704D1891E0161204600F0F6
:1021B000D5F920680169C943090609D4C168C94332
:1021C000090605D46FF0800101612046FFF7D9FDB3
:1021D00020680169C943490609D4C168C943490651
:1021E00005D46FF040010161204600F0C9F9206874
:1021F0000169C94389060BD4C168C943890607D45C
:102200006FF0200101612046BDE87040FFF7BABDC4
:1022100070BD000000B585B00021009101910291D0
:10222000039100680F4988421AD10F48816941F033
:10223000100181618069694600F01000049040201F
:1022400000900220019003900848FEF773FF0848B1
:10225000416821F4406141F0E06141F44061416036
:1022600005B000BD00040040001002400010014015
:1022700000000140704770B5044690F83C0000260D
:102280000D4601280FD0012084F83C006AB1042AD1
:102290001DD0082A2FD00C2A3FD00126002084F818
:1022A0003C00304670BD022070BD206801F0BEF8D1
:1022B0002068816941F0080181612068816921F00D
:1022C00004018161206881692A69114311E0206855
:1022D00001F0DCF82068816941F4006181612068C7
:1022E000816921F480618161206881692A6941EAFC
:1022F00002218161D2E7206801F0FEF82068C169FF
:1023000041F00801C1612068C16921F00401C16187
:102310002068C1692A69114311E0206801F020F9A1
:102320002068C16941F40061C1612068C16921F47C
:102330008061C1612068C1692A6941EA0221C161E5
:10234000ACE710B5040003D094F83D0010B107E0ED
:10235000012010BD002084F83C00204600F01EF84B
:10236000022084F83D00211D206800F0F9FF0120C3
:1023700084F8460084F83E0084F83F0084F840006A
:1023800084F8410084F8420084F8430084F8440053
:1023900084F8450084F83D00002010BD704700001F
:1023A00000680449884204D1044903480968007858
:1023B00048637047000400401800002060030020BC
:1023C00030B500250446022249B1042912D008295B
:1023D00046D094F8410001284DD0012030BD94F83A
:1023E0003E000128F9D184F83E202068C26842F0FE
:1023F000020209E094F83F000128EED184F83F2062
:102400002068C26842F00402C2600122206800F025
:10241000EDFF1E4920681E4A884201D0904203D138
:10242000436C43F400434364206888420DD09042DB
:102430000BD0B0F1804F08D01649884205D016491C
:10244000884202D01549884204D1816801F0070111
:10245000062903D0016841F001010160284630BD22
:1024600094F840000128B8D184F840202068C26860
:1024700042F00802C8E784F841200C2901D0012568
:10248000ECE72068C26842F01002BDE7002C014072
:10249000003401400004004000080040000C0040EF
:1024A00070B50D0004464FF0000607D0042D0AD089
:1024B000082D0DD00C2D10D001263FE02068C168FA
:1024C00021F002010DE02068C16821F0040108E05C
:1024D0002068C16821F0080103E02068C16821F08C
:1024E0001001C16000222946206800F07FFF194BCF
:1024F00041F2111120688A10984202D0164B98427E
:1025000009D1036A0B4206D1036A134203D1436C1B
:1025100023F4004343642068036A0B4206D1016A36
:10252000114203D1016821F00101016001203DB198
:10253000042D08D0082D09D084F84100304670BD24
:1025400084F83E00FAE784F83F00F7E784F840009B
:10255000F4E70000002C0140003401400068064907
:10256000884201D1FEF7F2BE0449884202D101201F
:1025700024F08CBF704700000014004000100040A1
:102580007047704770470000F8B501680446086856
:10259000CA684B6910F00F0F4FF0000559D003F0D7
:1025A000010602F49077374365D0C10705D0D10505
:1025B00003D5616C41F001016164410705D5D9077C
:1025C00003D0616C41F002016164810705D5D90730
:1025D00003D0616C41F004016164010707D502F08A
:1025E0002001314303D0616C41F008016164616CEA
:1025F00000293AD0800604D5900602D5204601F085
:1026000029F820684069616CC0F38010090700D484
:1026100060B3204600F0F7FF20684069400621D5EE
:102620002068143050E8001F21F0400140E80012FB
:10263000002AF5D1E06BA8B16D494163E06BFEF76C
:102640007FFA002811D0E06B416B01B0BDE8F0408B
:10265000084783060FD593060DD52046BDE8F84000
:1026600000F0F8BF2046FFF78DFFF8BD2046FFF7CA
:1026700089FF6564F8BD266B2023012E7CD1C60638
:102680007AD5D60678D508684868009048694FF032
:102690000206400640D5E16B086840680004000C63
:1026A000E8D0A28D8242E5D9E085886920282DD026
:1026B00020680C3050E8001F21F4807140E80012BF
:1026C000002AF5D12068143050E8001F21F00101E4
:1026D00040E80012002AF5D12068143050E8001FAD
:1026E00021F0400140E80012002AF5D184F8423080
:1026F000256320680C3050E8001F21F0100140E8ED
:102700000012002AF5D1E06BFEF7F6F96663A08DA2
:10271000E18D401A81B22AE0A08DE18D401A81B28C
:10272000E08D0028A6D00029A4D022680C3252E8FF
:10273000000F20F4907042E80007002FF5D12068C8
:10274000143050E8002F22F0010240E80027002F4B
:10275000F5D184F84230256320680C3050E8002F12
:1027600022F0100240E80023002BF5D166632046DA
:10277000FFF707FFF8BDFFE705062BD5150629D59E
:1027800094F841002128F5D1A068B0F5805F01D10F
:102790002069B0B1206A411C21622168007848603C
:1027A000E08C401E0004000CE084E3D12068C16886
:1027B00021F08001C1602068C16841F04001C16022
:1027C000D8E7206A0088C0F308004860206A801CAF
:1027D0002062E5E74006CDD55006CBD5CA68204635
:1027E00022F04002CA6084F8413000F003F9C1E7EA
:1027F000F735000870B5040004D094F841000025B6
:1028000010B106E0012070BD84F84050204600F071
:1028100023F8242084F841002068C16821F4005185
:10282000C160204600F078FF2068016921F49041E2
:1028300001612068416921F02A0141612068C16875
:1028400041F40051C1606564202084F8410084F89F
:1028500042006563002070BDF0B585B0002400948F
:1028600001940294039406460368344F02203449CD
:1028700003224502BB4221D18B6943F480438B6123
:102880008B6903F4804304938B6943F004038B61E9
:1028900089692C4E01F0040104910102CDE9001078
:1028A000039269463046FEF745FCCDE9005469467F
:1028B00030460294FEF73EFC05B0F0BD224FBB420D
:1028C000FAD1CB6943F48023CB61CB6903F4802335
:1028D00004938B6943F008038B61896901F0080157
:1028E000CDE90321CDE90050184D69462846FEF791
:1028F00021FCE814CDE90004694628460294FEF75D
:1029000019FC144D1248C5E900048020C5E90240B5
:102910002C616C61AC612846EC61FEF7CDFA08B120
:10292000FEF72CF8F5630022114627206E62FEF7B1
:102930009FFD2720FEF78EFDBEE700000038014016
:10294000001002400008014000480040000C014017
:10295000300002408004002070472DE9F84304460F
:1029600090F841001F4616460D46202802D002204E
:10297000BDE8F8837DB176B100206064212084F841
:102980004100FEF7DDFCA6848046E684A068B0F531
:10299000805F02D003E00120EAE7206910B12E46F3
:1029A00000250EE000260CE08021204600F010FFFC
:1029B000A0B9AEB116F8010B21684860E08C401E4A
:1029C000E084E08C43464FF0000200970028EBD1F2
:1029D0004FF04001204600F0FBFE30B10320C7E776
:1029E00035F8020BC0F30800E6E7202084F8410028
:1029F0000020BDE77047FEE7002810B507484FF0FC
:102A0000000102D0FFF7DCFC01E0FFF749FD0028E0
:102A100003D0BDE81040FDF7B1BF10BD600300203A
:102A200010B500F009F8002000F06CF9BDE8104086
:102A30004FF6FF7000F018B910B5E02000F018FA5A
:102A4000002000F01BFA072000F018FA102000F018
:102A500015FA092000F012FA172000F00FFA0B20E7
:102A600000F00CFA412000F009FA892000F006FA83
:102A70004B2000F003FA0A2000F000FA0C2000F0CE
:102A8000FDF90E2000F0FAF9182000F0F7F91B20EC
:102A900000F0F4F90F2000F0F1F9E12000F0E8F97E
:102AA000002000F0EBF9172000F0E8F91A2000F000
:102AB000E5F9042000F0E2F90E2000F0DFF906202D
:102AC00000F0DCF92F2000F0D9F9452000F0D6F90C
:102AD000432000F0D3F9022000F0D0F90A2000F0E2
:102AE000CDF9092000F0CAF9322000F0C7F93620EC
:102AF00000F0C4F90F2000F0C1F9E92000F0B8F9A6
:102B0000002000F0BBF9F22000F0B2F9582000F0EC
:102B1000B5F9042000F0B2F9122000F0AFF902205C
:102B200000F0ACF9222000F0A9F9422000F0A6F94B
:102B3000FF2000F0A3F90A2000F0A0F9902000F097
:102B40009DF9142000F09AF9882000F097F9F720F9
:102B500000F08EF9A92000F091F9512000F08EF9D3
:102B60002C2000F08BF9822000F088F9F82000F08A
:102B70007FF9212000F082F9042000F07FF9C020C5
:102B800000F076F9112000F079F9092000F076F9CB
:102B9000C12000F06DF9412000F070F9C52000F06F
:102BA00067F9002000F06AF90A2000F067F9802038
:102BB00000F064F9362000F05BF9C82000F05EF9FF
:102BC0003A2000F055F9552000F058F9B02000F0F7
:102BD0004FF9002000F052F9B12000F049F9B0207F
:102BE00000F04CF9112000F049F9B42000F040F950
:102BF000022000F043F9B62000F03AF9022000F07C
:102C00003DF9222000F03AF9B72000F031F9C62052
:102C100000F034F9BE2000F02BF9002000F02EF96E
:102C2000042000F02BF9E92000F022F9002000F048
:102C300025F9112000F01CF97820FEF77BF9BDE89A
:102C40001040292000F014B9012801D0002801D13A
:102C5000FFF7D2BE70470000642800D96420014904
:102C60000870704718000020F0B50B4E0B4F002481
:102C70007588B18838804D432146204600F0D6F84B
:102C8000074930890880891C388801E00880641C65
:102C9000AC42FBD3F0BD00000C0500201A00002060
:102CA000FEFFFF6C2DE9F0438146A2EB0900401CBA
:102CB0000E4685B2981B401C87B20024DDF81C80AC
:102CC00017E0301981B2484600F0B0F80B480C49C3
:102CD0000089088000208A1C07E000BF04FB050370
:102CE00038F813101180401C80B2A842F6D3641C3F
:102CF000A4B2BC42E5D3BDE8F08300000C0500207F
:102D0000FEFFFF6C70B400F0010207281DD81049C7
:102D10002A2349F288464B812B238B812C230B815C
:102D20000B46C8801B884FF4A0744FF4F0753AB17D
:102D30001AB1B34201D14D808C8070BC00F050B804
:102D4000B342FAD14C808D80F7E770BC7047000029
:102D50000C0500200749D3200880881C01880188C1
:102D600001884FF6FF72008802EA012108430249F8
:102D700008807047FEFFFF6C0C05002010B55A203C
:102D8000FFF76AFF0120FFF75FFF00F00FF8FFF782
:102D9000E1FF05480088A0F51441883903D1BDE85A
:102DA0001040FFF73DBE10BD0C05002070B50B4D67
:102DB0004FF40064002221462846FEF7BCFA40F694
:102DC000FF2630462AF0ECFC012221462846FEF779
:102DD000B2FA3046BDE870402AF0E2BC001C014067
:102DE00030B5104A104B518919800024991C0C8071
:102DF0000C805488641E250A0D80E4B20C809489EE
:102E00001C8000240C800C809288521E140A0C80B6
:102E1000D2B20A80082242EA40103622C0B21A809A
:102E2000088030BD0C050020FEFFFF6C30B50E4B56
:102E30000E4C5A892280050AA21C1580C0B210804F
:102E40005888401E050A1580C0B2108098892080DD
:102E5000080A1080C8B210809888401E010A1180AC
:102E6000C0B2108030BD00000C050020FEFFFF6CDA
:102E70000149088070470000FEFFFF6C4FF0DA4107
:102E80000880704719F0F6FD20F046FF20F06AFF39
:102E900013F022FE24F0F4FB0520FEF74BF8F9E7CF
:102EA000094808B5416941F00101416140690022CA
:102EB00000F00100009011460D20FEF7D9FABDE8A0
:102EC00008400D20FEF7C6BA0010024010B58EB0C3
:102ED0001C216846FDF7B2F91C2107A8FDF7AEF9E1
:102EE0001C484FF02041102201601B49416006211F
:102EF00081600021C160C0E904128161C1611302D7
:102F00000162C0E909139302C0E90B1341638163B5
:102F10000F20CDE9001002230DF10C0C02931124B7
:102F20008CE8160009930691CDE907100AA880E8FD
:102F300016000D9107AA69460648FEF7EEFE08B195
:102F4000FDF71CFD0548C16941F48061C1610EB007
:102F500010BD000078020020040100A00000014024
:102F60001D4808B5816941F040018161816901F026
:102F700040010091816941F010018161816901F096
:102F800010010091816941F080018161816901F046
:102F900080010091816941F004018161816901F042
:102FA00004010091816941F008018161816901F0AA
:102FB00008010091816941F020018161816901F07E
:102FC00020010091816941F480718161806900F480
:102FD0008070009008BD000000100240114810B53C
:102FE0000F4901604FF48271416000218160C1602E
:102FF0004FF400720161C0E905121822C0E90721EF
:10300000416281620A21C162FEF7F0FC08B1FDF75E
:10301000B5FC0122BDE8104010210348FEF78BB932
:1030200000300140C00200200008014010B586B009
:1030300000241548009401940294039404944FF0E2
:103040008041059401604721C0E90114C460046116
:103050008461FEF7D7FE08B1FDF790FC4FF4805075
:10306000009069460848FEF7B2FF08B1FDF786FCFC
:10307000049404A904480594FEF786FE002801D0B4
:10308000FDF77CFC06B010BD1803002010B58EB013
:1030900000240794089409940A940B941C21684610
:1030A0000C94FDF7CBF81F481D4901604721C0E98A
:1030B00001146321C0E903148461FEF7A3FE08B183
:1030C000FDF75CFC4FF48050079007A91548FEF708
:1030D0007EFF08B1FDF752FC1248FFF732F908B144
:1030E000FDF74CFC0B940BA90E480C94FEF74CFE1C
:1030F00008B1FDF743FC60200090502001900220B1
:1031000002900022694604940648FFF7B4F808B11B
:10311000FDF734FC0348FFF77DF80EB010BD00004A
:1031200000040040600300201CB500240E480094F9
:103130000C49019401604721C0E9011440F2E731D4
:103140008461C160FEF75EFE08B1FDF717FC0094D4
:10315000694605480194FEF717FE002801D0FDF7E7
:103160000DFC1CBD00100040A80300200C4810B549
:103170000A4901604FF4E1314160002181600C2275
:10318000C160C0E904128161C161FFF733FB00280F
:1031900003D0BDE81040FDF7F1BB10BD0038014081
:1031A000F00300200C4810B50A4901604FF4E131EA
:1031B0004160002181600C22C160C0E9041281617C
:1031C000C161FFF717FB002803D0BDE81040FDF7F1
:1031D000D5BB10BD0048004038040020FEE7FEE7E4
:1031E000704738B50B46009204460022802100F05B
:1031F00009F8002804D0606D40F0200060650320CD
:1032000038BD00002DE9F8431E4691468846044625
:10321000089DFEF795F8401B351AFEF791F8074612
:1032200025480068C0F3CB30684338E0701C37D0C5
:10323000FEF786F8C01BA84203D215B1009860B310
:103240002CE02068416821F0E00141606068B0F541
:10325000827F0BD1A068B0F5004F02D0B0F5806F2F
:1032600004D12068016821F040010160A06AB0F536
:10327000005F09D12068016821F4005101602068D5
:10328000016841F400510160012084F851000020E0
:1032900084F850000320BDE8F8830025401E00900C
:1032A0002068816838EA010004D000214945BDD179
:1032B0000020F0E70121F9E71400002003B583B0F6
:1032C00000218DF8041032210091012301AA04A9E4
:1032D000FEF72CFC9DF8040005B000BD7047704758
:1032E00030B58FB028216846FCF7A8FF14210AA842
:1032F000FCF7A4FF01210804CDE90010002402948A
:1033000002250491CDE907504FF4E010099068467A
:10331000FEF7DCF960B90F20CDE90A056802CDE9B6
:103320000C4002210AA80E94FEF7D4F8002801D020
:10333000FDF724FB0FB030BD704700000148FEF7D9
:10334000B5BE0000600300200148FEF7AFBE0000DC
:10335000A80300200148FEF7A9BE0000C404002015
:10336000F0B502681C4B1D4D1D4E1E4F1E4C4FF0FC
:10337000804C984209D0A04207D0604505D0A842B1
:1033800003D0B04201D0B84204D122F0700E4A6896
:1033900042EA0E02984209D0A04207D0604505D00B
:1033A000A84203D0B04201D0B84203D122F4407504
:1033B000CA682A434D6922F080022A4302608A6863
:1033C000C2620A688262984201D0A04201D10969B2
:1033D000016301214161F0BD002C01400004004067
:1033E00000080040000C00400034014010B501F01E
:1033F0001F030121046A99408C430462016A9A40C8
:103400001143016210BD10B5846842EA032224F41E
:103410007F440A432243826010BD826822F070021A
:103420000A4342F00701816070470000F0B5036A6B
:10343000026A22F00102026242688469124E24F09C
:1034400073050C682C4323F002058B682B430D4D4C
:10345000A84201D0B04205D123F00807CB683B4316
:1034600023F00403A84201D0B04205D14D6922F4F3
:10347000407215438A692A43426084614968416306
:103480000362F0BD002C014000340140F0B5026A37
:10349000036A23F010030362436884690D6824F40F
:1034A000E64444EA05248D6822F0200242EA05122F
:1034B0000F4D104EA84201D0B04206D1CF6822F085
:1034C000800242EA071222F04002A84201D0B04234
:1034D00007D14D6923F4406343EA85038D6943EACC
:1034E000850343608461496881630262F0BD000026
:1034F000002C014000340140F0B5026A036A23F455
:10350000807303624368C46922F4007224F0730577
:103510000C68124E2C438D6842EA05220E4DA842DB
:1035200001D0B04206D1CF6822F4006242EA0722FD
:1035300022F48062A84201D0B04207D14D6923F441
:10354000405343EA05138D6943EA05134360C461A0
:103550004968C1630262F0BD002C014000340140A3
:1035600030B5046A026A22F4805202624268C3697A
:103570000D6823F4E64343EA05238D6824F40054E0
:1035800044EA0534084DA84202D0084DA84204D1AF
:103590004D6922F4804242EA85124260C361496863
:1035A0000164046230BD0000002C01400034014081
:1035B00010B5036A046A24F001040462846924F0EB
:1035C000F00444EA021423F00A020A43846102620E
:1035D00010BD10B5036A046A24F010040462846903
:1035E00023F0A00324F4704444EA023243EA0111B8
:1035F0008261016210BD10B5406A0021C185C1849D
:10360000FEF7C0FF10BD01680C3151E8002F22F415
:10361000907241E80023002BF5D10168143151E884
:10362000002F22F0010241E80023002BF5D1016BAD
:10363000012909D101680C3151E8002F22F0100254
:1036400041E80023002BF5D1202180F84210002111
:103650000163704708B590F84210222901D002207A
:1036600008BD82684FF480539A4201D1016921B1AB
:10367000816A9A421BD04AB10AE00268816A5268A4
:10368000C2F308020A80816A891C08E0026972B1EB
:103690000268526802F07F020A70816A491C8162E6
:1036A000C18D491E0904090CC18503D01BE00268C5
:1036B0005268F1E70168CA6822F02002CA60016816
:1036C000CA6822F48072CA6001684A6922F0010265
:1036D0004A61202180F8421000214163026B012AD7
:1036E00003D0FFF739F9002008BD016301680C31F0
:1036F00051E8002F22F0100241E80023002BF5D101
:1037000001680A68D20602D50A6849680091818D6D
:10371000FEF737FFE7E7000070B50446006801696F
:10372000E26821F44051114301612169A068084316
:10373000616908432168CA6841F20C639A430243F5
:10374000CA6020684169A26921F440711143416156
:103750001E492068884202D1FDF782FF01E0FDF793
:103760006FFF00EBC00101EB001260686421800074
:10377000B2FBF0F3B3FBF1F36FF018067343B2FB47
:10378000F0F5B2FBF0F605EB8305322303EB0515EC
:10379000B5FBF1F5B6FBF1F605F0F00505EB061506
:1037A000B2FBF0F6B2FBF0F0B0FBF1F06FF01802F4
:1037B000504306EB800003EB0010B0FBF1F02168F2
:1037C00000F00F002844886070BD00000038014000
:1037D0002DE9F041984617460E460446069D27E01F
:1037E000681C25D02DB1FDF7ABFDA0EB0800A84269
:1037F0001ED920680C3050E8001F21F4D07140E839
:103800000012002AF5D12068143050E8001F21F082
:10381000010140E80012002AF5D1202084F841007F
:1038200084F84200002084F840000320BDE8F081C5
:103830002068006836EA000004D00020B842CFD0EB
:103840000020F3E70120F9E70148FEF79DBE0000E4
:1038500038040020FEE700002DE9FC4707460E462D
:103860004FF00109684600F0D1F8C8B3BDF9020075
:10387000FCF797FDDFF87080B8F8061006EB4114EE
:10388000E168FCF75CFD0546BDF90000FCF789FD29
:10389000A168FCF754FD2946FCF7F9FC2169FCF707
:1038A000F6FCFCF787FD3880BDF90200FCF779FDD6
:1038B000B8F8061006EB4114A169FCF740FD054677
:1038C000BDF90000FCF76DFD6169FCF738FD294684
:1038D000FCF7DDFCE169FCF7DAFCFCF76BFD7880B6
:1038E0004846BDE8FC8700000C0500202DE9F041AA
:1038F000294886B0816941F040018161816901F008
:1039000040010491816941F0800181618069012455
:1039100000F0800004904FF48060CDE90004DFF8EF
:103920007C800325694603954046FDF703FC200291
:10393000009069464046FDF7FDFB4026184FCDE953
:103940000064694638460395FDF7F4FB0395802033
:103950000025CDE90005694602944046FDF7EAFBE3
:10396000012240213846FDF7E6FC0096CDE90154DE
:1039700069464046FDF7DEFB0A480088A0F5144181
:10398000883905D1C0224FF498310748FDF708F86F
:1039900006B0BDE8F081000000100240001C0140AC
:1039A000001801400C0500201C0500202DE9F04105
:1039B00000F0F4F8144E00252A464FF4807130468A
:1039C000FDF7B9FC0122970239463046FDF7B3FCFA
:1039D0000024002239463046FDF7ADFC80213046F8
:1039E000FDF7A4FCC4F10B018840284385B20122F5
:1039F00039463046FDF79FFC641CE4B20C2CE8D33A
:103A00002846BDE8F0810000001C01402DE9F0418E
:103A10008AB00546002628216846FCF70FFCDFF82F
:103A200010816C469020FFF7C1FF0746012029F066
:103A3000B7FED020FFF7BAFF24F8167004EB46015A
:103A4000761C8882F6B240214046FDF76FFC08B92B
:103A50000A2EE7D30A2E03D000200AB0BDE8F08179
:103A6000BDF90010BDF914008C46624603460126DC
:103A700034F916708F4201DA394602E0974200DDD0
:103A80003A46761CF6B20A2EF2D3012604EB46071C
:103A9000B7F914709F4201DA3B4602E0874200DD2D
:103AA0003846761CF6B20A2EF0D3BDF90240BDF9B5
:103AB0000460BDF9067064443E443444BDF90860B6
:103AC0003444BDF90A603444BDF90C603444BDF996
:103AD0000E603444BDF910603444BDF912603444C2
:103AE000611A891AC9102980BDF91410BDF9162070
:103AF000BDF91A401144BDF9182022441144BDF902
:103B00001C201144BDF91E201144BDF92020114490
:103B1000BDF922201144BDF924201144BDF926200D
:103B20001144C91A081AC0106880012095E70000E6
:103B3000001C01402DE9F041164C00261648217862
:103B40003546012731B14FF00208012907D002297B
:103B500018D113E04021FDF7E9FB68B112E04021E4
:103B6000FDF7E4FB08B165600CE06068401C606034
:103B7000022801D9656009E0277004E04021FDF7C3
:103B8000D5FB18B125703046BDE8F08184F800807F
:103B90000126F8E730000020001C01402DE9F04725
:103BA0001B4D07464FF48076002231462846FDF72C
:103BB000C2FB4FF48068002241462846FDF7BBFB5C
:103BC000B14600244FEA0806C4F1070027FA00F0C6
:103BD000C00701D0012200E0002249462846FDF737
:103BE000AAFB052029F0DCFD012231462846FDF71D
:103BF000A2FB052029F0D4FD002231462846FDF71E
:103C00009AFB641CE4B2082CDED3BDE8F087000008
:103C1000001C01400FB4054B10B503A9044A0298DB
:103C200002F032F910BC5DF814FB0000150D01081C
:103C300074020020014B024A02F026B9150D01085A
:103C4000740200200907090E002804DB00F1E020BF
:103C500080F80014704700F00F0000F1E02080F8B9
:103C6000141D704702E008C8121F08C1002AFAD1CB
:103C700070477047002001E001C1121F002AFBD1EC
:103C8000704770B5044600256FF02F0608E02068E5
:103C9000411C2160007805EB850106EB41014518C8
:103CA0002068007800F0C6F80028F0D1284670BDE2
:103CB0002DE9FF5F82B00021DDE90430020DDDF85F
:103CC00040B0034318D044F61050A2F2FF324243F2
:103CD0001514119801281FD0A5EB0B00401C5FEABA
:103CE000000A4FF000064E4FDFF83891B0465046BC
:103CF00015D5CAF1000413E0119801244AA3012844
:103D000001D16FEA0B010298119AC0E90031C0E9B4
:103D1000024206B0BDE8F09FCBF10000DFE70446A9
:103D20000021404A491842EB0450CDE9001012E04E
:103D3000E00707D032463B4640464946FCF756FC72
:103D40008046894632463B4610461946FCF74EFCF3
:103D500006460F466410002CEAD1DDE90401DDE9D6
:103D60000023BAF1000F06DAFCF740FC42464B464E
:103D7000FCF73CFC05E0FCF7ABFC42464B46FCF78D
:103D8000A7FC04460E460022284BFCF729FD03D869
:103D90004FF0FF30014607E00022254B2046314618
:103DA000FCF77DFBFCF703FD102409E0002C0ADB87
:103DB0000A220023FCF7DAF9039B30321A55641EFD
:103DC00050EA0102F2D1641C039AC4F111031444B5
:103DD000119A012A03D0012208430DD10AE00843B9
:103DE00004D000204FF0110B119072E7A3EB0B05EC
:103DF0006D1E0DE05B4504DD4FF0000205F101058D
:103E000004E003DA4FF00002A5F10105002AECD02E
:103E100002981199C0E90231C0E9004579E7000034
:103E2000000014400000F03F300000000000F043AC
:103E30000000E03F3038092801D8012070470020F9
:103E40007047000010B54021074801F061FA0022D8
:103E50000521064823F094FB054CA06003F07CF894
:103E60000020207010BD0000F8390020017000080B
:103E7000C001002070B5B1F90030B2F90040A34292
:103E800000DC23460380B1F90250B2F90240A5429A
:103E900000DD2C464480B1F90460B2F90450AE4212
:103EA00000DA35468580B1F90610B2F90620914254
:103EB00000DB1146C1800120AB4201DC8C4200DDF9
:103EC000002070BDF8B50D460446B0F90000B1F908
:103ED00000101646884247DBB4F90210B5F90220FB
:103EE000914241DBB4F90410B5F9042091423BDC66
:103EF000B4F90610B5F90620914235DC96B3ADF859
:103F000000006088ADF8020032466946284600F09D
:103F100099F8002827D0A088ADF800006088ADF897
:103F2000020032466946284600F08CF800281AD074
:103F30002088ADF80000E088ADF8020032466946FE
:103F4000284600F07FF800280DD0A088ADF80000CA
:103F5000E088ADF8020032466946284600F072F863
:103F6000002800D00120F8BD0020F8BDB0F90020E5
:103F7000B1F904309A4213DCB0F90420B1F90030F1
:103F80009A420DDBB0F90220B1F906309A4207DC03
:103F9000B0F90600B1F90210884201DB0120704738
:103FA00000207047F8B50D460446B0F90400B1F999
:103FB00000101646884243DBB4F90600B5F902103A
:103FC00088423DDBB4F90000B5F90410884237DCC3
:103FD000B4F90210B5F90620914231DC76B3ADF8A0
:103FE00000006088ADF8020032466946284600F0BD
:103FF00029F818BBA088ADF800006088ADF8020071
:1040000032466946284600F01DF8B8B92088ADF858
:104010000000E088ADF8020032466946284600F00C
:1040200011F858B9A088ADF80000E088ADF802009A
:1040300032466946284600F005F808B10020F8BD70
:104040000120F8BD2DE9FC4114460E46B1F90020CF
:10405000B0F9001005468A423ADBB5F90400824205
:1040600036DCB6F90270B5F90220974230DBB5F9BB
:1040700006309F422CDC002C75DD401A9A1A401C39
:10408000521C00B212B200EBD07002EBD2724010A0
:104090005210904200DB1046844200DD0446ADF829
:1040A0000010288800222044ADF804006888ADF88C
:1040B0000200688831462044ADF806006846FFF7E4
:1040C000C1FF40B1BDF804002044ADF804003FE05A
:1040D0000020BDE8FC81E8880022001BADF802004A
:1040E000E888ADF8060031466846FFF7ABFF28B117
:1040F000BDF804002044ADF8040011E0A8880022B7
:10410000001BADF80000A888ADF8040031466846F1
:10411000FFF798FF50B1BDF80000001BADF800009C
:10412000BDF80200001BADF8020016E06888ADF88B
:104130000200688800222044ADF806003146684637
:10414000FFF780FF70B1BDF80000001BADF8000064
:10415000BDF806002044ADF80600314668461FF061
:10416000BDFDB6E7FFE70120B3E710B5B1F90040A8
:10417000B2F900309C4200DA23460380B1F90240D4
:10418000B2F902309C4200DA23464380B1F9044080
:10419000B2F904309C4200DD23468380B1F9061059
:1041A000B2F90620914200DC1146C18010BD00002A
:1041B0002DE9F0418AB0054623F05EF90026A44CB3
:1041C000074600960DB1E86801E012F01DFE606040
:1041D00000691FF05BFC6068406908B11FF056FC85
:1041E0006068C0691FF052FC6068006A1FF04EFCF6
:1041F00060680169F1B31FF0EBFF1FF067FF6068B3
:10420000B0F8501199B30168097C890715D512F0EF
:1042100057FF401E05B2606812F00EFE401E03B24A
:104220000022114601A8009510F096F9606801A9D6
:104230000268926B516005F081FD60684FF48071F7
:1042400030301AF08DFD6068202100F598701AF06A
:1042500087FD6068A0F85061384623F007F90090A8
:1042600060680068436A13B12268009998471AF0A1
:104270006BFA00E007E000F05FF900F031F9754DEE
:104280006F6977B148E0A0F8506173A00090794B56
:104290004FF4997278A1022001F0BCF80AB0BDE891
:1042A000F08119F041FF18F031FE074600227F210E
:1042B0001FF0ADFA11F005FF0146002238461FF04D
:1042C00094FA12F068F90146002238461FF002FB0A
:1042D0000022032138461FF0F1FA0022032138465C
:1042E0001FF0DAFA0022032138461FF0DBFA002221
:1042F000032138461FF0DCFA0022032138461FF064
:10430000E3FA69A1384619F0F3FD00231A460621A5
:1043100038461BF081FB6F61286823F0A7F84FF443
:10432000967840450CD2206841F28831884231D9D4
:104330006868009908446860A868401CA86029E083
:1043400023F09AF8286060684FF47A71406800683A
:10435000B1FBF0F0696809B901216960A968F1B1A0
:104360004FF47A7251436A68B1FBF2F46E60AE604A
:10437000844200D90446286920442861E868401C2A
:10438000E86023F077F9C0F16403224647A138467C
:1043900019F03AFE2E4D08356C6814B137E004462A
:1043A000E4E719F0C1FE18F0B1FD044600227F21B8
:1043B0001FF02DFA11F085FE0146002220461FF065
:1043C00014FA12F0E8F80146002220461FF082FAA3
:1043D0000022032120461FF071FA0022032120460B
:1043E0001FF05AFA0022032120461FF05BFA002238
:1043F000032120461FF05CFA2BA1204619F078FD1E
:1044000000231A46042120461BF006FB6C60286836
:1044100023F02CF840457FF641AF23F02DF82860BB
:1044200002A81AF0D9FA04990298401A820A514255
:1044300000EB81206621B0FBF1F39DF821109DF87F
:104440002000CDE900011DA1204619F0DDFD25E782
:1044500074000020643800207468657265206973F8
:10446000206E6F2061637469766520736372656581
:104470006E000000A4DD02082E2E5C4D6964646CA1
:104480006577617265735C4C56474C5C4755495C77
:104490006C76676C5C7372635C636F72655C6C7680
:1044A0005F726566722E63003F000000257520462E
:1044B00050530A25752525204350550025752E2576
:1044C00075206B422075736564202825642025259E
:1044D000290A2564252520667261672E00000000E8
:1044E00070B50A4D002400BFC4EBC40655F8260081
:1044F00008B11AF055FA05EB86001C211AF030FCC1
:10450000641CE4B2042CEFD370BD0000D43A002048
:10451000084949680AE04A68824202D00A68824231
:1045200003D10A7E42F001020A7649690029F2D1DC
:104530007047000048000020704700000421014837
:1045400000F0E6BEEC3900201C21014800F0E0BE7E
:10455000043A00202DE9FF5F0446DDE90E0613B999
:10456000B0F5807F7ED0B6F900504FF0FF376D4236
:10457000454307EB25252DB22580B6F902C0CCF1C5
:10458000000C0CFB00FC07EB2C273FB26780B6F950
:1045900000C0A1EB0C0141434FF0020C0CEB2121B8
:1045A00009B2A180B6F90280A2EB080242430CEBEB
:1045B000222000B2E080002B7ED04FF00A0A93FB4D
:1045C000FAF5684200EB800003EB400705F10109B2
:1045D00028B223F0BBFD00900FFA89F023F0B6FD5E
:1045E00083465A3528B223F0B1FD804609F15A00BE
:1045F00000B223F0ABFD0146009AC7F10A0000FBB0
:1046000002F300FB08F00BFB073301FB070193FBF0
:10461000FAF291FBFAF04FEA601AB4F90010B4F91B
:1046200002000AFB01FCCDF80CC05511378805FBD0
:1046300010C207EBA2220FFA82F905FB01F2BB467A
:10464000029277880AFB002107EBA1210BB2B4F993
:104650000410BE460AFB01FC05FB10C20BEBA222B4
:1046600016B200E02FE005FB01F7CDE9007CB4F9BC
:104670000680DDF80CC00AFB007005FB18C1DDF8F0
:1046800004C0009F05FB18C5029A0AFB087C0AFBC0
:1046900008220BEBA1210EEBAC270EEBA02009B2F8
:1046A0000EEBA2220BEBA5250FFA87FC00B212B28B
:1046B0002DB24F46494500E00EE000DA0F46B54204
:1046C00016DAA84615E000202080491E6080A180EF
:1046D000521EE280BDE8FF9F32882A442280728801
:1046E0003A44628032881144A180718808444FE0C6
:1046F000B046474504DA4F46494506DA0F4604E01E
:10470000B54201DA2F4600E0374627804F4649453B
:1047100000DD0F46B54201DDA84600E0B046474542
:1047200003DD4D46494505DC01E0B54201DD294682
:1047300000E03146A1809A4201DA154600E01D46AC
:10474000844501DA614600E001468D4205DA9A426D
:1047500001DA114606E0194604E0844501DA6146B3
:1047600000E0014661809A4201DD114600E01946F1
:10477000844501DD654600E00546A94205DD9A4213
:1047800001DD104604E0184602E0844500DD604685
:10479000E0809FE72DE9FE4F0446D0F800B0B0F965
:1047A0000800E589081AB4F90A10511AD4E9093247
:1047B000B5F5807F38D0A589ADB3A66B70434511A0
:1047C0004E437011266BE16A06FB05F701FB10777B
:1047D000694306FB001003EBA72902EBA0208046EB
:1047E0000612B4F904004FEA2927B8424EDD002F23
:1047F0004CDBB4F90610B14248DD002E46DB94F8DC
:1048000034104A0745D58A0704F1140322D400FB6B
:10481000067045004FF0020A0BEB050152461846A0
:104820001AF048FA27E00DE0256BE66A05FB00F771
:1048300006FB1177464305FB016003EBA70902EB7A
:10484000A000CCE7A56B68434D4303EB601902EB76
:104850006510C4E700FB067000EB40054FF0030A4B
:104860000BEB0501022218461AF024FAE81C584402
:1048700010F8010CA07594F83400C0071FD04FF455
:10488000FC60ADF80000A18A814218D10020BDE88B
:10489000FE8F32B204F118002369CDE90102002530
:1048A00039B2AA468B4616F05FFD0090BDF80000B5
:1048B000A082DDE90102594616F0EEFCDAE7E07C61
:1048C00078B1A4F83C90A4F83E80A4F84070A4F815
:1048D0004260656484F848A02046BDE8FE4F00F0C1
:1048E00002B80120D3E72DE9F04F044690F83C10C0
:1048F000D0F8009090F83E0087B04FF0FF36702956
:1049000007DAB4F940203546012A00D50025803168
:104910000DE0902916DDB4F94020B4F904300125EA
:10492000521C9A4200DB0025A1F27F114942C9B214
:104930008846702809DAB4F94210012900D500260A
:10494000803010E00025FF21F2E790280DDDB4F95A
:104950004210B4F906200126491C914200DB0026D2
:10496000A0F27F104042C7B201E00026FF27606935
:104970000090A07D0590002082468346049094F824
:104980003400400744D594F84810606C022201FBC3
:104990000501494401A81AF08DF9B4F9040094F80E
:1049A000481002224843616C06FB0011494403A8E9
:1049B0001AF080F9B4F9041094F84800626C41438D
:1049C00006FB012200FB05901118022202A81AF032
:1049D00071F994F83400800761D594F84800616C4F
:1049E00000EB090200FB0513134413F8013C049388
:1049F000B4F90430434306FB031100FB05000A44ED
:104A0000014401EB090012F801AC10F8010C45E07B
:104A1000B4F84000B4F94220284401B204F118006F
:104A20008146236916F0A0FC0190B4F84200B4F965
:104A30004010304402B254F8103F484616F094FC3F
:104A40000390608E2368304402B2208E284401B265
:104A5000484616F089FC029094F82400103C800728
:104A60001DD5B4F9422034F8400F284401B248461D
:104A700016F012FC04906088B4F90010304402B2C1
:104A8000484616F009FC82466088304402B234F889
:104A90004009284401B2484616F0FEFB834694F8CC
:104AA000340042464546800735D50599049B01FBF5
:104AB00008F1C8F1FF0003FB00110AFB08F30BFB30
:104AC0000030C1F30721C0F3072001FB07F3C7F152
:104AD000FF0600FB06331B0AA375022907D802282C
:104AE00003D8002007B0BDE8F08F002702E00228BD
:104AF00000D8FF270598022800D800220498022831
:104B000000D8FF22BAF1020F00D80025BBF1020F36
:104B100003D8FF2501E0FF20A075EAB1FF2A04D0E9
:104B2000DDE9000111F0ACFC0090BDB1FF2D17D004
:104B3000DDE902102A4611F0A3FC049097B1FF2F83
:104B400005D001463A46009811F09AFC0090BDF855
:104B50000000A0820120C5E70198E5E70298ECE794
:104B60000398EAE7BDF81000F3E700002DE9F047ED
:104B70000446B0F908000A2700026062B4F90A008E
:104B80000002A062B4F90C1091FBF7F5684200EB4B
:104B9000800001EB4006684205F1010800B223F0F5
:104BA000D5FA8246E84300B223F0D0FA8146C5F137
:104BB0005A0000B223F0CAFA0546C8F15A0000B202
:104BC00023F0C4FAC6F10A0101FB0AF3024609FB0D
:104BD0000630694390FBF7F002FB061191FBF7F1F9
:104BE0004011E06248112063A07C16F06AFC94F842
:104BF000341060F3000184F83410A07C16F051FCEE
:104C000094F8341060F3410184F83410A07C042837
:104C100024D0052822D0062820D021F0040100BF8E
:104C200084F8341021682162A16921F0E00160F369
:104C30000401A08860F39421E08860F35F51A161D2
:104C4000E0894FF4001101EB5001B1FBF0F0A063DB
:104C5000FF20A075208AA082BDE8F08741F0040102
:104C6000DEE700002DE9F84315460E460746154CD1
:104C700022F002FC80462B4632463946204617F089
:104C8000D1F920B10020A062E06990B118E00EA037
:104C90000090184B7D2218A1022000F0BBFB2C21B4
:104CA00020461AF05DF84FF00040A0620020BDE8F9
:104CB000F883404622F0DAFBE06108B90120E061A8
:104CC0002046F4E7283A0020496D61676520647248
:104CD00061772063616E6E6F74206F70656E2074F3
:104CE000686520696D616765207265736F757263B1
:104CF000650000005AE002082E2E5C4D6964646C69
:104D00006577617265735C4C56474C5C4755495CEE
:104D10006C76676C5C7372635C647261775C6C76F2
:104D20005F696D675F63616368652E630000000003
:104D30000EB514210D4800F0EBFA17F0EFF840B172
:104D40000B4901600B4941600B4981600B49C1600F
:104D50000EBD0BA20EA112A08DE80700184B402239
:104D600018A1032000F056FBFEE70000103A0020D7
:104D70007DB50108A1BA0108F9BD010849B50108CE
:104D80004F7574206F66206D656D6F72790000003D
:104D90006465636F64657220213D204E554C4C0064
:104DA00041737365727465642061742065787072F4
:104DB000657373696F6E3A20257320282573290067
:104DC00083E002082E2E5C4D6964646C6577617225
:104DD00065735C4C56474C5C4755495C6C76676C18
:104DE0005C7372635C647261775C6C765F696D673B
:104DF0005F6465636F6465722E63000038B50D46AD
:104E000004461021284619F0ABFF206800780128DD
:104E100004D0022807D0042807D008E0208A288080
:104E2000608A688003E0E06800E00A20686020682B
:104E3000426822B101B02946BDE83040104704A0C5
:104E400000900B4BBE220BA1022000F0E3FA38BD0C
:104E5000696E6465765F726561645F636220697321
:104E6000206E6F7420726567697374657265640083
:104E70000A2103082E2E5C4D6964646C65776172AB
:104E800065735C4C56474C5C4755495C6C76676C67
:104E90005C7372635C68616C5C6C765F68616C5FAC
:104EA000696E6465762E6300FEB5866A0446BEB9F7
:104EB000A08A218A0844A082E08A618A0844E082AC
:104EC00020460BF0E8F9060079D020460DF0BEFD33
:104ED00000220921304615F0F3F9607880076ED47E
:104EE000208A10B9608A002869D00025ADF80450E6
:104EF000ADF8085094F83C0000F00F00032830464D
:104F000016D01CF065F8074630461BF01BFF034621
:104F10000C200090B4F912103A4630460AF036FDE3
:104F2000ADF8080030461BF05FFFC10712D017E054
:104F30001BF0E2FF074630461BF07EFF02460320CF
:104F40000090B4F910103B4630460AF01FFDADF852
:104F50000400E7E7BDF90410002901DDADF80450B5
:104F6000810705D4BDF90410002901DAADF8045019
:104F7000410705D4BDF90810002901DDADF808503E
:104F8000000705D4BDF90800002801DAADF8085083
:104F900002AA01A9204625F0E6FC0023BDF908205D
:104FA000BDF9041030461EF011F8A08ABDF80410B7
:104FB0000844A082E08ABDF808100844E082FEBDE3
:104FC0002DE9FC5F0446806A5FEA000B71D094F81B
:104FD0003C0000076DD017F0FDFB019000684021F8
:104FE000457E58461CF0A0FF4FF0000818B9A4F801
:104FF0001A80A4F8188058461BF0DCFF82465846F9
:105000001BF0DFFF064694F83C004FF0640900F007
:105010000F000C2802D003284CD09AE0A4F8188086
:1050200056B1B4F91A50002717F0D4FB0068407E3F
:10503000C0F16401484622E0B4F91A00C5F16401E8
:10504000484390FBF9F0608358461BF07BFE054611
:1050500058461BF0BDFF02460C200090B4F91A1010
:105060002B4658460AF092FC6083024600231EE05D
:105070007A1917B201FB05F292FBF0F215B2002D7E
:10508000F6D1ADF80070A4F81A806A4600212046D7
:1050900025F069FC41F6FF72BDF9003051425846D7
:1050A0000BF05EFABDF800100123084402B20021A3
:1050B0004CE09AE0A4F81A80BAF1000F0AD0B4F9D3
:1050C0001850002717F086FB00684946407EC0F163
:1050D000640022E0B4F91800C5F16401484390FB74
:1050E000F9F0208358461BF0A7FE054658461BF0F2
:1050F00003FF034603200090B4F918102A465846CF
:105100000AF044FC2083014600231EE07A1917B2FE
:1051100000FB05F292FBF1F215B2002DF6D1ADF8CD
:105120000070A4F8188000226946204625F01BFC78
:1051300041F6FF72BDF90030514258460BF088F934
:10514000BDF800100123084401B2002258461DF0AA
:105150003DFF208B002848D1608B002845D1C6B97F
:1051600058461BF035FF054658461BF0EBFD002D59
:1051700006DC00280DDD002D02DA01232A4604E0BA
:10518000002806DA0123404202B2002158461DF0F1
:105190001DFFBAF1000F19D158461BF04DFE054610
:1051A00058461BF0A9FE002D07DC00280EDD002D5F
:1051B00003DA01230022294605E0002806DA01234C
:1051C0000022404201B258461DF000FF0A21584615
:1051D000019A15F075F86078800706D414F83C0F32
:1051E00020F00F00207044F8148CBDE8FC9F0000F4
:1051F0007FB50E46040003D111F006FE040023D053
:105200000025FEB1ADF80050ADF8025011F014FECB
:10521000401EADF80400204611F052FF401EADF8CC
:1052200006006A46314602A8FEF724FE00280BD08D
:105230002068017C890708D5DDE90001C4E90C017B
:1052400001202AE0A0F850517FBD82690AB102A96D
:10525000904700260BE000BF04EBC601002202A825
:105260003031FEF72FFE0028EED1761CB6B2B4F82E
:105270005001B042F0D880B2202804D204EBC00024
:1052800002A9303004E0A4F8505104F1300069461E
:105290000FF0B9F8B4F85001401CA4F85001606850
:1052A0000028D1D022F0CCFA7FBD70B5054600F0C1
:1052B00012F804460CE02146284600F01EF8064687
:1052C0002146284600F071F8204619F069FB344663
:1052D000002CF0D170BD002800D04068704700B5A8
:1052E00003460022FFF7F7FF03E01846521C00F0C8
:1052F00004F80100F9D1104600BD0068091D4058AE
:105300007047006840587047002800D08068704798
:1053100000224260C91C21F00301826001607047D5
:1053200070B504460068083019F092F9050013D0F2
:1053300001460022204623F0DDFE29462046626811
:1053400023F0D2FE616819B12A46204623F0D2FE2E
:105350006560A06800B9A560284670BD70B50446B8
:105360000068083019F074F9050013D001460022D6
:10537000204623F0B9FE29462046A26823F0BAFE53
:10538000A16819B12A46204623F0AEFEA5606068E8
:1053900000B96560284670BD28B1416809B98068C8
:1053A00008B1002070470120704770B504000DD08F
:1053B000FFF791FF00228842204608D1FFF79DFFAA
:1053C0006060011E01D000221EE0A26070BDFFF7E8
:1053D0009BFF8842206808440AD10168A16029B176
:1053E0002046BDE87040002223F07EBE626070BDA2
:1053F00005682046FFF781FF0646024629462046FB
:1054000023F072FE2A4631462046BDE8704023F064
:1054100071BE00002DE9FC47984692460D460646AF
:10542000062834DA022E32DB0DF12C090846FAF791
:1054300010FF040006D0285D2F282AD05C2828D031
:10544000641EF8D122F018F807464FF47A71B0FBC9
:10545000F1F001FB1073B7FBF1F24046DFF8388042
:10546000D8F80010791ACDE9001008F1080050F8BA
:1054700026100AA0FEF7CEFB49460A98FEF7DAFB93
:10548000291952460CA0FEF7C5FBC8F80070BDE80C
:10549000FC87641CD6E70000E00100205B25735DFB
:1054A000092825642E253033642C202B25642909F6
:1054B0002025733A20000000200928696E202573FA
:1054C000206C696E6520232564290A0010B5044606
:1054D000006882680AB12146904720680068002869
:1054E00001D02060F5E710BD8068002801D0B0F938
:1054F000160070472DE9F047074690B0408C189E83
:1055000040F00400788490463A8499468A4632896D
:1055100038461CF071FB0546A7F8209032895146A9
:1055200038461CF069FB0446788CA54220F0040044
:10553000788403D12904B1EB044F68D0A7F8208008
:105540003289514638461CF057FB05468046A7F87D
:105550002090514638460CF085FA318900682A4679
:1055600020F0D8F83089602823D147F6FF794D45DF
:1055700001D04C451DD138461CF08DFC00EBD0709D
:10558000451038461CF087FC00EBD0704010C84531
:1055900006D1691C431C994200DA00E0194688468E
:1055A0004C4506D1691C421C914201DA6C1C00E09A
:1055B00014461F48FFF7B4FE05002BD02F60C5E945
:1055C00003843089A8806846C5F808A00EF0E2F987
:1055D0001848FF21CDE90050174802901748039062
:1055E00000200790CDE9080130880A9070889DF866
:1055F0003E1040420B90F0680690002060F30001DE
:105600008DF83E103069059068460EF037FA10B0FC
:10561000BDE8F0870AA20EA110A08DE80700174B85
:105620004FF4A57216A10320FFF7F4FEFEE7000079
:105630001C3A002041D302082DD5020889D4020863
:105640004F7574206F66206D656D6F727900000074
:10565000747220213D204E554C4C000041737365FF
:105660007274656420617420657870726573736903
:105670006F6E3A20257320282573290047DD020824
:105680002E2E5C4D6964646C6577617265735C4C49
:1056900056474C5C4755495C6C76676C5C7372632B
:1056A0005C636F72655C6C765F6F626A5F7374795E
:1056B0006C652E630000000014210148FFF728BE2E
:1056C0001C3A00202DE9FC5F002592468B460646D9
:1056D0002C46042743F60F0843F60E0901E100BFEC
:1056E000F06807EBC401405881017CD480B230EAF5
:1056F0000B0113D05FF0000130EA0A0010D0002047
:10570000814270D0F06801AA41F6100150F83400CF
:1057100000901FF07FFD002866D103E00121EBE738
:105720000120EDE701AA41F6110100981FF072FD7A
:10573000002873D101AA41F6120100981FF06AFDFA
:1057400000286BD101AA41F6130100981FF062FDF9
:10575000002863D101AA41F6150100981FF05AFDF7
:1057600000285BD101AA41F6140100981FF052FDF8
:10577000D0BB01AA41F2690100981FF04BFD98BB14
:1057800001AA43F20C0100981FF044FD60BB01AA7E
:1057900043F20D0100981FF03DFD28BB01AA41F224
:1057A000010100981FF036FDF0B901AA41F2040191
:1057B00000981FF02FFDB8B901AA41F2020100982C
:1057C0001FF028FD80B901AA41F2030100981FF0E3
:1057D00021FD48B901AA41F2050100981FF01AFD08
:1057E00010B901AA01E07BE018E041F2060100983F
:1057F0001FF010FD90B901AA41F2320100981FF08C
:1058000009FD58B901AA414600981FF003FD28B9C7
:1058100001AA494600981FF0FDFC10B10320BDE825
:10582000FC9F01AA40F60A0100981FF0F3FCE8BBB8
:1058300001AA40F60B0100981FF0ECFCB0BB01AAD6
:10584000414600981FF0E6FC80BB01AA494600983B
:105850001FF0E0FC50BB01AA40F63C0100981FF08D
:10586000D9FC18BB01AA40F63D0100981FF0D2FCFC
:10587000E0B901AA40F63A0100981FF0CBFCA8B9A4
:1058800001AA4FF4046100981FF0C4FC70B901AA8A
:1058900040F6450100981FF0BDFC38B901AA40F65A
:1058A000410100981FF0B6FC00B900E014E001AA25
:1058B00040F6420100981FF0ADFC68B901AA40F61D
:1058C000430100981FF0A6FC30B901AA40F6490137
:1058D00000981FF09FFC08B1022501E005B90125E1
:1058E000641C708CC0F3C500A0423FF6F9AE284698
:1058F00095E70000014840687047000074000020F0
:1059000010B5044824F0E4F9BDE81040024823F043
:105910005BBA0000643800207C000020C0F3041053
:10592000072800D90720704710B518210348FFF752
:10593000EFFC03490120087010BD0000C8390020A9
:10594000080200202DE9F04190460C46050015D0D4
:10595000FAF77FFC0A4F06462146BA682846904768
:105960000446BA682819414690470146701A03E078
:105970006218AA5C2A55641CA042F9D2BDE8F081E5
:105980001C0200202DE9F041094D90460E466A6840
:105990001C46074619469047306020B120686A6867
:1059A000384400219047C8F80000BDE8F0810000AD
:1059B0001C0200202DE9F04F87B08A46DDE910581F
:1059C0001F4693460446002105B129805CB120782A
:1059D000002809D0BAF1000F05D0002618F0060FF4
:1059E00015D0002004E0002007B0BDE8F08F401C77
:1059F000215C0A2904D00D2902D00029F7D100E04A
:105A0000401C002DF0D04FF0FF312980ECE75FEA19
:105A1000887001D541F6FF77894608468DF8141045
:105A2000049127E00498CDF8189068B34FF0000C6B
:105A300005AA06ABCDF80CC0CDF80080CDE9013247
:105A400020443B465A46514622F0AAFB06997A1A50
:105A5000314417B20EB288B1049901440491207800
:105A60000A280BD00D2809D0605C0A280FD00D2819
:105A70000DD00846205C08B1002FD3DC049848B153
:105A800005B12E800498AFE74FF0010CD0E7481C19
:105A90000490F3E7064A04A9204652689047002D77
:105AA000F0D001460022504614F0ECFD06B2E8E7C3
:105AB0001C0200202DE9F0411746884606001ED042
:105AC000002F1CD0FAF7C5FB04463846FAF7C1FB95
:105AD000050014D00B4A2C4441469268304690474A
