:020000040800F2
:10000000B0B40020E10100086B320008832700082B
:100010006932000809050008AD3900080000000039
:10002000000000000000000000000000490100087E
:1000300019050008000000008D0100088933000840
:10004000FB010008FB010008FB010008FB010008A0
:10005000FB010008FB010008FB010008FB01000890
:10006000FB010008FB010008FB010008FB01000880
:10007000FB0100080D050008FB010008FB0100085A
:10008000FB010008FB010008FB010008FB01000860
:10009000FB010008FB010008FB010008FB01000850
:1000A000FB010008FB010008FB010008FB01000840
:1000B000FB01000811340008FB010008FB010008E7
:1000C000FB010008FB010008FB010008FB01000820
:1000D000FB010008FB010008FB010008A139000832
:1000E000FB010008FB010008FB010008FB01000800
:1000F000FB010008FB010008FB010008FB010008F0
:10010000FB010008FB010008FB010008FB010008DF
:10011000FB010008FB010008FB0100081D3400087A
:10012000FB010008FB010008FB010008FB010008BF
:10013000DFF810D000F0D6F9004800474944000825
:10014000AFF30080B0B40020224B19680868B0E813
:10015000F00F80F30988BFF36F8F4FF0000080F33A
:1001600011884EF00D0E7047000000000648006830
:10017000006880F3088862B661B6BFF34F8FBFF3A3
:100180006F8F00DF00BF00BF08ED00E0EFF30980D4
:10019000BFF36F8F0F4B1A6820E9F00F106008B59E
:1001A0004FF0500080F31188BFF34F8FBFF36F8F74
:1001B00005F01AF84FF0000080F31188BDE8084000
:1001C00019680868B0E8F00F80F30988BFF36F8FF3
:1001D000704700BF20000020EFF30580704700004B
:1001E0000648804706480047FEE7FEE7FEE7FEE7D1
:1001F000FEE7FEE7FEE7FEE7FEE7FEE70D34000858
:100200003101000840EA01039B0703D009E008C957
:10021000121F08C0042AFAD203E011F8013B00F8CB
:10022000013B521EF9D27047D2B201E000F8012B17
:10023000491EFBD270470022F6E710B513460A4666
:1002400004461946FFF7F0FF204610BDF0B480EADF
:100250000102D40F4200B2EB410F02D2024608461F
:1002600011464A0042D0C30DDDB2C1F3C752AD1AE8
:10027000202D35DAC1F3160141F4000204B15242D7
:10028000C5F1200602FA06F12A411044B3EBD05F13
:1002900023D0C4B1012DA0EBC35009DCF0BC4FF05A
:1002A000004202EAC352DBB200F5000000F0EBB8F6
:1002B000400000F1807000EBC350A0F1807040EA74
:1002C000D170490009E0490841EAC071A0EBC35070
:1002D00000F50000400800EBC350F0BC00F0CAB8C5
:1002E0006142012202EB4101001BF6E7F0BC7047BE
:1002F00081F00041AAE780F00040A7E780EA010210
:1003000010B502F00043400022D04A001FD0010E79
:1003100001EB1261C0F35600C2F3560240F4000034
:1003200042F40002A0FB022000047F39140400D034
:10033000401C50EA124001D44000491EC2B20C06D3
:1003400004EBD010401C4008802A02D003E00020BB
:1003500010BD20F00100002900DA0020184310BD74
:1003600030B480EA010202F0004530F0004221F092
:10037000004013D090B1C30DD40DC2F31601C0F3E9
:100380001600E41A41F4000140F400027D34914269
:1003900001D3641C00E04900002C02DA30BC0020CC
:1003A00070474FF400000023914201D3891A0343A0
:1003B00040084FEA4101F7D151B1914202D14FF0CB
:1003C000004105E002D24FF0010101E06FF00101B0
:1003D00003EBC450284430BC00F04CB8C10F80EA95
:1003E000E0700844CA079623002100F04CB800F0E2
:1003F000004220F00040C10DC0F3160040F40000A0
:100400007F2901DA00207047962903DCC1F19601AB
:10041000C84001E096398840002AF4D04042704735
:1004200020F00040C10DC0F3160040F400007F2909
:1004300001DA00207047962903DCC1F19601C8401B
:10044000704796398840704730B50B46014600200A
:100450002022012409E021FA02F59D4205D303FA86
:1004600002F5491B04FA02F52844151EA2F1010207
:10047000F1DC30BD0029A8BF7047401C490008BF0F
:1004800020F00100704710B4B0FA80FC00FA0CF0C4
:1004900050EA010404BF10BC704749B1CCF12004FC
:1004A00021FA04F411FA0CF118BF01212143084389
:1004B000A3EB0C01CB1D4FEA00614FEA102042BFB5
:1004C000002010BC704700EBC35010440029A4BFAB
:1004D00010BC7047401C490008BF20F0010010BC50
:1004E00070470000064C074D06E0E06840F001034D
:1004F00094E8070098471034AC42F6D3FFF71CFE8F
:100500004C7400086C740008FEE70000014800F01D
:100510008BBA0000800200207047000072B64FF4D2
:100520007A7403A003F05EFE204600F0DFFBF8E7DC
:10053000696E4572726F725F48616E646C657200BD
:100540002DE9F041184F14460D46064600221021B1
:10055000384600F0CCFD0A2004F048FC0321134883
:1005600002F0F0FEC5F30741104802F0EBFEC5F3C0
:1005700007210E4802F0E6FEE9B20C4802F0E2FE66
:1005800005E05521094802F0DDFE06F8010B641E66
:10059000A4B2F6D201221021384600F0A8FDBDE831
:1005A000F0410A2004F022BC0008014008010020AC
:1005B0002DE9F04707460E4611F0FF00C0F100019B
:1005C000CDB24FEA122402F0FF094FF4807A13D023
:1005D000F0B24042C0B206EB00080CB3501B80B230
:1005E000040A00F0FF092A463146384600F03EF87A
:1005F0003D44464657462AE06CB15546641EE4B277
:100600000CD32A463146384600F030F806F580769D
:1006100007F58077F2E73146384621E04A46FAE7A7
:10062000A945F8D9A9EB0500C4B22A463146384697
:1006300000F01CF841467819224611E03A4631464E
:10064000284600F013F805F5807506F58076641EDF
:10065000E4B2F3D2B9F1000006D002463146284692
:10066000BDE8F04700F002B8BDE8F0872DE9F041A1
:1006700014460D46064600F0FFF8194F00221021DF
:10068000384600F034FD0A2004F0B0FB0221154882
:1006900002F058FEC5F30741124802F053FEC5F3BD
:1006A0000721104802F04EFEE9B20E4802F04AFE61
:1006B000B4F5807F05D9FF2431780A4802F042FE64
:1006C000761C641EA4B2F7D201221021384600F035
:1006D0000EFD0A2004F08AFBBDE8F04100F036B8B8
:1006E000000801400801002070B5044600F0C4F87D
:1006F00000F02CF8134D00221021284600F0F7FCE2
:100700000A2004F073FB20210F4802F01BFEC4F303
:1007100007410D4802F016FEC4F307210A4802F013
:1007200011FEE1B2084802F00DFE01221021284618
:1007300000F0DDFC0A2004F059FBBDE8704000F039
:1007400005B80000000801400801002010B50E4C5B
:1007500000221021204600F0CAFC0A2004F046FBCB
:1007600005210A4802F0EEFD5521084802F0EAFD95
:10077000C007F9D101221021204600F0B8FCBDE8E5
:1007800010400A2004F032BB00080140080100209C
:1007900030B5B3F5804F05D06FF0704140F82210AE
:1007A000002030BD8C690B688D6823434C688989B3
:1007B000240144EA0524234343EA014150F822304E
:1007C000014C23401943E9E70000F0CF10B50A6857
:1007D00050F8223023F0010340F822308C68082CB6
:1007E00023D000234A682243CC681C430B69224370
:1007F0001A434B690E4C1A43CB691A430B6A1A43CE
:100800004B6A1A438B6A1A43CB6A1A430B6B1A431F
:100810008B6913434A6B09681A4350F82130A3438C
:10082000134340F82130002010BD4023DAE70000D8
:100830007FFF0F0030B5D1E9003443EA04138C6820
:100840008D89240244EA054423430C8A094D00EBB8
:10085000820005EB045423430C7D6D0105EB046419
:10086000896923430B43416801F040410B434360D6
:10087000002030BD0000F0FF10B50B4C002210210D
:10088000204600F034FC0A2004F0B0FA06210748A4
:1008900002F058FD01221021204600F028FCBDE89E
:1008A00010400A2004F0A2BA00080140080100200C
:1008B00010B590F821100022022905D0042181638F
:1008C00080F82020012010BD01680B6823F00E0382
:1008D0000B6001680B6823F001030B6090F8403057
:1008E000C46B012101FA03F3636080F8211080F8E2
:1008F0002020104610BD00002DE9F05F90F8211077
:100900000024022903D004218163012485E00168C9
:100910000A6822F00E020A6001680A6822F00102E9
:100920000A603F4E3E4FB215DFF8F4C0DFF8F0909A
:10093000DFF8ECA0DFF8E8B0DFF8E4E00168783F2A
:1009400013011502ACF1640CA9F15009AAF13C0A9B
:10095000ABF1280BAEF1140E4FF48018B14227D939
:10096000B9420ED0614512D049451DD0514518D02D
:10097000594518D0714501D1424615E0294EB14282
:1009800001D1012210E0274E1436B14201D11022CC
:100990000AE0244E2836B14206D0224A3C32914227
:1009A00001D11A4600E02A461E49091F0A602BE0C1
:1009B000B94213D0614517D0494522D051451DD0C9
:1009C00059451DD0714501D142461AE0B14202D1CC
:1009D0004FF0807215E0134EB14201D1012210E0B8
:1009E000104E1436B14201D110220AE00D4E2836C5
:1009F000B14206D00B4A3C32914201D11A4600E086
:100A00002A46074980394A60012180F821100021D7
:100A100080F82010416B01B188472046BDE8F09F67
:100A200080000240080402402DE9F05FC16B0A68B3
:100A300001680B68046C4FF0040808FA04F8844D50
:100A4000844E854FDFF814C2DFF81492DFF814A249
:100A5000DFF814B2DFF814E218EA020F65D05FEA9B
:100A6000437862D50A68920603D40A6822F0040229
:100A70000A60DFF8F0814FF48062016808F1140821
:100A800013011402414524D9A9420DD0B1420FD01F
:100A9000B9421AD0614515D0494515D0514501D10B
:100AA000120312E0594501D104220EE0714501D133
:100AB00040220AE06D4D1435A94206D06B4A283217
:100AC000914201D11A4600E022466749091F0A6097
:100AD00029E0A94213D0B14215D0B94220D06145D6
:100AE0001BD049451BD0514502D14FF4800217E07D
:100AF000414502D14FF0806212E0594501D10422F4
:100B00000EE0714501D140220AE0584D1435A9424A
:100B100006D0564A2832914201D11A4600E02246B8
:100B20004B4908394A60C16A71E04FF0020808FA7F
:100B300004F818EA020F70D05FEA83786DD50A686E
:100B4000920606D40A6822F00A020A60012180F89F
:100B50002110DFF810814FF40072016808F11408C9
:100B600013011402414524D9A9420DD0B1420FD03E
:100B7000B9421AD0614515D0494515D0514501D12A
:100B8000120312E0594501D102220EE0714501D154
:100B900020220AE0354D1435A94206D0334A2832C6
:100BA000914201D11A4600E022462F49091F0A60EE
:100BB00029E0A94213D0B14215D0B94220D06145F5
:100BC0001BD049451BD0514502D14FF4001217E00C
:100BD000414502D14FF0007212E0594501D1022285
:100BE0000EE0714501D120220AE0204D1435A942C2
:100BF00006D01E4A2832914201D11A4600E0224610
:100C0000134908394A60002180F82010816A0029C0
:100C10001CD0BDE8F05F0847FFE70825A540154256
:100C200014D01A0712D50A6822F00E020A6090F852
:100C30004020C36B012101FA02F25A60816380F8FF
:100C40002110002180F82010016BE0E7BDE8F09F43
:100C5000080002401C0002403000024044000240F4
:100C6000580002406C000240080402401C0402408C
:100C700030B560B11A4B026814219A4209D2194B5F
:100C80001344B3FBF1F18900016417490AE0012024
:100C900030BD134B5B421344B3FBF1F18900016497
:100CA0000F490839C163022180F82110136843F607
:100CB000F0718B43F0E901142143D0E902452C4344
:100CC0002143046921434469214384692143194331
:100CD000116000214163012242770177084630BD4F
:100CE00008040240F8FFFDBF0000024070B5044652
:100CF00000F002FA0546601C02D004480078044463
:100D000000F0FAF9401BA042FAD370BD1000002099
:100D1000F0B585B0002000900190029003901E482D
:100D20000168002936D11D4C01270760606940F435
:100D3000807060616069022500F4807004904FF655
:100D40008470CDE90005032669460396144800F037
:100D5000CDF8CDE90075134F69460396384600F08B
:100D6000C5F84CF23370CDE90005694603960E488C
:100D700000F0BCF8A014CDE90005694603960B48C5
:100D800000F0B4F80121384600F012F8A06920F014
:100D90008000A06105B0F0BD0800002000100240F6
:100DA00000180140001C01400014014000200140D7
:100DB0002DE9F0430023454F0F2581E001229A40A1
:100DC0000A407BD023F00304E619D6F808809C077C
:100DD0004FEA147C05FA0CF909EA0804DFF8F08000
:100DE000404502D14FF0000824E0DFF8E88040459C
:100DF00002D14FF001081DE0DFF8DC80404502D150
:100E00004FF0020816E0DFF8D480404502D14FF0E1
:100E100003080FE0DFF8C880404502D14FF0040816
:100E200008E0DFF8C080404502D14FF0050801E03E
:100E30004FF0060808FA0CF8A04522D12A4CD4F845
:100E400000C02CEA020CC4F800C0241DD4F800C075
:100E50002CEA020CC4F800C0234C0C34D4F800C0B7
:100E60002CEA020CC4F800C0241FD4F800C02CEAFD
:100E7000020CC4F800C0D6F808C02CEA090CC6F869
:100E800008C0FF2A01D8064601E000F104064FEA37
:100E9000830401D9A4F12004D6F800C005FA04F8AF
:100EA0002CEA080C4FF0040808FA04F84CEA080C85
:100EB000C6F800C0C46824EA0204C46003F1010358
:100EC00031FA03F27FF47AAFBDE8F083000001400D
:100ED00000080140000C01400010014000140140D6
:100EE00000180140001C0140000401402DE9F84FAA
:100EF000DFF8C8910024A9F1040B23460F2709F15C
:100F0000040AABF1040ED1E00125A54006EA050272
:100F1000AA4276D1DFF8A8C14E68A6EB0C08664558
:100F20002BD00DDC032E34D005DC36B3012E19D0C6
:100F3000022E2FD11BE0112E16D0122E2AD119E02D
:100F4000B8F5881F19D006DCB8F5803F15D0B8F584
:100F5000801F1FD111E0B8F5001F0ED0B8F5041F97
:100F600018D10AE0CB6815E0CB681B1D12E0CB68F6
:100F700008330FE0CB680C330CE08B682BB1012BEE
:100F80004FF0080303D0456104E0042302E005614B
:100F900000E00023FF2A01D8064601E000F1040624
:100FA0004FEA840501D9A5F12005D6F8008007FA9B
:100FB00005FC28EA0C0803FA05F548EA0508C6F816
:100FC00000804D68ED0070D53E4DAE6946F00106DB
:100FD000AE61AD6924F0030605F0010500953A4DB8
:100FE00006EB050CDCF80850A607360F07FA06F8E2
:100FF00025EA0805DFF8D480404503D14FF000080A
:1010000025E052E0DFF8C880404502D14FF00108EA
:101010001DE0DFF8C080404502D14FF0020816E025
:10102000DFF8B480404502D14FF003080FE0DFF84D
:10103000AC80404502D14FF0040808E0DFF8A08002
:10104000404502D14FF0050801E04FF0060808FACC
:1010500006F848EA0508CCF808804D68D9F8006021
:10106000ED024D4601D5164300E096432E604D68D3
:10107000DAF80060AD02554601D5164300E096430C
:101080002E604D68DBF80060AD035D4601D5164368
:1010900000E096432E604D68DEF80060ED03754673
:1010A00001D5164300E096432E60641C0A6816467C
:1010B000E2407FF429AFBDE8F88F0000080401404A
:1010C0000000111000100240000001400008014023
:1010D000000C0140001001400014014000180140C4
:1010E000001C01408068084000D0012070470AB110
:1010F000016170470904FBE7014880687047000000
:101100001000002002488168027811448160704715
:1011100010000020074810B5016841F0100101607F
:10112000032000F0A7F80F2000F006F800F050F8B8
:10113000002010BD0020024030B505461F4887B092
:10114000C16941F02001C161C06906A900F0200019
:10115000009001A800F036F90498B0B100F052F9FF
:1011600040001749174AB0FBF1F11748491E0260C9
:10117000416040F2E7320021C0E9032181608161D2
:1011800000F022FD040003D015E000F03BF9E8E791
:101190000D4800F0A1FD04000DD1372000F03CF80F
:1011A000102D07D200222946372000F043F80748C7
:1011B000056000E0012407B0204630BD0010024069
:1011C00040420F0000140040C40200201400002020
:1011D0000F4808B5816941F001018161816901F021
:1011E00001010091C16941F08051C161C0690022D3
:1011F00000F0805000900F21901E00F01BF8054871
:10120000416821F0E06141F00071416008BD0000DB
:101210000010024000000140002809DB00F01F021E
:10122000012191404009800000F1E020C0F8001148
:1012300070470000F0B40E4B1B680C46C3F302234A
:10124000C3F10705042D00D90425191D072901D272
:10125000002300E0DB1E012606FA05F1491E2140AD
:1012600099409E40761E16403143F0BC02F0DEBF2E
:101270000CED00E0064900F0070208684FF6FF0396
:10128000184040EA0220034A1043086070470000FB
:101290000CED00E00000FA052DE9F0470F460500CF
:1012A00061D0434E306800F00700B84209D2306880
:1012B00020F0070038433060306800F00700B84283
:1012C00051D128683B4C810712D5400703D560688F
:1012D00040F4E06060602878000703D5606840F45F
:1012E000605060606068A96820F0F00008436060AA
:1012F0002878C00728D06868012810D02168022803
:1013000010D0890700292EDA616821F0030101431A
:101310006160FFF7F1FE804641F288390DE02168F7
:101320008903EFE78901EDE7FFF7E6FEA0EB08018F
:10133000494502D90320BDE8F0876068696800F07C
:101340000C00B0EB810FEFD1306800F00700B8421D
:101350000BD9306820F0070038433060306800F067
:101360000700B84201D00120E5E72878400705D5FD
:101370006068E96820F4E06008436060287800074E
:1013800006D56068296920F4605040EAC1006060B9
:1013900000F058F86168084AC1F30311515CC84075
:1013A0000649086006480068FFF7C6FE0020C2E74D
:1013B0000020024000100240665C00081C00002073
:1013C000140000200F2202600C4A536803F003034C
:1013D0004360536803F0F0038360536803F4E063F1
:1013E000C36052684FF4E06303EAD202026104482A
:1013F000006800F00700086070470000001002401D
:10140000002002400448054900684968044AC1F3C5
:101410000221515CC84070471C00002000100240AF
:10142000765C00080448054900684968044AC1F32D
:10143000C221515CC84070471C00002000100240CF
:10144000765C00080E4A51680E4801F00C03042B2C
:1014500011D0082B0FD10C48C1F38343C903C05CE2
:101460000AD55168084AC1F34041921E515C054AB1
:101470005043B0FBF1F07047044948437047000007
:101480000010024000127A00565C000800093D007E
:101490002DE9F84F040070D02078C04DC00749D026
:1014A0006868C0F38100012807D06868C0F3810034
:1014B000022809D16868C00306D52868800339D599
:1014C00060680028E7D035E06068B0F5803F0BD059
:1014D00010B1B0F5A02F11D0286820F4803028601A
:1014E000286820F4802002E0286840F480302860DA
:1014F000606890B1FFF700FE06460AE0286840F4F5
:1015000080202860F0E700BFFFF7F6FD801B64280D
:1015100073D828688003F7D50CE0FFF7EDFD064689
:1015200005E000BFFFF7E8FD801B6428F0D82868BD
:101530008003F7D420789A4E80074FF001094FF0CE
:10154000000839D5686810F00C0F07D06868C0F340
:101550008100022809D16868C00306D42868800782
:1015600014D52069012808D110E02069B0B1C6F86F
:101570000090FFF7C1FD074605E00AE1FFF7BCFD5B
:10158000C01B0228C4D828688007F7D5286861697D
:1015900020F0F80040EAC10028600DE0C6F80080A5
:1015A000FFF7AAFD074604E0FFF7A6FDC01B0228CF
:1015B00023D828688007F7D4207800072CD57948ED
:1015C000A169D9B1C0F80090FFF796FD074604E085
:1015D000FFF792FDC01B02280FD8686A8007F7D575
:1015E00071484FF4FA510068B0FBF1F0009000BF71
:1015F0000098411E0091FAD20EE080E0C0F8008011
:10160000FFF77AFD074604E0FFF776FDC01B0228CE
:1016100075D8686A8007F7D42078400760D5E869F4
:101620000027C00008D4E86940F08050E861E8690C
:10163000012700F0805000905C480168C90513D470
:101640000168834641F480710160FFF755FD8246D1
:1016500006E000BFFFF750FDA0EB0A0064284ED85B
:10166000DBF80000C005F5D5E06801280AD008B114
:10167000052813D0286A20F001002862286A20F08B
:10168000040002E0286A40F001002862E06841F2AC
:10169000883B98B1FFF730FD82460BE0286A40F0A6
:1016A00004002862EEE700BFFFF726FDA0EB0A0169
:1016B00059455AD8286A8007F6D50CE0FFF71CFD7B
:1016C000824605E0FFF718FDA0EB0A0159454CD80A
:1016D000286A8007F6D41FB1E86920F08050E861DD
:1016E000E06988B36968C1F38101022944D0022806
:1016F000C6F8608004D0FFF7FFFC044638E034E011
:10170000FFF7FAFC074604E0FFF7F6FCC01B0228CF
:101710002BD828688001F7D4206AB0F5803F05D126
:101720006868A16820F4003008436860D4E90801C3
:101730000843696821F4741108436860C6F8609032
:10174000FFF7DAFC044606E025E000BFFFF7D4FC13
:10175000001B022809D828688001F7D51BE000BFCC
:10176000FFF7CAFC001B022802D90320BDE8F88F4E
:1017700028688001F4D40EE00128F7D06868226A56
:1017800000F48031914204D1616A00F47010884203
:1017900001D00120EAE70020E8E700000010024045
:1017A00000004242800442421C00002000700040C1
:1017B00070B5040009D0606A002540B125616561FB
:1017C000A56294F8510040B10CE0012070BD606842
:1017D000B0F5827FF4D0E561F2E784F850502046FE
:1017E00000F040F8022084F851002068016821F0E0
:1017F00040010160A088218900F4827001F4044155
:101800000843A18901F400610843217C01F0020131
:101810000843217D01F001010843218B01F400718F
:101820000843217F01F03801084394F8201001F0AB
:1018300080010843218D01F40051084321680860AC
:10184000A069042101EA1040216848602068C1694C
:1018500021F40061C1616565012084F85100002018
:1018600070BD0000F0B585B000250095019502958A
:10187000039500681B49884232D11B4CA06940F493
:101880008050A061A06900F480500490A06940F0ED
:101890000400A061A069154F00F004000490A0208E
:1018A0000090022001260190694603963846FFF712
:1018B0001DFB4020CDE90005694638460295FFF73B
:1018C00015FBA06940F00400A061A069694600F022
:1018D000040004901020CDE900063846FFF706FB0F
:1018E00005B0F0BD0030014000100240000801408A
:1018F0002DE9FF4F81B0044690F8500000260E9F5E
:101900001D4693464FF0010901280FD04FF0010A00
:1019100084F850A0FFF7F0FB804694F8510061680E
:1019200001280DD0B1F5827F08D103E0022005B077
:10193000BDE8F08FA16809B9042801D00226C9E0EA
:101940000298002865D0BBF1000FFBD0002DF9D024
:1019500094F85100042802D0052084F8510000209A
:101960006065C4F838B0E587A58702992163E586EC
:10197000A5862064606420680168490603D4016874
:1019800041F040010160E068B0F5006F606803D08D
:10199000F0B3012D47D081E008B1012D3CD1206B7F
:1019A00021680088C860206B801C2063E08E401E88
:1019B000E08631E02068816889070FD5E18E69B142
:1019C000B9F1010F0AD1216B0988C160206B801C1D
:1019D0002063E08E401EE0864FF000092068816899
:1019E000C9070CD0E18F51B1C068A16B0880A06B12
:1019F000801CA063E08F401EE0874FF00109FFF7D5
:101A00007BFBA0EB0800B84206D3781C04D001E0B1
:101A100009E05BE003265BE0E08E0028CAD1E08F9E
:101A20000028C7D140E0206B216800780873206B44
:101A3000401C2063E08E401EE0862FE02068816815
:101A400089070FD5E18E69B1B9F1010F0AD1216B78
:101A500009780173206B401C2063E08E401EE086F5
:101A60004FF0000920688168C9070CD0E18F51B19F
:101A7000C068A16B0870A06B401CA063E08F401E83
:101A8000E0874FF00109FFF737FBA0EB0800B842F1
:101A900002D3781C02D0BAE7002FB8D0E08E00281D
:101AA000CCD1E08F0028C9D142463946204601F00A
:101AB000DDFB18B10126202060650BE0A06818B995
:101AC0002068C16880680090606D08B1012601E05F
:101AD00084F851A0002084F85000304627E770B504
:101AE00015460E46040007D0A069B0F5807F03D0EC
:101AF00094F8410010B107E0012070BD002084F887
:101B00004000204600F01DF804F108012068FEF7AF
:101B10005DFE3146A2682068FEF78CFED4E9010222
:101B20002946236BFEF734FEA168206850F8212077
:101B300042F0010240F82120012084F841000020F9
:101B400070BDFFF7E5B870477047000070B590F8BA
:101B50003C20012A2CD0012480F83C40022280F84D
:101B60003D2003685A689D6822F070060A68324377
:101B70005A60104B02689A420ED00F4B9A420BD01B
:101B8000B2F1804F08D00D4B9A4205D00C4B9A42CF
:101B900002D00C4B9A4204D1496825F080031943C6
:101BA000916080F83D40002180F83C10084670BDEF
:101BB000022070BD002C01400034014000040040B0
:101BC00000080040000C004010B5040003D094F859
:101BD0003D0010B107E0012010BD002084F83C005A
:101BE000204600F01FF8022084F83D00211D2068E7
:101BF00001F01AFC012084F8460084F83E0084F8C5
:101C00003F0084F8400084F8410084F8420084F8E2
:101C1000430084F8440084F8450084F83D00002027
:101C200010BD000008B501681048B1F1804F14D014
:101C30000F4A914219D1C16941F00201C161C069E5
:101C4000002200F00200009005211D20FFF7F2FAAB
:101C5000BDE808401D20FFF7DFBAC16941F001016E
:101C6000C161C06900F00100009008BD0010024091
:101C70000004004090F83D10012901D00120704778
:101C8000022180F83D1000680E4988420ED00E49AE
:101C900088420BD0B0F1804F08D00C49884205D063
:101CA0000B49884202D00B49884204D1816801F077
:101CB0000701062903D0016841F0010101600020FD
:101CC00070470000002C0140003401400004004037
:101CD00000080040000C004090F83D10012901D0A0
:101CE00001207047022180F83D100168CA6842F067
:101CF0000102CA6000680E4988420ED00D49884230
:101D00000BD0B0F1804F08D00B49884205D00B4969
:101D1000884202D00A49884204D1816801F0070153
:101D2000062903D0016841F00101016000207047DD
:101D3000002C014000340140000400400008004035
:101D4000000C004001680A6A41F211131A4207D1DF
:101D50000A6A9B101A4203D10A6822F001020A6043
:101D6000012180F83D100020704770B5044690F8BE
:101D70003C000025012817D0012684F83C60022091
:101D800084F83D002068826822F0770222F47F42C6
:101D900082600868502838D00DDC20284FD005DC40
:101DA00090B3102811D14AE0022070BD302846D0EF
:101DB00040280AD13BE060282FD070280DD0B0F524
:101DC000805F03D0B0F5005F12D0012584F83D603C
:101DD000002084F83C00284670BDCB68D1E9012181
:101DE000206801F074FB2068816841F0770109E008
:101DF000CB68D1E90121206801F069FB2068816886
:101E000041F480418160E1E719E0CA6849682068CF
:101E100001F032FC5021206806E0CA684968206859
:101E200001F03BFC6021206801F05BFBCEE7CA6853
:101E30004968206801F020FC40212068F4E722680E
:101E400001461046F0E7704770B504460068016926
:101E50004FF00005C943890715D4C168C9438907F4
:101E600011D4E91E01610120207720688069800774
:101E7000204602D0FFF7E7FF04E000F0C9F8204653
:101E800000F05CF9257720680169C943490717D438
:101E9000C168C943490713D46FF0040101610220EE
:101EA00020772068806910F4407F204602D0FFF739
:101EB000CAFF04E000F0ACF8204600F03FF92577B7
:101EC00020680169C943090716D4C168C9430907D5
:101ED00012D46FF008010161042020772068C069E6
:101EE0008007204602D0FFF7AEFF04E000F090F834
:101EF000204600F023F9257720680169C943C90607
:101F000017D4C168C943C90613D46FF01001016129
:101F1000082020772068C06910F4407F204602D056
:101F2000FFF791FF04E000F073F8204600F006F997
:101F3000257720680169C943C90708D1C168C94329
:101F4000C90704D1891E0161204600F0D5F9206837
:101F50000169C943090609D4C168C943090605D402
:101F60006FF0800101612046FFF7EDFD20680169F7
:101F7000C943490609D4C168C943490605D46FF06D
:101F800040010161204600F0C1F920680169C943A0
:101F900089060BD4C168C943890607D46FF02001B4
:101FA00001612046BDE87040FFF7CEBD70BD000066
:101FB00000B585B000210091019102910391006864
:101FC0000F4988421AD10F48816941F0100181619F
:101FD0008069694600F010000490402000900220C3
:101FE000019003900848FEF781FF0848416821F4FA
:101FF000406141F0E06141F44061416005B000BDE5
:1020000000040040001002400010014000000140A8
:10201000704770B5044690F83C0000260D46012834
:102020000FD0012084F83C006AB1042A1DD0082A90
:102030002FD00C2A3FD00126002084F83C003046E7
:1020400070BD022070BD206801F054FA20688169DB
:1020500041F0080181612068816921F004018161FA
:10206000206881692A69114311E0206801F072FA41
:102070002068816941F4006181612068816921F4EF
:1020800080618161206881692A6941EA0221816158
:10209000D2E7206801F094FA2068C16941F0080194
:1020A000C1612068C16921F00401C1612068C16972
:1020B0002A69114311E0206801F0B6FA2068C1696D
:1020C00041F40061C1612068C16921F48061C1618E
:1020D0002068C1692A6941EA0221C161ACE710B5F3
:1020E000040003D094F83D0010B107E0012010BDBA
:1020F000002084F83C00204600F01EF8022084F8FE
:102100003D00211D206801F08FF9012084F8460070
:1021100084F83E0084F83F0084F8400084F84100D1
:1021200084F8420084F8430084F8440084F84500B1
:1021300084F83D00002010BD70470000006804498D
:10214000884204D10449034809680078486370470D
:102150000004004098000020A801002030B50025B0
:102160000446022249B1042912D0082946D094F825
:10217000410001284DD0012030BD94F83E000128D7
:10218000F9D184F83E202068C26842F0020209E0DA
:1021900094F83F000128EED184F83F202068C268FF
:1021A00042F00402C2600122206801F083F91E4956
:1021B00020681E4A884201D0904203D1436C43F408
:1021C00000434364206888420DD090420BD0B0F1A8
:1021D000804F08D01649884205D01649884202D05F
:1021E0001549884204D1816801F00701062903D00E
:1021F000016841F001010160284630BD94F84000BB
:102200000128B8D184F840202068C26842F0080252
:10221000C8E784F841200C2901D00125ECE72068AB
:10222000C26842F01002BDE7002C014000340140BA
:102230000004004000080040000C004070B50D0094
:1022400004464FF0000607D0042D0AD0082D0DD00B
:102250000C2D10D001263FE02068C16821F002015A
:102260000DE02068C16821F0040108E02068C16821
:1022700021F0080103E02068C16821F01001C1606D
:1022800000222946206801F015F9194B41F211117D
:1022900020688A10984202D0164B984209D1036AEE
:1022A0000B4206D1036A134203D1436C23F400436B
:1022B00043642068036A0B4206D1016A114203D1CC
:1022C000016821F00101016001203DB1042D08D019
:1022D000082D09D084F84100304670BD84F83E00D6
:1022E000FAE784F83F00F7E784F84000F4E70000DD
:1022F000002C01400034014000680349884201D1AC
:10230000FEF700BF704700000014004070477047A0
:1023100070470000F8B5016804460868CA684B6950
:1023200010F00F0F4FF0000559D003F0010602F432
:102330009077374365D0C10705D0D10503D5616CCF
:1023400041F001016164410705D5D90703D0616CF3
:1023500041F002016164810705D5D90703D0616CA2
:1023600041F004016164010707D502F02001314307
:1023700003D0616C41F008016164616C00293AD0BE
:10238000800604D5900602D5204601F010FA206898
:102390004069616CC0F38010090700D460B3204627
:1023A00001F0DEF920684069400621D5206814302C
:1023B00050E8001F21F0400140E80012002AF5D14A
:1023C000E06BA8B16D494163E06BFEF795FA002818
:1023D00011D0E06B416B01B0BDE8F04008478306C7
:1023E0000FD593060DD52046BDE8F84001F0DFB9C2
:1023F0002046FFF78DFFF8BD2046FFF789FF656493
:10240000F8BD266B2023012E7CD1C6067AD5D606D0
:1024100078D508684868009048694FF00206400681
:1024200040D5E16B086840680004000CE8D0A28D3C
:102430008242E5D9E085886920282DD020680C30BB
:1024400050E8001F21F4807140E80012002AF5D105
:102450002068143050E8001F21F0010140E800120C
:10246000002AF5D12068143050E8001F21F0400107
:1024700040E80012002AF5D184F842302563206834
:102480000C3050E8001F21F0100140E80012002A33
:10249000F5D1E06BFEF70CFA6663A08DE18D401A72
:1024A00081B22AE0A08DE18D401A81B2E08D002832
:1024B000A6D00029A4D022680C3252E8000F20F4E4
:1024C000907042E80007002FF5D12068143050E8E2
:1024D000002F22F0010240E80027002FF5D184F8F8
:1024E0004230256320680C3050E8002F22F01002A3
:1024F00040E80023002BF5D166632046FFF707FF75
:10250000F8BDFFE705062BD5150629D594F841003F
:102510002128F5D1A068B0F5805F01D12069B0B164
:10252000206A411C2162216800784860E08C401ECE
:102530000004000CE084E3D12068C16821F0800130
:10254000C1602068C16841F04001C160D8E7206ADD
:102550000088C0F308004860206A801C2062E5E71C
:102560004006CDD55006CBD5CA68204622F04002A1
:10257000CA6084F8413000F003F9C1E75137000820
:1025800070B5040004D094F84100002510B106E0B5
:10259000012070BD84F84050204600F023F824202C
:1025A00084F841002068C16821F40051C1602046D0
:1025B00001F05EF92068016921F490410161206811
:1025C000416921F02A0141612068C16841F400514C
:1025D000C1606564202084F8410084F8420065638E
:1025E000002070BDF0B585B00024009401940294E1
:1025F000039406460368344F0220344903224502FF
:10260000BB4221D18B6943F480438B618B6903F416
:10261000804304938B6943F004038B6189692C4EDA
:1026200001F0040104910102CDE900100392694612
:102630003046FEF75BFCCDE9005469463046029413
:10264000FEF754FC05B0F0BD224FBB42FAD1CB6976
:1026500043F48023CB61CB6903F4802304938B691B
:1026600043F008038B61896901F00801CDE903217A
:10267000CDE90050184D69462846FEF737FCE814AE
:10268000CDE90004694628460294FEF72FFC144D5C
:102690001248C5E900048020C5E902402C616C6144
:1026A000AC612846EC61FEF7E3FA08B1FDF736FFAE
:1026B000F5630022052127206E62FEF7BBFD27206F
:1026C000FEF7AAFDBEE700000038014000100240FE
:1026D0000008014000480040000C0140300002406A
:1026E0008002002070472DE9F843044690F841002D
:1026F0001F4616460D46202802D00220BDE8F8836A
:102700007DB176B100206064212084F84100FEF79D
:10271000F3FCA6848046E684A068B0F5805F02D012
:1027200003E00120EAE7206910B12E4600250EE003
:1027300000260CE08021204601F0F6F8A0B9AEB1E9
:1027400016F8010B21684860E08C401EE084E08CA4
:1027500043464FF0000200970028EBD14FF04001B4
:10276000204601F0E1F830B10320C7E735F8020B4D
:10277000C0F30800E6E7202084F841000020BDE710
:102780007047FEE7002810B507484FF0000102D05F
:10279000FFF7E4FC01E0FFF751FD002803D0BDE89E
:1027A0001040FDF7BBBE10BDA801002010B500F021
:1027B00009F8002000F004FABDE810404FF6FF7061
:1027C00000F018B910B5E02000F0B0FB002000F0D8
:1027D000B3FB072000F0B0FB102000F0ADFB092098
:1027E00000F0AAFB172000F0A7FB0B2000F0A4FBD1
:1027F000412000F0A1FB892000F09EFB4B2000F05F
:102800009BFB0A2000F098FB0C2000F095FB0E20AB
:1028100000F092FB182000F08FFB1B2000F08CFBD7
:102820000F2000F089FBE12000F080FB002000F089
:1028300083FB172000F080FB1A2000F07DFB0420B2
:1028400000F07AFB0E2000F077FB062000F074FB0E
:102850002F2000F071FB452000F06EFB432000F0BC
:102860006BFB022000F068FB0A2000F065FB0920EA
:1028700000F062FB322000F05FFB362000F05CFBD2
:102880000F2000F059FBE92000F050FB002000F081
:1028900053FBF22000F04AFB582000F04DFB0420CF
:1028A00000F04AFB122000F047FB022000F044FB3E
:1028B000222000F041FB422000F03EFBFF2000F010
:1028C0003BFB0A2000F038FB902000F035FB142081
:1028D00000F032FB882000F02FFBF72000F026FBF1
:1028E000A92000F029FB512000F026FB2C2000F04D
:1028F00023FB822000F020FBF82000F017FB2120B2
:1029000000F01AFB042000F017FBC02000F00EFBC3
:10291000112000F011FB092000F00EFBC12000F097
:1029200005FB412000F008FBC52000F0FFFA002065
:1029300000F002FB0A2000F0FFFA802000F0FCFA11
:10294000362000F0F3FAC82000F0F6FA3A2000F042
:10295000EDFA552000F0F0FAB02000F0E7FA002080
:1029600000F0EAFAB12000F0E1FAB02000F0E4FA59
:10297000112000F0E1FAB42000F0D8FA022000F0B3
:10298000DBFAB62000F0D2FA022000F0D5FA2220BD
:1029900000F0D2FAB72000F0C9FAC62000F0CCFA55
:1029A000BE2000F0C3FA002000F0C6FA042000F0B8
:1029B000C3FAE92000F0BAFA002000F0BDFA1120B5
:1029C00000F0B4FA7820FEF791F9BDE81040292014
:1029D00000F0ACBA012801D0002801D1FFF7D2BE27
:1029E00070470000642800D96420014908707047CE
:1029F00098000020F0B50B4E0B4F00247588B1886D
:102A000038804D432146204600F082F9074930893D
:102A10000880891C388801E00880641CAC42FBD324
:102A2000F0BD0000E0AF00209A000020FEFFFF6C28
:102A300030B504460A3082B2A4F10A000D4680B2D5
:102A40000B4600F00BF805F10A000A3D2246A9B238
:102A5000BDE8304083B21046AFF300802DE9FE4F51
:102A6000161ACDE900104FF000085D1A47464FF0E6
:102A7000FF30002E02DD4FF0010102E003D14FF0E4
:102A800000018B4602E08346C6F10006002D02DD00
:102A90004FF0010002E003D14FF00000824602E057
:102AA0008246C5F10005AE4201DD344600E02C4609
:102AB000601C4FF00009029018E0009881B2019864
:102AC00080B200F019F8B0442F44A04504DD01980D
:102AD000A8EB040858440190A74203DD00983F1B6F
:102AE0005044009009F101001FFA80F902998945CC
:102AF000E3DDBDE8FE8F000000B500F009F90448F1
:102B00000449008908800448891C4088088000BD69
:102B1000E0AF0020FEFFFF6C9A00002070B50F4C64
:102B20000F4D63892B80060AAB1C1E80C0B2188033
:102B30006088401E060A1E80C0B21880A0892880C6
:102B4000080A1880C8B21880A088401E010A19809F
:102B5000C0B21880208928801A8070BDE0AF0020A4
:102B6000FEFFFF6C2DE9F04F8346A2EB0B00401CEB
:102B70001E4685B20C46DFF83C90DFF83CA00F4FB4
:102B80004FF0DA4812E02146584600F0C1F8B9F893
:102B90000800AAF8000000204246398802E01180AF
:102BA000401C80B2A842FAD3641CA4B2B442EAD951
:102BB000BDE8F08FE0AF0020FEFFFF6C9A00002020
:102BC000F0B400F0010407282BD817492A2249F253
:102BD00041354A812B228A812C220A810A46C880EB
:102BE0001288F0264FF4A07349F288474FF4F07C26
:102BF0002CB19CB1AA420CD14B808E800EE0AA422F
:102C000001D14E8009E0BA4208D14B80A1F804C03E
:102C100004E0BA4202D1A1F802C08B80F0BC00F0FF
:102C20004BB8F0BC70470000E0AF00200749D3204C
:102C30000880881C0188018801884FF6FF7200888F
:102C400002EA01210843024908807047FEFFFF6C39
:102C5000E0AF002010B55A20FFF7C4FE0120FFF7B7
:102C6000B9FE00F00FF8FFF7E1FF05480088A0F576
:102C70001441883903D1BDE81040FFF797BD10BD5E
:102C8000E0AF002070B50B4D4FF4006400222146E8
:102C90002846FEF72CFA40F6FF26304602F0A6F84A
:102CA000012221462846FEF722FA3046BDE8704050
:102CB00002F09CB8001C014030B5104A104B5189FD
:102CC00019800024991C0C800C805488641E250AED
:102CD0000D80E4B20C8094891C8000240C800C8050
:102CE0009288521E140A0C80D2B20A80082242EA4C
:102CF00040103622C0B21A80088030BDE0AF0020FC
:102D0000FEFFFF6C014A1080518070479A0000203E
:102D100030B50E4B0E4C5A892280050AA21C158034
:102D2000C0B210805888401E050A1580C0B21080BD
:102D300098892080080A1080C8B210809888401EA8
:102D4000010A1180C0B2108030BD0000E0AF002049
:102D5000FEFFFF6C01494880704700009A00002088
:102D60002DE9FF4F1D460C468A46580700D001202A
:102D700000EBD50069084843203A00F0FF09D0B2C3
:102D80000026DFF89CB0029045E00C2D12D0102DEB
:102D900015D0182D41D10298224900EBC00000BF88
:102DA00001EB80004FF00008875D38060CD51E4807
:102DB00042880DE002981D4900EB4000F0E71C49F5
:102DC000029801EB0010EDE70D9828B9164802882B
:102DD00021460098FFF7A2FE7806070E641CBBF898
:102DE0000400A4B2A04218D9A4EB0A00A84209D159
:102DF00000985446401C80B20090BBF802108142FB
:102E00000BD906E008F1010000F0FF08B8F1080F47
:102E1000CBD3761CF6B24E45B7D3BDE8FF8F00008A
:102E2000E0AF0020E26600089A0000207E5C000807
:102E3000F26000082DE9F84F044600F0FF09101970
:102E40000D46DDE90AB61FFA80F8581987B24FF02F
:102E5000000A12E0444503D305EB0B004C4685B253
:102E6000BD420FD25B4629462046CDF800A0FFF7B1
:102E700077FF04EB5B0084B2761C3278A2F120006D
:102E80005E28E7D9BDE8F88F2DE9F843064600250E
:102E90001D4C1746894608460C2906D010280AD032
:102EA00018290BD019A001F09DF9A088DFF87880CF
:102EB000704386B222E0144CA41DF6E7124C0C3489
:102EC000F3E76088B8F802304119994203D9A18824
:102ED000002531448EB2A188B8F804003144814203
:102EE00001D900252E46002000904B463146284649
:102EF000FFF736FF60887F1C284485B23A78002AA5
:102F0000DFD1BDE8F88300009E000020E5AD97E426
:102F1000BD93E8AEBEE7BDAEE4B88DE6ADA3E7A1D4
:102F2000AEEFBC810D0A0000E0AF0020014908802F
:102F300070470000FEFFFF6C4FF0DA4108807047D9
:102F4000094808B5416941F0010141614069002229
:102F500000F00100009005210D20FEF76BF9BDE89F
:102F600008400D20FEF758B90010024010B5074A7E
:102F70000021074801F0C8FA064C044A00216060AD
:102F8000054801F0C1FA206010BD0000305C000867
:102F90006533000800000020C136000810B58EB06F
:102FA0001C216846FDF747F91C2107A8FDF743F9E6
:102FB0001C484FF02041102201601B49416006214E
:102FC00081600021C160C0E904128161C161130206
:102FD0000162C0E909139302C0E90B1341638163E5
:102FE0000F20CDE9001002230DF10C0C02931124E7
:102FF0008CE8160009930691CDE907100AA880E82D
:1030000016000D9107AA69460648FEF768FD08B14B
:10301000FDF784FA0548C16941F48061C1610EB0D1
:1030200010BD0000C0000020040100A0000001400D
:103030001D4808B5816941F040018161816901F055
:1030400040010091816941F010018161816901F0C5
:1030500010010091816941F080018161816901F075
:1030600080010091816941F004018161816901F071
:1030700004010091816941F008018161816901F0D9
:1030800008010091816941F020018161816901F0AD
:1030900020010091816941F480718161806900F4AF
:1030A0008070009008BD000000100240114810B56B
:1030B0000F4901604FF48271416000218160C1605D
:1030C0004FF400720161C0E905121822C0E907211E
:1030D000416281620A21C162FEF76AFB08B1FDF715
:1030E0001DFA0122BDE8104010210348FDF7FFBF83
:1030F00000300140080100200008014010B586B0F2
:1031000000241548009401940294039404944FF011
:103110008041059401604721C0E90114C460046145
:103120008461FEF751FD08B1FDF7F8F94FF48050C6
:10313000009069460848FEF718FE08B1FDF7EEF961
:10314000049404A904480594FEF700FD002801D06A
:10315000FDF7E4F906B010BD6001002010B58EB097
:1031600000240794089409940A940B941C2168463F
:103170000C94FDF760F81F481D4901604721C0E924
:1031800001146321C0E903148461FEF71DFD08B139
:10319000FDF7C4F94FF48050079007A91548FEF7D2
:1031A000E4FD08B1FDF7BAF91248FEF798FF08B13F
:1031B000FDF7B4F90B940BA90E480C94FEF7C6FC6E
:1031C00008B1FDF7ABF9602000905020019002207B
:1031D00002900022694604940648FEF71AFF08B1DF
:1031E000FDF79CF90348FEF7E3FE0EB010BD0000AA
:1031F00000040040A80100200C4810B50A490160F5
:103200004FF4E1314160002181600C22C160C0E9CE
:1032100004128161C161FFF7B3F9002803D0BDE852
:103220001040FDF77BB910BD00380140F0010020CF
:103230000C4810B50A4901604FF4E13141600021AA
:1032400081600C22C160C0E904128161C161FFF795
:1032500097F9002803D0BDE81040FDF75FB910BD15
:103260000048004038020020FEE7FEE738B50B4674
:10327000009204460022802100F008F8002804D0C3
:10328000606D40F020006065032038BD2DE9F843F3
:103290001E46914688460446089DFDF72DFF401BBB
:1032A000351AFDF729FF074625480068C0F3CB30E3
:1032B000684338E0701C37D0FDF71EFFC01BA842E2
:1032C00003D215B1009860B32CE02068416821F06A
:1032D000E00141606068B0F5827F0BD1A068B0F575
:1032E000004F02D0B0F5806F04D12068016821F052
:1032F00040010160A06AB0F5005F09D12068016853
:1033000021F4005101602068016841F4005101601E
:10331000012084F85100002084F850000320BDE80B
:10332000F8830025401E00902068816838EA01007B
:1033300004D000214945BDD10020F0E70121F9E783
:103340001C00002003B583B000218DF80410322149
:103350000091012301AA04A9FEF7CAFA9DF804000E
:1033600005B000BD4FF47A7403A000F03BFF204687
:1033700001F086FEF8E7000044656661756C7454E0
:1033800061736B0D0A00000010B5502080F31188A6
:10339000BFF34F8FBFF36F8F02F074FA18B1044977
:1033A0004FF080500860002080F3118810BD0000AD
:1033B00004ED00E030B58FB028216846FCF73BFFF4
:1033C00014210AA8FCF737FF01210804CDE90010F9
:1033D0000024029402250491CDE907504FF4E01037
:1033E00009906846FEF754F860B90F20CDE90A0548
:1033F0006802CDE90C4002210AA80E94FDF74CFFAB
:10340000002801D0FDF78AF80FB030BD70470000EA
:103410000148FEF719BD0000A80100200148FEF791
:1034200013BD0000C4020020F0B502681C4B1D4D06
:103430001D4E1E4F1E4C4FF0804C984209D0A042AA
:1034400007D0604505D0A84203D0B04201D0B842B1
:1034500004D122F0700E4A6842EA0E02984209D066
:10346000A04207D0604505D0A84203D0B04201D0A9
:10347000B84203D122F44075CA682A434D6922F04C
:1034800080022A4302608A68C2620A6882629842A5
:1034900001D0A04201D10969016301214161F0BD60
:1034A000002C01400004004000080040000C0040D7
:1034B0000034014010B501F01F030121046A994056
:1034C0008C430462016A9A401143016210BD10B539
:1034D000846842EA032224F47F440A432243826040
:1034E00010BD826822F070020A4342F00701816039
:1034F00070470000F0B5036A026A22F0010202621E
:1035000042688469124E24F073050C682C4323F042
:1035100002058B682B430D4DA84201D0B04205D166
:1035200023F00807CB683B4323F00403A84201D0F3
:10353000B04205D14D6922F4407215438A692A438D
:1035400042608461496841630362F0BD002C014020
:1035500000340140F0B5026A036A23F010030362ED
:10356000436884690D6824F4E64444EA05248D68C0
:1035700022F0200242EA05120F4D104EA84201D05F
:10358000B04206D1CF6822F0800242EA071222F050
:103590004002A84201D0B04207D14D6923F44063F4
:1035A00043EA85038D6943EA850343608461496882
:1035B00081630262F0BD0000002C01400034014034
:1035C000F0B5026A036A23F4807303624368C46936
:1035D00022F4007224F073050C68124E2C438D689F
:1035E00042EA05220E4DA84201D0B04206D1CF6872
:1035F00022F4006242EA072222F48062A84201D04B
:10360000B04207D14D6923F4405343EA05138D6955
:1036100043EA05134360C4614968C1630262F0BDB7
:10362000002C01400034014030B5046A026A22F4E3
:10363000805202624268C3690D6823F4E64343EA9C
:1036400005238D6824F4005444EA0534084DA8424B
:1036500002D0084DA84204D14D6922F4804242EACA
:1036600085124260C36149680164046230BD000094
:10367000002C01400034014010B5036A046A24F0B4
:1036800001040462846924F0F00444EA021423F083
:103690000A020A438461026210BD10B5036A046A1B
:1036A00024F010040462846923F0A00324F470441D
:1036B00044EA023243EA01118261016210BD000056
:1036C00094B04FF6FF7600213046FFF71BFB002435
:1036D00010253046FFF78EF9104E01A802F074FA5B
:1036E0009DF812000128F8D1BDF90630BDF904207B
:1036F0000BA105A800F086FD05A914A000F072FD3D
:10370000294605AA2046FFF7BFFBB088641CB0FB22
:10371000F5F0E4B2A042E0D20024DEE7E0AF002002
:1037200053637265656E20746F756368206F6363A1
:10373000757273212078203D202564203B2079205C
:103740003D2025640D0A0D0A0000000025730000CD
:1037500010B5406A0021C185C184FEF7D9FD10BDB6
:1037600001680C3151E8002F22F4907241E80023E7
:10377000002BF5D10168143151E8002F22F001022D
:1037800041E80023002BF5D1016B012909D1016823
:103790000C3151E8002F22F0100241E80023002BE9
:1037A000F5D1202180F8421000210163704708B54F
:1037B00090F84210222901D0022008BD82684FF4FF
:1037C00080539A4201D1016921B1816A9A421BD08A
:1037D0004AB10AE00268816A5268C2F308020A80AC
:1037E000816A891C08E0026972B10268526802F0BD
:1037F0007F020A70816A491C8162C18D491E0904D9
:10380000090CC18503D01BE002685268F1E701682A
:10381000CA6822F02002CA600168CA6822F4807275
:10382000CA6001684A6922F001024A61202180F8D9
:10383000421000214163026B012A03D0FEF752FFC0
:10384000002008BD016301680C3151E8002F22F00F
:10385000100241E80023002BF5D101680A68D20666
:1038600002D50A6849680091818DFEF750FDE7E7AF
:1038700070B5044600680169E26821F440511143C3
:1038800001612169A0680843616908432168CA6829
:1038900041F20C639A430243CA6020684169A269FD
:1038A00021F44071114341611E492068884202D1D0
:1038B000FDF7B8FD01E0FDF7A5FD00EBC00101EB50
:1038C0000012606864218000B2FBF0F3B3FBF1F3F7
:1038D0006FF018067343B2FBF0F5B2FBF0F605EBA0
:1038E0008305322303EB0515B5FBF1F5B6FBF1F6C5
:1038F00005F0F00505EB0615B2FBF0F6B2FBF0F0B3
:10390000B0FBF1F06FF01802504306EB800003EBC0
:103910000010B0FBF1F0216800F00F00284488602F
:1039200070BD0000003801402DE9F041984617466F
:103930000E460446069D27E0681C25D02DB1FDF7F4
:10394000DBFBA0EB0800A8421ED920680C3050E831
:10395000001F21F4D07140E80012002AF5D1206840
:10396000143050E8001F21F0010140E80012002A45
:10397000F5D1202084F8410084F84200002084F82A
:1039800040000320BDE8F0812068006836EA0000AE
:1039900004D00020B842CFD00020F3E70120F9E79F
:1039A0000148FEF7B7BC000038020020FEE72DE911
:1039B000F0470C460546B1F90010B4F91000164660
:1039C0000A1AB4F90A30B4F9121001275B1A5A43E3
:1039D000B4F90830C01AB4F90230591A00FB0120BA
:1039E000FCF7FCFC10F0FF4FB0617ED0B5F9001081
:1039F000B5F91000B4F90A300A1AB4F912105B1ABA
:103A00005A43B5F90830C01AB4F90230591A00FB0C
:103A10000120FCF7E3FC3060B4F90000B4F91010A9
:103A2000B5F90830421AB5F910001B1A5A43B5F916
:103A30000030C01AB4F90830591A00FB0120FCF715
:103A4000CDFC7060B4F91030B5F90890B4F90810E5
:103A5000B5F9108003FB09F001FB180CB4F9020062
:103A60000CFB00FCB4F9000000FB08F2B5F9008083
:103A700003FB182201FB08F1B4F90A3000FB19100E
:103A800002FB03C3B4F9121000FB0130FCF7A6FCE3
:103A9000B060B5F90210B5F91200B4F90A300A1A8B
:103AA000B4F912105B1A5A43B5F90A30C01AB4F9C6
:103AB0000230591A00FB0120FCF790FCF060B4F9C9
:103AC0000010B4F91000B5F90A300A1AB5F912104D
:103AD0005B1A5A43B5F90230C91AB4F90830181AFA
:103AE00001FB0020FCF77AFC00E028E03061B4F92B
:103AF0001020B5F90A80B4F90810B5F9123002FBAC
:103B000008F001FB130CB4F90200B5F902500CFBEC
:103B100000FCB4F900006943434302FB1532B4F9D9
:103B20000A3000FB181002FB03C2B4F9121000FBAC
:103B30000120FCF753FC70613846BDE8F087002790
:103B4000FAE700002DE9FC4707460E464FF0010951
:103B5000684600F0F7F8C8B3BDF90200FCF73EFC78
:103B6000DFF87080B8F8061006EB4114E168FCF746
:103B7000C5FB0546BDF90000FCF730FCA168FCF769
:103B8000BDFB2946FCF762FB2169FCF75FFBFCF7F4
:103B90002EFC3880BDF90200FCF720FCB8F80610B6
:103BA00006EB4114A169FCF7A9FB0546BDF900002D
:103BB000FCF714FC6169FCF7A1FB2946FCF746FB06
:103BC000E169FCF743FBFCF712FC78804846BDE84E
:103BD000FC870000E0AF00202DE9F0473C4A86B0AA
:103BE0000025906940F040009061906900F040002D
:103BF0000490906940F08000906190694FF0010856
:103C000000F0800004901015CDE90008DFF8C4A092
:103C100003264446694603965046FDF767F94FF47C
:103C20008070009069465046FDF760F94027DFF844
:103C3000A890CDE90074694648460396FDF756F909
:103C4000039680200026CDE900066946029450467E
:103C5000FDF74CF9012240214846FDF748FA00974C
:103C6000CDE9016469465046FDF740F91B4C2088B8
:103C7000A0F51441883906D14FF498310D46C02281
:103C80001748FCF75DFCE088154F07EB4010016812
:103C9000012902D14068032816D1E08807EB4011C2
:103CA000C0B20E6000F016F90028F6D0E0880221BC
:103CB00007EB4010C0E900812846FCF715FDC02243
:103CC00029460748FCF774FC06B0BDE8F087000001
:103CD00000100240001C014000180140E0AF00202D
:103CE000F0AF00202DE9F04100F040FA144E00251D
:103CF0002A464FF480713046FDF7F9F90122970208
:103D000039463046FDF7F3F90024002239463046A3
:103D1000FDF7EDF980213046FDF7E4F9C4F10B0120
:103D20008840284385B2012239463046FDF7DFF945
:103D3000641CE4B20C2CE8D32846BDE8F0810000F6
:103D4000001C01402DE9F0418AB0054600262821DB
:103D50006846FCF770FADFF810816C469020FFF798
:103D6000C1FF0746012001F041F8D020FFF7BAFF5C
:103D700024F8167004EB4601761C8882F6B24021C6
:103D80004046FDF7AFF908B90A2EE7D30A2E03D053
:103D900000200AB0BDE8F081BDF90010BDF91400A3
:103DA0008C4662460346012634F916708F4201DACA
:103DB000394602E0974200DD3A46761CF6B20A2EFA
:103DC000F2D3012604EB4607B7F914709F4201DADB
:103DD0003B4602E0874200DD3846761CF6B20A2EEA
:103DE000F0D3BDF90240BDF90460BDF9067064442A
:103DF0003E443444BDF908603444BDF90A6034449B
:103E0000BDF90C603444BDF90E603444BDF9106056
:103E10003444BDF912603444611A891AC9102980EA
:103E2000BDF91410BDF91620BDF91A401144BDF9B1
:103E3000182022441144BDF91C201144BDF91E2054
:103E40001144BDF920201144BDF922201144BDF9CF
:103E500024201144BDF926201144C91A081AC010A3
:103E60006880012095E70000001C01402DE9F04129
:103E7000164C0026164821783546012731B14FF0FF
:103E80000208012907D0022918D113E04021FDF7CB
:103E900029F968B112E04021FDF724F908B1A560C5
:103EA0000CE0A068401CA060022801D9A56009E0D0
:103EB000277004E04021FDF715F918B12570304650
:103EC000BDE8F08184F800800126F8E7B00000200A
:103ED000001C01402DE9F14F9EB01F210020FEF78C
:103EE00011FF1E98FEF76CFE8A4DDFF82CB26A882F
:103EF0009008ADF80800AB8802EB420242F38F0253
:103F0000ADF8100003EB4300990840F38F00ADF8C3
:103F10001820ADF82020ADF80A10ADF81200ADF869
:103F20001A00ADF82210002240215846FDF7DFF8B4
:103F300000240DF108090C266FF007080DF1500A56
:103F40000021AB886A880846FEF70CFE73A0CDE915
:103F50000060A9880C2308EB510081B26888C82250
:103F60004008FEF767FF6420FCF7C0FE09EBC401C0
:103F700039F834004988FEF75BFD0AEBC407384680
:103F8000FFF7E0FE0028FAD0641CE4B2042CD7D37B
:103F9000012240215846FDF7AAF80AAA14A902A84E
:103FA000FFF705FD1098DFF88CA110F0FF4F7CD0D3
:103FB000BDF96A00FCF712FA81460B99FCF79EF9ED
:103FC0000746BDF96800FCF709FA0A9983460C46D2
:103FD000FCF794F93946FCF739F90C99FCF736F9F6
:103FE0001099FCF7BDF9FCF71BFA87B248460E9909
:103FF000FCF784F9814658460D99FCF77FF949464C
:10400000FCF724F90F99FCF721F91099FCF7A8F9AE
:10401000FCF706FABDF9201080B2B94201DA791A2C
:1040200000E0C91B8AB2BDF92210814201DA401AB0
:1040300000E0081A80B20F2A42D80F2840D8204644
:104040001099FCF78DF93C491E9A01EB4214A060CF
:1040500010990B98FCF784F9E06010990C98FCF724
:104060007FF9206110990D98FCF77AF96061109939
:104070000E98FCF775F9A061DDE90F01FCF770F906
:10408000E061BAF80000FEF7B5FC4FF4FC60FEF703
:1040900061FE2AA0CDE90060A8886A88410808EB83
:1040A00052000C2380B2C82200E009E0FEF7C2FEF5
:1040B0004FF47A70FCF71AFE01201FB0BDE8F08FB4
:1040C000BAF80000FEF796FC4FF47840FEF742FE87
:1040D0001FA0CDE90060A8886A88410808EB52005B
:1040E00080B20C23C822FEF7A5FE1DA0CDE900601A
:1040F000A8885C226430410868880C2302EB5000D9
:10410000C822FEF797FE4FF47A70FCF7EFFD00200F
:10411000D3E70000E0AF002000180140546F756342
:10412000682043616C696272617465202E2E2E2EA8
:104130002E2E00009A000020F0AF002043616C6931
:1041400062726174652053756363656400000000EA
:1041500043616C696272617465206661696C00001C
:1041600074727920616761696E0000002DE9F04783
:104170001B4D07464FF48076002231462846FCF757
:10418000B6FF4FF48068002241462846FCF7AFFF97
:10419000B14600244FEA0806C4F1070027FA00F0F0
:1041A000C00701D0012200E0002249462846FCF762
:1041B0009EFF052000F01AFE012231462846FCF73A
:1041C00096FF052000F012FE002231462846FCF73B
:1041D0008EFF641CE4B2082CDED3BDE8F08700003B
:1041E000001C01400FB4054B10B503A9044A029806
:1041F00000F03CF810BC5DF814FB000031440008EE
:10420000BC0000200FB4084B10B504A902AA039803
:1042100000F02CF8044602A9002000F003F9204623
:1042200010BC5DF814FB0000254400080907090EC6
:10423000002804DB00F1E02080F80014704700F053
:104240000F0000F1E02080F8141D704702E008C85C
:10425000121F08C1002AFAD170477047002001E000
:1042600001C1121F002AFBD1704700002DE9FF4F4A
:104270008BB09A460F460546002606E025280BD04F
:1042800052460D9990476D1C761C28780028F5D170
:104290000FB03046BDE8F08F0024A04601226049EF
:1042A00000E0044315F8013F203B02FA03F0084206
:1042B000F7D128782E2817D115F8010F44F00404FF
:1042C0002A280ED06FF02F022878A0F1300109299A
:1042D0000AD808EB880102EB410100EB01086D1CD4
:1042E000F2E757F8048B6D1C287869283ED006DC6D
:1042F0000028CDD063280BD0642804D136E0732881
:1043000010D075284BD052460D999047761C85E009
:1043100017F8040B8DF8000000208DF80100E94625
:10432000012003E057F8049B4FF0FF3061074FF086
:10433000000401D40AE0641C44450DDA8442FADB2F
:1043400019F804100029F6D106E0641C8442FCDB55
:1043500019F804100029F8D1264404E019F8010BDB
:1043600052460D999047641EF8D257E001CF4FF0A6
:104370000A0B002802DA40422D2102E0210504D573
:104380002B218DF82410012103E0E10705D0202125
:10439000F7E70DF1200908910CE00021F9E701CFC2
:1043A0004FF00A0BF9E75946FCF74EF801F13002DD
:1043B00009F8012D0028F6D1ADEB090000F1200B22
:1043C000600701D44FF00108D84502DDA8EB0B00CF
:1043D00000E000208046002406E009A85246005D67
:1043E0000D999047641C761C08988442F5DB04E024
:1043F000302052460D999047761CB8F10001A8F183
:104400000108F5DC05E019F8010B52460D999047BB
:10441000761CBBF10001ABF1010BF4DC6D1C34E741
:10442000092801000A68531C0B60107070470000D7
:1044300013B50A23012269460248FEF754F9009891
:104440001CBD0000F0010020FCF764FEFEF7B2FF87
:10445000FEF7EEFDFEF774FDFEF7A0FDFEF7CCFEC5
:10446000FEF7E6FEFEF77AFEFEF748FEFEF71EFEBA
:104470004FF47A70FCF73AFCFEF7ECFBFFF7ACFB6D
:1044800000F006F8FEF772FD00F01EF8FEE70000EF
:10449000EFF3058058B9EFF3108040B90949086877
:1044A000022801D030B109E0EFF3118030B16FF094
:1044B0000500704701200860002070474FF0FF3072
:1044C000704700007000002010B5EFF3058060B960
:1044D000EFF3108048B90B490868022802D0012880
:1044E00006D00BE0EFF3118040B16FF0050010BD76
:1044F0000220086000F02CFE002010BD4FF0FF30BD
:1045000010BD000070000020F0B585B04FEA010337
:104510004FF00004EFF305810394A1BBEFF310818A
:1045200089BB21490968022902D1EFF3118151BBEE
:1045300048B3802618218DF8104004AD42B31768A7
:1045400007B13D4697691FB139467F1E382F02D209
:104550001779FF0702D0002005B0F0BD576907B1F9
:10456000BE08D2F808C0BCF1000F0DD0D4685C2C96
:1045700018D312693AB137B18DE806103246294690
:1045800001F041F903900DE0D7685FB912694AB9AB
:1045900003AACDE90012B2B2294601F007F90128B9
:1045A00000D003940398D7E7700000202DE9F04174
:1045B000134C0F46054666692068001D00F030FC6C
:1045C000681C07D137B12168BDE8F0410D48091DCD
:1045D00000F076BC20683544B5424560216805D2BC
:1045E000A068BDE8F041091D00F052BC6068091DDB
:1045F00000F04EFC206B854200D22563BDE8F081BF
:1046000020000020FC0700202DE9F041054600F0C5
:1046100063FC2D4C2069401C206120682B4F10B199
:10462000E06930B32BE025602069012827D10026FE
:1046300006EB860007EB800000F01CFC761C382E91
:10464000F6D3234800F016FC2148143000F012FC89
:104650001F48283000F00EFC1D483C3000F00AFCDA
:104660001B48503000F006FC194860601430A06010
:1046700005E02068E96AC06A884200D82560E06ADF
:10468000401CE0626864E86AA169884200D9A061C0
:1046900000EB800007EB8000291D00F011FC00F00A
:1046A0003BFCE06900280CD02068E96AC06A8842B7
:1046B00007D208494FF080500860BFF34F8FBFF317
:1046C0006F8FBDE8F0810000200000204C03002027
:1046D000AC07002004ED00E038B500F0FDFB104C05
:1046E000A068C8B90F4800F0C5FB0E48143000F0B0
:1046F000C1FB0C482060143060600A4B0020283356
:10470000009003F1500210210A2000F0F3FDA06098
:1047100010B105A100F07EFCBDE8384000F0FCBB04
:104720005C00002010080020546D72510000000051
:1047300030B4026C0B46002A0BD0C1681144C16032
:104740004468A14201D30168C16030BC1846FBF740
:1047500059BD30BC70472DE9F041856B17460446C2
:104760000026026C82B1C7B1E068FBF74BFDE1683F
:10477000206C091AE1602268914202D26168081A2D
:10478000E060022F16D017E02068A8B9606801F039
:10479000DDF80646002060600EE0A068FBF732FD01
:1047A000216CA0680844A0606168884204D3206836
:1047B000A06001E005B16D1E6D1CA5633046BDE82B
:1047C000F08110B5044690F8590058B101280CD07A
:1047D00002280FD0502080F31188BFF34F8FBFF312
:1047E0006F8FFEE7206B00F0ABFB2046BDE810406A
:1047F00000F0A6BB10BD000010484FF42041420756
:1048000006D0C01D0D4920F00700411AC1F5204116
:104810000B4A00230144C2E900030839103A21F091
:10482000070111604B600B600B1AC0E90013936025
:104830004FF000405360D06070470000E00F002050
:1048400084000020144E154CA6F29C474FF080586F
:10485000DFF84C9012E000BF00F03EFBF068C56846
:10486000281D00F0DDFA2069401E2061E068401E2E
:10487000E06000F051FB2846FFF7A3FFE068002846
:10488000EAD138680128F9D9C9F80080BFF34F8F01
:10489000BFF36F8FF2E70000E80700202000002040
:1048A00004ED00E070B51D46049C51B1C4F8002031
:1048B000C4E90F010121204600F050FD84F84C505E
:1048C00070BD2460F4E72DE9F0470E46DDE9098468
:1048D0001746824691009946089DA522206BFBF75A
:1048E000A3FC6FF00301206B01EB8701084420F06B
:1048F0000707780707D0502080F31188BFF34F8F48
:10490000BFF36F8FFEE72218315C82F83410315C00
:1049100011B1401C1028F6D3002684F84360382DCE
:1049200000D33725E562C4E91356201D00F0ADFA27
:1049300004F1180000F0A9FA2461C5F1380064629E
:10494000A061666584F858604A465146384600F0D2
:104950003BFA2060B8F1000F01D0C8F80040BDE874
:10496000F087000030B5114900E011460A68824224
:10497000FBD34B685C18844203D1406818444860FC
:10498000084643681C18944209D1084C103C24681E
:10499000A24209D052681A4442600A681268026052
:1049A000814200D0086030BD0460F9E78400002037
:1049B00070B5002441600B4D0061914206D8D11AB8
:1049C0008269914206D2011D686807E09A4203D2CB
:1049D000994201D3012403E0011D286800F058FA30
:1049E000204670BD5C00002010B5044600F074FA4B
:1049F000A06B28B15FF0000400F08EFA204610BDD5
:104A00000124F9E730B589B0304D55E0049800280D
:104A100006DADDE90601059A9047049800284BDB89
:104A2000069C606910B1201D00F0FAF902A800F0A0
:104A3000B9F8024604980A283ED2DFE800F00505DE
:104A4000053D263705053D260598A1690346014425
:104A50002046FFF7ADFF00B3616A20468847E06952
:104A6000012829D1002000900598A169002342184F
:104A70001946204601F074F878B9502080F3118867
:104A8000BFF34F8FBFF36F8FFEE70598A06128B18A
:104A9000811813462046FFF78BFF0DE0502080F36E
:104AA0001188BFF34F8FBFF36F8FFEE794F82C0090
:104AB00010B9204600F044FA002204A9A86800F0CA
:104AC0009FFD0028A2D109B030BD00005C0000208D
:104AD0002DE9FC410F46054600F07EFB01A800F0E1
:104AE00061F80446019818B100F0A8FFBDE8FC8108
:104AF000224EAFB170680068A8B30027291B3A4660
:104B0000B06800F09BFA00F099FF0028EED11C4934
:104B10004FF080500860BFF34F8FBFF36F8FE5E712
:104B2000A542EBD800F08AFF30682746C068C46809
:104B3000201D00F075F9E069012810D1A0692B460D
:104B400041193A462046FFF733FF40B100200346A3
:104B5000014600902A46204601F002F820B1616A21
:104B600020468847C2E707E0502080F31188BFF352
:104B70004F8FBFF36F8FFEE70127BFE75C00002078
:104B800004ED00E006484168096829B14168C96838
:104B9000C9684968016370474FF0FF31FAE70000C8
:104BA0002000002070B5054600F066FE064E044663
:104BB0003069844203D200F009F8012000E00020AF
:104BC00028602046346170BD5C000020F8B5194DA6
:104BD0001FE0C068C4680668201D00F021F9616A02
:104BE00020468847E069012813D1A0693044B042CB
:104BF00006D924616060211D286800F049F908E0A9
:104C000000200346014600903246204600F0A8FFEF
:104C100038B1286801680029DBD16968C5E900104E
:104C2000F8BD502080F31188BFF34F8FBFF36F8F13
:104C3000FEE700005C00002008484068401C4FF080
:104C4000500080F3118804D0BFF34F8FBFF36F8FF4
:104C5000FEE7BFF34F8FBFF36F8FFEE78C0000209E
:104C6000074C2068016841B1C0680021D0F80000FD
:104C7000FFF72EFFFFF7C6FEF3E701210020F7E75D
:104C80005C0000202DE9F041044600F025F994F97C
:104C9000455004F1240609E0606A48B1304600F04E
:104CA00095FE08B100F01AFA6D1E6DB2002DF3DC0E
:104CB0004FF0FF3684F8456000F02EF900F00CF953
:104CC00094F9445004F1100709E0206948B13846CE
:104CD00000F07CFE08B100F001FA6D1E6DB2002DEF
:104CE000F3DC84F84460BDE8F04100F015B9000041
:104CF0002DE9F0410546002700F06EFA314E30688C
:104D000008B9FFF779FDF06805424BD1C5B3083506
:104D100068070ED005F00700C0F1080005446807D9
:104D200007D0502080F31188BFF34F8FBFF36F8FF0
:104D3000FEE72DB37068854234D822481030014612
:104D40000C6801E020460C466168A94202D2216845
:104D50000029F7D131688C4224D0076821680160AE
:104D600060680837411B10290FD96019420708D025
:104D7000502080F31188BFF34F8FBFF36F8FFEE792
:104D800010E041606560FFF7EDFD61687068401AF2
:104D90007060B268904200D2B060F06801430020B9
:104DA000C4E9000100F04AFE780707D0502080F3E4
:104DB0001188BFF34F8FBFF36F8FFEE73846BDE812
:104DC000F08100007400002010B5031F4FF08074C4
:104DD0001C601B1F21F001011960191F024B0B60A1
:104DE000143940380A6010BD394C000870B50B4EBC
:104DF000054600243068C562F5603068446230467C
:104E0000FCF738FF306801E0416A8CB2AC42FBD15C
:104E1000BDE870400148FCF795BF0000600100202C
:104E2000D0E9013201699A60D0E901235A604A68E9
:104E3000824201D182684A60002202610868401EF5
:104E40000860086870470000034B036003F15C00D2
:104E5000086080201060704728090020044B036020
:104E600003F15C0008604FF4807010607047000030
:104E7000840B002000F108014FF0FF32C0E901125D
:104E8000C16001610021016070470021016170472C
:104E900030B50B685A1C02D000F1080202E002692A
:104EA00004E02246546825689D42FAD953684B6055
:104EB00099608A60516008610168491C016030BDD9
:104EC00042684A6093688B6093685960916008619A
:104ED0000168491C01607047502080F31188BFF3BE
:104EE0004F8FBFF36F8F0A494868401C4860012804
:104EF0000CD10848006810F0FF0F07D0502080F355
:104F00001188BFF34F8FBFF36F8FFEE7704700002C
:104F10008C00002004ED00E00849486828B1401EDC
:104F2000486001D180F311887047502080F31188C8
:104F3000BFF34F8FBFF36F8FFEE700008C000020A0
:104F400070B5002827D0144DA0F108046168E86806
:104F5000014207D1502080F31188BFF34F8FBFF378
:104F60006F8FFEE722683AB1502080F31188BFF3BB
:104F70004F8FBFF36F8FFEE78143616000F02CF924
:104F800060686968084468602046FFF7EBFCBDE88C
:104F9000704000F053BD70BD740000204FF0E02061
:104FA00000210161816105494FF47A720968B1FB02
:104FB000F2F1491E41610721016170471C00002088
:104FC00010B5FBF709F9114910280ED300F1E020C4
:104FD00090F8F0030A78904207D2502080F31188AD
:104FE000BFF34F8FBFF36F8FFEE7094800688968F2
:104FF00000F4E060884207D9502080F31188BFF3A5
:105000004F8FBFF36F8FFEE710BD00008C000020B4
:105010000CED00E010B5084B002200BF53F8324001
:105020001CB1521C082AF9D310BD43F8321003EB0F
:10503000C201486010BD00000C03002070B5154689
:105040000E460446FFF748FF94F944100020491C1F
:1050500001D184F8440094F94510491C01D184F829
:105060004500FFF759FFA06B28B92A46314604F1E5
:10507000240000F051F82046BDE87040FFF702BE62
:1050800010B5020014D00F48806B38B1502080F367
:105090001188BFF34F8FBFF36F8FFEE700F09CF8CE
:1050A00000211046FFF782FA00F0C8FC002807D163
:1050B00005494FF080500860BFF34F8FBFF36F8FEB
:1050C00010BD00002000002004ED00E002498A6AC3
:1050D00002604969416070472000002001490120B9
:1050E000486270472000002010B50C4650B10949B5
:1050F00009681831FFF7CCFE2046BDE810400121B9
:10510000FFF754BA502080F31188BFF34F8FBFF3DD
:105110006F8FFEE72000002070B514460D4668B181
:105120000A4909681831FFF7CBFE0CB14FF0FF3583
:1051300021462846BDE87040FFF738BA502080F37A
:105140001188BFF34F8FBFF36F8FFEE72000002061
:1051500030B587B00024039405AA04A903A80494D9
:10516000FFF772FEDDE903010094CDE90110002391
:1051700015A11748059A00F046FB164D00286863F4
:105180001FD000F0BDFC012809D0401C19D15020CF
:1051900080F31188BFF34F8FBFF36F8FFEE750206E
:1051A00080F31188BFF34F8FBFF36F8F4FF0FF3045
:1051B00028630120E8616C6107B0BDE8304000F071
:1051C00045B807B030BD000049444C450000000020
:1051D00045480008200000200248816B491C81637B
:1051E0007047000020000020164810B5816B11B1F7
:1051F0000121416210BD002141628169124A01E032
:10520000B9B1491E01EB810352F82330002BF7D0CE
:1052100001EB810302EB830202F1080453685B682F
:105220005360A34201D15B685360DA680260816118
:1052300010BD502080F31188BFF34F8FBFF36F8FE5
:10524000FEE70000200000204C0300201CB526498A
:1052500008780190FF20087008788DF800009DF80C
:1052600000009DF8002000F0F000904207D0502090
:1052700080F31188BFF34F8FBFF36F8FFEE79DF868
:1052800000001A4B00F0500018700720986005E0ED
:105290009DF8002052008DF80020401E9DF800204F
:1052A0001206F5D49860032807D0502080F31188A7
:1052B000BFF34F8FBFF36F8FFEE74FF440709860DE
:1052C000019808700A48016841F4700101600168A2
:1052D00041F070410160FFF761FE00205860FAF76D
:1052E00045FF00201CBD000000E400E08C00002011
:1052F00020ED00E038B5049D18B153B1CAB181B1B9
:1053000020E0502080F31188BFF34F8FBFF36F8FE1
:10531000FEE7502080F31188BFF34F8FBFF36F8FEC
:10532000FEE7502080F31188BFF34F8FBFF36F8FDC
:10533000FEE739B1502080F31188BFF34F8FBFF3E0
:105340006F8FFEE750241C46012384F846302B461D
:105350000094FFF7A7FA204638BD000070B50D464F
:10536000040025D0FFF7B8FDD4E90F20216802FB27
:10537000001161600021A1632168A1600A46D4E99F
:105380000F01401E00FB0121E16021464FF0FF307C
:1053900001F8440F487004F110008DB1FFF76AFD69
:1053A00004F12400FFF766FDFFF7B6FD012070BD94
:1053B000502080F31188BFF34F8FBFF36F8FFEE74C
:1053C00021690029F0D000F001FB0028ECD004494D
:1053D0004FF080500860BFF34F8FBFF36F8FE3E74C
:1053E00004ED00E02DE9FF4782B01D468A464FF0EC
:1053F0000008040003D0BAF1000F08D011E05020DB
:1054000080F31188BFF34F8FBFF36F8FFEE7206CDF
:1054100038B1502080F31188BFF34F8FBFF36F8FE7
:10542000FEE7022D0AD1E06B012807D0502080F35F
:105430001188BFF34F8FBFF36F8FFEE700F00EFAB6
:105440003F4F4FF000094FF0805648B9049838B1EB
:10545000502080F31188BFF34F8FBFF36F8FFEE7AB
:10546000FFF73AFDA06BE16B884207D3022D05D010
:105470000498D0B1B8F1000F1AD01EE02A46514668
:105480002046FFF768F9616A19B104F1240000F0C1
:105490009DFA20B13E60BFF34F8FBFF36F8FFFF7D0
:1054A0003BFD012006B0BDE8F087FFF735FD22E0A7
:1054B0006846FFF70BFE4FF00108FFF72DFDFFF7E1
:1054C0008BFEFFF709FD94F94400401C01D184F8DC
:1054D000449094F94500401C01D184F84590FFF7B1
:1054E0001BFD04A9684600F027F930B12046FFF7FC
:1054F000C9FB00F0A3FA0020D4E7FFF7EDFCA06B96
:10550000E16B884213D1FFF707FD04F11000049905
:10551000FFF7EAFD2046FFF7B5FB00F08FFA002801
:105520009ED13E60BFF34F8FBFF36F8F98E7FFF7B9
:10553000F3FC2046FFF7A6FB00F080FA90E700009E
:1055400004ED00E02DE9F0471F469046894604002F
:1055500003D0B9F1000F08D011E0502080F311887A
:10556000BFF34F8FBFF36F8FFEE7206C38B1502031
:1055700080F31188BFF34F8FBFF36F8FFEE7022FC9
:105580000AD1E06B012807D0502080F31188BFF3C7
:105590004F8FBFF36F8FFEE7FFF712FD5020EFF341
:1055A000118680F31188BFF34F8FBFF36F8FA06B0D
:1055B000E16B884206D3022F04D0002086F31188C5
:1055C000BDE8F08794F945503A4649462046FFF732
:1055D000C2F8681C04D06D1C84F845500120EDE72A
:1055E000606A0028FAD004F1240000F0EFF90028E6
:1055F000F4D0B8F1000FF1D00121C8F80010EDE7A8
:105600002DE9F747002683B08A46040003D0BAF19B
:10561000000F08D011E0502080F31188BFF34F8FA6
:10562000BFF36F8FFEE7206C38B1502080F31188F4
:10563000BFF34F8FBFF36F8FFEE700F00FF9DFF876
:10564000F4804FF000094FF0805748B9059838B101
:10565000502080F31188BFF34F8FBFF36F8FFEE7A9
:10566000FFF73AFCA56BC5B151462046FFF760F83D
:105670006D1EA563206950B104F1100000F0A6F979
:1056800028B1C8F80070BFF34F8FBFF36F8FFFF7DB
:1056900043FC012006B0BDE8F087059808B11EB1B3
:1056A00006E0FFF739FC27E06846FFF70FFD01260B
:1056B000FFF732FCFFF790FDFFF70EFC94F9440072
:1056C000401C01D184F8449094F94500401C01D15C
:1056D00084F84590FFF720FC05A9684600F02CF8F7
:1056E000002820460AD0FFF7CDFA00F0A7F920469F
:1056F000FFF77AF90028B3D00020CBE7FFF774F961
:1057000090B104F124000599FFF7EEFC2046FFF765
:10571000B9FA00F093F90028A2D1C8F80070BFF3DD
:105720004F8FBFF36F8F9BE72046FFF7ABFA00F078
:1057300085F995E704ED00E02DE9F0410C46050000
:1057400011D0C4B1FFF7C8FB174B5A696E682068C7
:10575000911B471C17D02F689B6A9F4219D0964215
:1057600017D8012410E0502080F31188BFF34F8F29
:10577000BFF36F8FFEE7502080F31188BFF34F8F88
:10578000BFF36F8FFEE70024FFF7C6FB2046BDE89E
:10579000F081884205D9401A20602846FFF796FC20
:1057A000F1E700202060DCE7200000202DE9FF5F0A
:1057B0008346DDE90E87994616468A469000FFF734
:1057C00097FA05001CD05C20FFF792FA040014D071
:1057D0000020256384F85900CDE90240CDE9008717
:1057E0004B46324651465846FFF76DF82046FEF7C5
:1057F0000BFF012004B0BDE8F09F2846FFF7A0FB97
:105800004FF0FF30F6E7F0B585B0DDE90B640A9D97
:10581000A6B1DCB15C2700972663022684F85960A4
:10582000002604AFCDE90246CDE90057FFF74BF85B
:105830002046FEF7E9FE049805B0F0BD502080F345
:105840001188BFF34F8FBFF36F8FFEE7502080F3B7
:105850001188BFF34F8FBFF36F8FFEE70548C16913
:1058600019B1806B18B100207047012070470220E9
:105870007047000020000020014840697047000088
:10588000200000202DE9F0412E4C0027A06B40B1F4
:10589000206A401C2062606A00B101273846BDE8DA
:1058A000F0816669761C666113D16068006838B162
:1058B000502080F31188BFF34F8FBFF36F8FFEE747
:1058C0006068A1686160A060A06A401CA062FFF7E8
:1058D00059F9206BDFF87080864209D36068006850
:1058E00080B16068C068C568686886420DD2206370
:1058F0002068C06A00EB800158F821000128CAD94D
:105900000127C8E74FF0FF30F1E7281DFFF788FABD
:10591000A86A18B105F11800FFF782FAE86AA169D0
:10592000884200D9A06100EB800108EB8100291DAD
:10593000FFF7C6FAE86A2168C96A8842CED3012710
:10594000CCE70000200000204C03002070B50400CC
:105950004FF0000133D01B4D2868844207D05020FF
:1059600080F31188BFF34F8FBFF36F8FFEE7206D79
:1059700038B1401E2065E36CE26A9A421FD040B104
:105980001DE0502080F31188BFF34F8FBFF36F8F5E
:10599000FEE7201DFFF744FAE06CE062C0F138003A
:1059A000A061E06AA969884200D9A861064900EBB4
:1059B000800001EB8000211DFFF782FA01210846DB
:1059C00070BD0000200000204C03002070B5C068AE
:1059D000C46854B104F118000646FFF721FA144DCB
:1059E000A86B50B13146134815E0502080F3118860
:1059F000BFF34F8FBFF36F8FFEE7201DFFF710FA45
:105A0000E06AA969884200D9A8610B4900EB8000CF
:105A100001EB8000211DFFF753FAE06A2968C96A8B
:105A2000884202D90120686270BD002070BD00006C
:105A300020000020D40700204C0300202DE9F0476F
:105A40002C4D00242746A86B38B1FFF745FAA86B08
:105A5000401EA863A86B40B146E0502080F3118837
:105A6000BFF34F8FBFF36F8FFEE72969224E0120EE
:105A7000D1B3A6F5916980463068E0B1F068C4689A
:105A800004F11800FFF7CCF9201DFFF7C9F9E06A0F
:105A9000A969884200D9A86100EB800109EB810067
:105AA000211DFFF70DFAE06A2968C96A8842E3D32D
:105AB000C5F82480E0E70CB1FFF764F82C6A4CB11C
:105AC0004FEA0806FFF7DEFE00B16E62641EF9D1F0
:105AD00000202862686A38B1084901273807086041
