:020000040800F2
:1000000068FC0020E1010008D72F00088B240008BD
:10001000D52F00082B0600080D3600080000000050
:10002000000000000000000000000000490100087E
:1000300039060008000000008D0100087930000832
:10004000FB010008FB010008FB010008FB010008A0
:10005000FB010008FB010008FB010008FB01000890
:10006000FB010008FB010008FB010008FB01000880
:10007000FB0100082D060008FB010008FB01000839
:10008000FB010008FB010008FB010008FB01000860
:10009000FB010008FB010008FB010008FB01000850
:1000A000FB010008FB010008FB010008FB01000840
:1000B000FB01000801310008FB010008FB010008FA
:1000C000FB010008FB010008FB010008FB01000820
:1000D000FB010008FB010008FB01000801360008D5
:1000E000FB010008FB010008FB010008FB01000800
:1000F000FB010008FB010008FB010008FB010008F0
:10010000FB010008FB010008FB010008FB010008DF
:10011000FB010008FB010008FB0100080D3100088D
:10012000FB010008FB010008FB010008FB010008BF
:10013000DFF810D000F03CFA00480047D123020855
:10014000AFF3008068FC0020224B19680868B0E813
:10015000F00F80F30988BFF36F8F4FF0000080F33A
:1001600011884EF00D0E7047000000000648006830
:10017000006880F3088862B661B6BFF34F8FBFF3A3
:100180006F8F00DF00BF00BF08ED00E0EFF30980D4
:10019000BFF36F8F0F4B1A6820E9F00F106008B59E
:1001A0004FF0500080F31188BFF34F8FBFF36F8F74
:1001B00027F03CFA4FF0000080F31188BDE80840BA
:1001C00019680868B0E8F00F80F30988BFF36F8FF3
:1001D000704700BF20000020EFF30580704700004B
:1001E0000648804706480047FEE7FEE7FEE7FEE7D1
:1001F000FEE7FEE7FEE7FEE7FEE7FEE7FD3000086C
:10020000310100082DE9F05F0546002092469B462B
:1002100088460646814640241BE02846414647461C
:10022000224600F020F853465A46C01A914110D396
:1002300011461846224600F074F92D1A67EB0108A2
:100240004F4622460120002100F06BF917EB000910
:100250004E41201EA4F10104DFDC484631462A4607
:100260004346BDE8F09F202A04DB203A21FA02F041
:100270000021704721FA02F3D040C2F120029140E0
:1002800008431946704710B5431A934209D28318A0
:10029000881803E010F8011D03F8011D521EF9D261
:1002A00010BD40EA01039B0703D009E008C9121FF3
:1002B00008C0042AFAD203E011F8013B00F8013B20
:1002C000521EF9D210BDD2B201E000F8012B491E36
:1002D000FBD270470022F6E710B513460A460446E3
:1002E0001946FFF7F0FF204610BD421C10F8011B15
:1002F0000029FBD1801A704710B5002200E0521C83
:10030000835C8C5CA34201D1002BF8D1D8B2E1B25E
:10031000401A10BD034611F8012B00F8012B002AEA
:10032000F9D118467047F0B480EA0102D40F4200B8
:10033000B2EB410F02D20246084611464A0042D0B3
:10034000C30DDDB2C1F3C752AD1A202D35DAC1F3AA
:10035000160141F4000204B15242C5F1200602FA2E
:1003600006F12A411044B3EBD05F23D0C4B1012D74
:10037000A0EBC35009DCF0BC4FF0004202EAC352CC
:10038000DBB200F5000000F0E4B8400000F180703E
:1003900000EBC350A0F1807040EAD170490009E041
:1003A000490841EAC071A0EBC35000F500004008C5
:1003B00000EBC350F0BC00F0C3B86142012202EB75
:1003C0004101001BF6E7F0BC704781F00041AAE74D
:1003D00080F00040A7E780EA010210B502F0004378
:1003E000400022D04A001FD0010E01EB1261C0F381
:1003F0005600C2F3560240F4000042F40002A0FB93
:10040000022000047F39140400D0401C50EA12403E
:1004100001D44000491EC2B20C0604EBD010401CAF
:100420004008802A02D003E0002010BD20F0010027
:10043000002900DA0020184310BD30B480EA010220
:1004400002F0004530F0004221F0004013D090B19E
:10045000C30DD40DC2F31601C0F31600E41A41F423
:10046000000140F400027D34914201D3641C00E09D
:100470004900002C02DA30BC002070474FF4000025
:100480000023914201D3891A034340084FEA4101F6
:10049000F7D151B1914202D14FF0004105E002D2B3
:1004A0004FF0010101E06FF0010103EBC45028445B
:1004B00030BC00F045B8C10F80EAE0700844CA07BC
:1004C0009623002100F045B800F0004220F00040E3
:1004D000C10DC0F3160040F400007F2901DA0020AE
:1004E0007047962903DCC1F19601C84001E09639B6
:1004F0008840002AF4D04042704720F00040C10DEF
:10050000C0F3160040F400007F2901DA0020704794
:10051000962903DCC1F19601C8407047963988409E
:100520007047202A04DB203A00FA02F100207047CD
:100530009140C2F1200320FA03F319439040704721
:100540000029A8BF7047401C490008BF20F00100E7
:10055000704710B4B0FA80FC00FA0CF050EA0104C5
:1005600004BF10BC704749B1CCF1200421FA04F457
:1005700011FA0CF118BF012121430843A3EB0C0130
:10058000CB1D4FEA00614FEA102042BF002010BC93
:10059000704700EBC35010440029A4BF10BC704743
:1005A000401C490008BF20F0010010BC704700004B
:1005B000064C074D06E0E06840F0010394E80700B0
:1005C00098471034AC42F6D3FFF7B6FD8005040817
:1005D000A005040870B58C1810F8015B15F007032E
:1005E00001D110F8013B2A1106D110F8012B03E0CC
:1005F00010F8016B01F8016B5B1EF9D12B0705D4D4
:100600000023521E0DD401F8013BFAE710F8013B1C
:10061000CB1A921C03E013F8015B01F8015B521E38
:10062000F9D5A142D8D3002070BDFEE7014800F003
:1006300099BA000068040020704700004FF47A74F3
:1006400003A003F0FFFB204600F0EEFBF8E70000FC
:10065000696E4572726F725F48616E646C6572009C
:100660002DE9F041164F14460D4606460022102192
:10067000384600F058FD0A2026F092FD032002F0D3
:10068000ABFCC5F3074002F0A7FCC5F3072002F05E
:10069000A3FCE8B202F0A0FC04E0552002F09CFCB0
:1006A00006F8010B641EA4B2F7D2012210213846CD
:1006B00000F039FDBDE8F0410A2026F071BD0000D0
:1006C000000801402DE9F04707460E4611F0FF00F3
:1006D000C0F10001CDB24FEA122402F0FF094FF43D
:1006E000807A13D0F0B24042C0B206EB00080CB3DF
:1006F000501B80B2040A00F0FF092A4631463846F2
:1007000000F03EF83D44464657462AE06CB1554657
:10071000641EE4B20CD32A463146384600F030F865
:1007200006F5807607F58077F2E73146384621E016
:100730004A46FAE7A945F8D9A9EB0500C4B22A460A
:100740003146384600F01CF841467819224611E03F
:100750003A463146284600F013F805F5807506F54F
:100760008076641EE4B2F3D2B9F1000006D00246EE
:1007700031462846BDE8F04700F002B8BDE8F087F2
:100780002DE9F04114460D46064600F0EFF8174FEC
:1007900000221021384600F0C6FC0A2026F000FD99
:1007A000022002F019FCC5F3074002F015FCC5F366
:1007B000072002F011FCE8B202F00EFCB4F5807FD5
:1007C00004D9FF24307802F007FC761C641EA4B222
:1007D000F8D201221021384600F0A5FC0A2026F0AC
:1007E000DFFCBDE8F04100F02FB800000008014038
:1007F00070B5044600F0BAF800F026F8114D00225A
:100800001021284600F08FFC0A2026F0C9FC202089
:1008100002F0E2FBC4F3074002F0DEFBC4F3072062
:1008200002F0DAFBE0B202F0D7FB012210212846E9
:1008300000F079FC0A2026F0B3FCBDE8704000F01F
:1008400003B800000008014010B50D4C0022102133
:10085000204600F068FC0A2026F0A2FC052002F0E9
:10086000BBFB552002F0B8FBC007FAD101221021D2
:10087000204600F058FCBDE810400A2026F090BC4D
:100880000008014030B5B3F5804F05D06FF07041DE
:1008900040F82210002030BD8C690B688D6823431E
:1008A0004C688989240144EA0524234343EA014131
:1008B00050F82230014C23401943E9E70000F0CF03
:1008C00010B50A6850F8223023F0010340F82230B6
:1008D0008C68082C23D000234A682243CC681C4330
:1008E0000B6922431A434B690E4C1A43CB691A43D6
:1008F0000B6A1A434B6A1A438B6A1A43CB6A1A4330
:100900000B6B1A438B6913434A6B09681A4350F8FF
:100910002130A343134340F82130002010BD402371
:10092000DAE700007FFF0F0030B5D1E9003443EA79
:1009300004138C688D89240244EA054423430C8AFD
:10094000094D00EB820005EB045423430C7D6D013F
:1009500005EB0464896923430B43416801F040417E
:100960000B434360002030BD0000F0FF10B50B4C7E
:1009700000221021204600F0D6FB0A2026F010FCB1
:10098000062002F029FB01221021204600F0CBFBBB
:10099000BDE810400A2026F003BC0000000801401A
:1009A00010B51FF0A1F81CF02AFE04461FF09CF8B9
:1009B0001BF033FD0949B4F5A07F01DC084805E0D0
:1009C000B4F5F07F01DC074800E00748086023F039
:1009D0005FFEBDE8104023F079BE0000C002002099
:1009E000A0D90208EC2303085087030810B590F83B
:1009F00021100022022905D00421816380F82020E3
:100A0000012010BD01680B6823F00E030B60016824
:100A10000B6823F001030B6090F84030C46B012198
:100A200001FA03F3636080F8211080F8202010465B
:100A300010BD00002DE9F05F90F82110002402297C
:100A400003D004218163012485E001680A6822F053
:100A50000E020A6001680A6822F001020A603F4E35
:100A60003E4FB215DFF8F4C0DFF8F090DFF8ECA0ED
:100A7000DFF8E8B0DFF8E4E00168783F1301150221
:100A8000ACF1640CA9F15009AAF13C0AABF1280BB6
:100A9000AEF1140E4FF48018B14227D9B9420ED0EE
:100AA000614512D049451DD0514518D0594518D03F
:100AB000714501D1424615E0294EB14201D10122D2
:100AC00010E0274E1436B14201D110220AE0244E24
:100AD0002836B14206D0224A3C32914201D11A4610
:100AE00000E02A461E49091F0A602BE0B94213D0D4
:100AF000614517D0494522D051451DD059451DD0DB
:100B0000714501D142461AE0B14202D14FF08072E4
:100B100015E0134EB14201D1012210E0104E1436FF
:100B2000B14201D110220AE00D4E2836B14206D062
:100B30000B4A3C32914201D11A4600E02A4607494D
:100B400080394A60012180F82110002180F82010AE
:100B5000416B01B188472046BDE8F09F800002400C
:100B6000080402402DE9F05FC16B0A6801680B6858
:100B7000046C4FF0040808FA04F8844D844E854F45
:100B8000DFF814C2DFF81492DFF814A2DFF814B211
:100B9000DFF814E218EA020F65D05FEA437862D505
:100BA0000A68920603D40A6822F004020A60DFF899
:100BB000F0814FF48062016808F1140813011402F7
:100BC000414524D9A9420DD0B1420FD0B9421AD023
:100BD000614515D0494515D0514501D1120312E0A8
:100BE000594501D104220EE0714501D140220AE0AD
:100BF0006D4D1435A94206D06B4A2832914201D17D
:100C00001A4600E022466749091F0A6029E0A94206
:100C100013D0B14215D0B94220D061451BD049450F
:100C20001BD0514502D14FF4800217E0414502D15B
:100C30004FF0806212E0594501D104220EE0714567
:100C400001D140220AE0584D1435A94206D0564A37
:100C50002832914201D11A4600E022464B49083918
:100C60004A60C16A71E04FF0020808FA04F818EA15
:100C7000020F70D05FEA83786DD50A68920606D4B9
:100C80000A6822F00A020A60012180F82110DFF8C8
:100C900010814FF40072016808F114081301140266
:100CA000414524D9A9420DD0B1420FD0B9421AD042
:100CB000614515D0494515D0514501D1120312E0C7
:100CC000594501D102220EE0714501D120220AE0EE
:100CD000354D1435A94206D0334A2832914201D10C
:100CE0001A4600E022462F49091F0A6029E0A9425E
:100CF00013D0B14215D0B94220D061451BD049452F
:100D00001BD0514502D14FF4001217E0414502D1EA
:100D10004FF0007212E0594501D102220EE07145F8
:100D200001D120220AE0204D1435A94206D01E4AE6
:100D30002832914201D11A4600E02246134908396F
:100D40004A60002180F82010816A00291CD0BDE88B
:100D5000F05F0847FFE70825A540154214D01A07A1
:100D600012D50A6822F00E020A6090F84020C36B88
:100D7000012101FA02F25A60816380F821100021FA
:100D800080F82010016BE0E7BDE8F09F080002400A
:100D90001C00024030000240440002405800024063
:100DA0006C000240080402401C04024030B560B1EF
:100DB0001A4B026814219A4209D2194B1344B3FB0F
:100DC000F1F18900016417490AE0012030BD134B9D
:100DD0005B421344B3FBF1F1890001640F49083908
:100DE000C163022180F82110136843F6F0718B4330
:100DF000F0E901142143D0E902452C432143046961
:100E0000214344692143846921431943116000212E
:100E10004163012242770177084630BD0804024051
:100E2000F8FFFDBF0000024070B5044600F080F9F5
:100E30000546601C02D004480078044400F078F9AC
:100E4000401BA042FAD370BD1000002030B52C48E2
:100E500085B00025416941F480714161416901F427
:100E600080710491816941F010018161816901F013
:100E700010010491816941F020018161816901F0D3
:100E800020010491816941F040018161816901F093
:100E900040010491816941F080018161816901F023
:100EA00080010491816941F480718161806903242A
:100EB00000F4807004900120CDE902040190C0028A
:100EC000009069460F4800F025F802200394CDE910
:100ED0000105C002009069460B4800F01BF84CF277
:100EE000337000906946094800F014F84FF684709A
:100EF00000906946064800F00DF805B030BD0000CE
:100F000000100240001C014000200140001401407C
:100F1000001801402DE9F84FDFF8C8910024A9F12D
:100F2000040B23460F2709F1040AABF1040ED1E0AC
:100F30000125A54006EA0502AA4276D1DFF8A8C13C
:100F40004E68A6EB0C0866452BD00DDC032E34D082
:100F500005DC36B3012E19D0022E2FD11BE0112E45
:100F600016D0122E2AD119E0B8F5881F19D006DC48
:100F7000B8F5803F15D0B8F5801F1FD111E0B8F546
:100F8000001F0ED0B8F5041F18D10AE0CB6815E099
:100F9000CB681B1D12E0CB6808330FE0CB680C3325
:100FA0000CE08B682BB1012B4FF0080303D0456197
:100FB00004E0042302E0056100E00023FF2A01D8D9
:100FC000064601E000F104064FEA840501D9A5F1C7
:100FD0002005D6F8008007FA05FC28EA0C0803FA79
:100FE00005F548EA0508C6F800804D68ED0070D5A3
:100FF0003E4DAE6946F00106AE61AD6924F00306D0
:1010000005F0010500953A4D06EB050CDCF808509B
:10101000A607360F07FA06F825EA0805DFF8D48098
:10102000404503D14FF0000825E052E0DFF8C880CA
:10103000404502D14FF001081DE0DFF8C080404577
:1010400002D14FF0020816E0DFF8B480404502D12B
:101050004FF003080FE0DFF8AC80404502D14FF0BD
:10106000040808E0DFF8A080404502D14FF00508F1
:1010700001E04FF0060808FA06F848EA0508CCF83F
:1010800008804D68D9F80060ED024D4601D5164341
:1010900000E096432E604D68DAF80060AD025546D8
:1010A00001D5164300E096432E604D68DBF80060E2
:1010B000AD035D4601D5164300E096432E604D68B2
:1010C000DEF80060ED03754601D5164300E0964357
:1010D0002E60641C0A681646E2407FF429AFBDE822
:1010E000F88F0000080401400000111000100240B9
:1010F0000000014000080140000C014000100140C8
:101100000014014000180140001C014080680840A4
:1011100000D001207047C26821EA02030A4043EA76
:101120000241016170470AB1016170470904FBE7A0
:101130000148806870470000100000200248816864
:10114000027811448160704710000020074810B5F4
:10115000016841F010010160032000F0A7F80F20A2
:1011600000F006F800F050F8002010BD002002400A
:1011700030B505461F4887B0C16941F02001C16103
:10118000C06906A900F02000009001A800F036F91F
:101190000498B0B100F052F940001749174AB0FB6B
:1011A000F1F11748491E0260416040F2E732002128
:1011B000C0E903218160816100F08AFB040003D053
:1011C00015E000F03BF9E8E70D4800F009FC0400E9
:1011D0000DD1372000F03CF8102D07D2002229460F
:1011E000372000F043F80748056000E0012407B00D
:1011F000204630BD0010024040420F000014004065
:10120000AC040020140000200F4808B5816941F0AB
:1012100001018161816901F001010091C16941F021
:101220008051C161C069002200F0805000900F2100
:10123000901E00F01BF80548416821F0E06141F084
:101240000071416008BD0000001002400000014034
:10125000002809DB00F01F020121914040098000B5
:1012600000F1E020C0F8001170470000F0B40E4B10
:101270001B680C46C3F30223C3F10705042D00D9F4
:101280000425191D072901D2002300E0DB1E0126D9
:1012900006FA05F1491E214099409E40761E1640EF
:1012A0003143F0BC02F0D6BD0CED00E0064900F081
:1012B000070208684FF6FF03184040EA0220034A7D
:1012C00010430860704700000CED00E00000FA05D4
:1012D0002DE9F0470F46050061D0434E306800F01D
:1012E0000700B84209D2306820F007003843306068
:1012F000306800F00700B84251D128683B4C8107A4
:1013000012D5400703D5606840F4E060606028783B
:10131000000703D5606840F4605060606068A968A9
:1013200020F0F000084360602878C00728D0686883
:10133000012810D02168022810D0890700292EDA50
:10134000616821F0030101436160FFF7F1FE80460F
:1013500041F288390DE021688903EFE78901EDE763
:10136000FFF7E6FEA0EB0801494502D90320BDE8DE
:10137000F0876068696800F00C00B0EB810FEFD176
:10138000306800F00700B8420BD9306820F0070041
:1013900038433060306800F00700B84201D00120C7
:1013A000E5E72878400705D56068E96820F4E06043
:1013B000084360602878000706D56068296920F432
:1013C000605040EAC100606000F058F86168084A67
:1013D000C1F30311515CC840064908600648006823
:1013E000FFF7C6FE0020C2E70020024000100240C6
:1013F0007E8402081C000020140000200F220260DE
:101400000C4A536803F003034360536803F0F0038E
:101410008360536803F4E063C36052684FF4E06391
:1014200003EAD20202610448006800F00700086085
:1014300070470000001002400020024004480549A7
:1014400000684968044AC1F30221515CC8407047F2
:101450001C000020001002408E8402080448054948
:1014600000684968044AC1F3C221515CC840704712
:101470001C000020001002408E8402080E4A5168B1
:101480000E4801F00C03042B11D0082B0FD10C488F
:10149000C1F38343C903C05C0AD55168084AC1F34C
:1014A0004041921E515C054A5043B0FBF1F0704739
:1014B00004494843704700000010024000127A00BF
:1014C0006E84020800093D002DE9F84F040070D039
:1014D0002078C04DC00749D06868C0F3810001285A
:1014E00007D06868C0F38100022809D16868C0038A
:1014F00006D52868800339D560680028E7D035E034
:101500006068B0F5803F0BD010B1B0F5A02F11D0BE
:10151000286820F480302860286820F4802002E0C9
:10152000286840F480302860606890B1FFF700FEC2
:1015300006460AE0286840F480202860F0E700BFF3
:10154000FFF7F6FD801B642873D828688003F7D561
:101550000CE0FFF7EDFD064605E000BFFFF7E8FDF4
:10156000801B6428F0D828688003F7D420789A4E2E
:1015700080074FF001094FF0000839D5686810F076
:101580000C0F07D06868C0F38100022809D1686891
:10159000C00306D42868800714D52069012808D123
:1015A00010E02069B0B1C6F80090FFF7C1FD074612
:1015B00005E00AE1FFF7BCFDC01B0228C4D828687B
:1015C0008007F7D52868616920F0F80040EAC1007B
:1015D00028600DE0C6F80080FFF7AAFD074604E08A
:1015E000FFF7A6FDC01B022823D828688007F7D480
:1015F000207800072CD57948A169D9B1C0F80090AE
:10160000FFF796FD074604E0FFF792FDC01B022896
:101610000FD8686A8007F7D571484FF4FA5100680F
:10162000B0FBF1F0009000BF0098411E0091FAD28B
:101630000EE080E0C0F80080FFF77AFD074604E086
:10164000FFF776FDC01B022875D8686A8007F7D4BB
:101650002078400760D5E8690027C00008D4E86911
:1016600040F08050E861E869012700F08050009068
:101670005C480168C90513D40168834641F4807150
:101680000160FFF755FD824606E000BFFFF750FD01
:10169000A0EB0A0064284ED8DBF80000C005F5D5A1
:1016A000E06801280AD008B1052813D0286A20F084
:1016B00001002862286A20F0040002E0286A40F055
:1016C00001002862E06841F2883B98B1FFF730FDE5
:1016D00082460BE0286A40F004002862EEE700BF73
:1016E000FFF726FDA0EB0A0159455AD8286A800762
:1016F000F6D50CE0FFF71CFD824605E0FFF718FD6C
:10170000A0EB0A0159454CD8286A8007F6D41FB1CE
:10171000E86920F08050E861E06988B36968C1F346
:101720008101022944D00228C6F8608004D0FFF766
:10173000FFFC044638E034E0FFF7FAFC074604E01B
:10174000FFF7F6FCC01B02282BD828688001F7D4CD
:10175000206AB0F5803F05D16868A16820F40030A8
:1017600008436860D4E908010843696821F47411EA
:1017700008436860C6F86090FFF7DAFC044606E0AC
:1017800025E000BFFFF7D4FC001B022809D8286819
:101790008001F7D51BE000BFFFF7CAFC001B022841
:1017A00002D90320BDE8F88F28688001F4D40EE048
:1017B0000128F7D06868226A00F48031914204D190
:1017C000616A00F47010884201D00120EAE700202D
:1017D000E8E700000010024000004242800442425C
:1017E0001C0000200070004070B515460E46040035
:1017F00007D0A069B0F5807F03D094F8410010B104
:1018000007E0012070BD002084F84000204600F071
:101810001DF804F108012068FFF752F83146A2686C
:101820002068FFF781F8D4E901022946236BFFF70E
:1018300029F8A168206850F8212042F0010240F800
:101840002120012084F84100002070BDFFF7FEBA7E
:101850007047704770B590F83C20012A2CD00124C5
:1018600080F83C40022280F83D2003685A689D6859
:1018700022F070060A6832435A60104B02689A429E
:101880000ED00F4B9A420BD0B2F1804F08D00D4BC7
:101890009A4205D00C4B9A4202D00C4B9A4204D18A
:1018A000496825F080031943916080F83D4000218C
:1018B00080F83C10084670BD022070BD002C01402D
:1018C000003401400004004000080040000C0040CB
:1018D00010B5040003D094F83D0010B107E00120DA
:1018E00010BD002084F83C00204600F01FF80220C4
:1018F00084F83D00211D206801F00EFC012084F8D1
:10190000460084F83E0084F83F0084F8400084F8E4
:10191000410084F8420084F8430084F8440084F8CD
:10192000450084F83D00002010BD000008B50168A6
:101930001048B1F1804F14D00F4A914219D1C169BA
:1019400041F00201C161C069002200F00200009074
:1019500005211D20FFF78AFCBDE808401D20FFF788
:1019600077BCC16941F00101C161C06900F00100AB
:10197000009008BD001002400004004090F83D10A7
:10198000012901D001207047022180F83D10006834
:101990000E4988420ED00E4988420BD0B0F1804FDC
:1019A00008D00C49884205D00B49884202D00B4927
:1019B000884204D1816801F00701062903D001683B
:1019C00041F001010160002070470000002C01403F
:1019D000003401400004004000080040000C0040BA
:1019E00090F83D10012901D001207047022180F8B4
:1019F0003D100168CA6842F00102CA6000680E49E1
:101A000088420ED00D4988420BD0B0F1804F08D0EB
:101A10000B49884205D00B49884202D00A498842C6
:101A200004D1816801F00701062903D0016841F063
:101A30000101016000207047002C0140003401408A
:101A40000004004000080040000C004001680A6AE1
:101A500041F211131A4207D10A6A9B101A4203D1AC
:101A60000A6822F001020A60012180F83D1000207E
:101A7000704770B5044690F83C000025012817D047
:101A8000012684F83C60022084F83D0020688268CA
:101A900022F0770222F47F4282600868502838D012
:101AA0000DDC20284FD005DC90B3102811D14AE07E
:101AB000022070BD302846D040280AD13BE0602883
:101AC0002FD070280DD0B0F5805F03D0B0F5005F47
:101AD00012D0012584F83D60002084F83C0028469F
:101AE00070BDCB68D1E90121206801F068FB206856
:101AF000816841F0770109E0CB68D1E901212068D4
:101B000001F05DFB2068816841F480418160E1E77C
:101B100019E0CA684968206801F026FC5021206855
:101B200006E0CA684968206801F02FFC602120683F
:101B300001F04FFBCEE7CA684968206801F014FC49
:101B400040212068F4E7226801461046F0E770471C
:101B500070B50446006801694FF00005C943890764
:101B600015D4C168C943890711D4E91E0161012058
:101B70002077206880698007204602D0FFF7E7FFC2
:101B800004E000F0C9F8204600F05CF925772068F1
:101B90000169C943490717D4C168C943490713D428
:101BA0006FF004010161022020772068806910F441
:101BB000407F204602D0FFF7CAFF04E000F0ACF8F7
:101BC000204600F03FF9257720680169C9430907DD
:101BD00016D4C168C943090712D46FF00801016126
:101BE000042020772068C0698007204602D0FFF7D4
:101BF000AEFF04E000F090F8204600F023F92577CE
:101C000020680169C943C90617D4C168C943C90618
:101C100013D46FF010010161082020772068C0699B
:101C200010F4407F204602D0FFF791FF04E000F05F
:101C300073F8204600F006F9257720680169C9434A
:101C4000C90708D1C168C943C90704D1891E016108
:101C5000204600F0D5F920680169C943090609D476
:101C6000C168C943090605D46FF0800101612046AF
:101C7000FFF7EEFD20680169C943490609D4C16830
:101C8000C943490605D46FF040010161204600F0C8
:101C9000C1F920680169C94389060BD4C168C943E9
:101CA000890607D46FF0200101612046BDE870402D
:101CB000FFF7CFBD70BD000000B585B000210091D9
:101CC00001910291039100680F4988421AD10F488F
:101CD000816941F0100181618069694600F010005E
:101CE0000490402000900220019003900848FFF7E4
:101CF00011F90848416821F4406141F0E06141F484
:101D00004061416005B000BD000400400010024089
:101D10000010014000000140704770B5044690F883
:101D20003C0000260D4601280FD0012084F83C001D
:101D30006AB1042A1DD0082A2FD00C2A3FD00126D0
:101D4000002084F83C00304670BD022070BD206841
:101D500001F048FA2068816941F00801816120683A
:101D6000816921F004018161206881692A69114338
:101D700011E0206801F066FA2068816941F4006191
:101D800081612068816921F48061816120688169B5
:101D90002A6941EA02218161D2E7206801F088FACC
:101DA0002068C16941F00801C1612068C16921F062
:101DB0000401C1612068C1692A69114311E02068EA
:101DC00001F0AAFA2068C16941F40061C16120688C
:101DD000C16921F48061C1612068C1692A6941EA51
:101DE0000221C161ACE710B5040003D094F83D00B6
:101DF00010B107E0012010BD002084F83C0020460F
:101E000000F01EF8022084F83D00211D206801F03A
:101E100083F9012084F8460084F83E0084F83F00EE
:101E200084F8400084F8410084F8420084F84300BC
:101E300084F8440084F8450084F83D00002010BD7B
:101E40007047000000680449884204D104490348EF
:101E5000096800784863704700040040980000203B
:101E60009003002030B500250446022249B1042920
:101E700012D0082946D094F8410001284DD0012005
:101E800030BD94F83E000128F9D184F83E20206846
:101E9000C26842F0020209E094F83F000128EED146
:101EA00084F83F202068C26842F00402C260012228
:101EB000206801F077F91E4920681E4A884201D047
:101EC000904203D1436C43F400434364206888424A
:101ED0000DD090420BD0B0F1804F08D01649884207
:101EE00005D01649884202D01549884204D181683C
:101EF00001F00701062903D0016841F001010160EA
:101F0000284630BD94F840000128B8D184F840201C
:101F10002068C26842F00802C8E784F841200C2912
:101F200001D00125ECE72068C26842F01002BDE74D
:101F3000002C014000340140000400400008004033
:101F4000000C004070B50D0004464FF0000607D0AD
:101F5000042D0AD0082D0DD00C2D10D001263FE005
:101F60002068C16821F002010DE02068C16821F0FD
:101F7000040108E02068C16821F0080103E020683E
:101F8000C16821F01001C16000222946206801F0DB
:101F900009F9194B41F2111120688A10984202D0B8
:101FA000164B984209D1036A0B4206D1036A1342C9
:101FB00003D1436C23F4004343642068036A0B425B
:101FC00006D1016A114203D1016821F001010160CB
:101FD00001203DB1042D08D0082D09D084F841001E
:101FE000304670BD84F83E00FAE784F83F00F7E71A
:101FF00084F84000F4E70000002C01400034014068
:1020000000680349884201D1FFF798B87047000083
:10201000001400407047704770470000F8B5016831
:1020200004460868CA684B6910F00F0F4FF00005AE
:1020300059D003F0010602F49077374365D0C10709
:1020400005D0D10503D5616C41F001016164410700
:1020500005D5D90703D0616C41F0020161648107A5
:1020600005D5D90703D0616C41F004016164010713
:1020700007D502F02001314303D0616C41F0080123
:102080006164616C00293AD0800604D5900602D5BF
:10209000204601F0BBF920684069616CC0F38010F4
:1020A000090700D460B3204601F089F9206840692F
:1020B000400621D52068143050E8001F21F040016F
:1020C00040E80012002AF5D1E06BA8B16D494163E8
:1020D000E06BFEF7AFFC002811D0E06B416B01B064
:1020E000BDE8F040084783060FD593060DD520467E
:1020F000BDE8F84001F08AB92046FFF78DFFF8BD32
:102100002046FFF789FF6564F8BD266B2023012E6A
:102110007CD1C6067AD5D60678D50868486800907E
:1021200048694FF00206400640D5E16B08684068F8
:102130000004000CE8D0A28D8242E5D9E0858869D0
:1021400020282DD020680C3050E8001F21F4807129
:1021500040E80012002AF5D12068143050E8001F32
:1021600021F0010140E80012002AF5D12068143066
:1021700050E8001F21F0400140E80012002AF5D18C
:1021800084F84230256320680C3050E8001F21F0AD
:10219000100140E80012002AF5D1E06BFEF726FCA2
:1021A0006663A08DE18D401A81B22AE0A08DE18D99
:1021B000401A81B2E08D0028A6D00029A4D0226860
:1021C0000C3252E8000F20F4907042E80007002F14
:1021D000F5D12068143050E8002F22F0010240E8C9
:1021E0000027002FF5D184F84230256320680C3099
:1021F00050E8002F22F0100240E80023002BF5D118
:1022000066632046FFF707FFF8BDFFE705062BD5FD
:10221000150629D594F841002128F5D1A068B0F51C
:10222000805F01D12069B0B1206A411C2162216820
:1022300000784860E08C401E0004000CE084E3D18C
:102240002068C16821F08001C1602068C16841F048
:102250004001C160D8E7206A0088C0F308004860E8
:10226000206A801C2062E5E74006CDD55006CBD51C
:10227000CA68204622F04002CA6084F8413000F06B
:1022800003F9C1E7AF33000870B5040004D094F837
:102290004100002510B106E0012070BD84F84050D7
:1022A000204600F023F8242084F841002068C1680B
:1022B00021F40051C160204601F00AF9206801694B
:1022C00021F4904101612068416921F02A014161B6
:1022D0002068C16841F40051C1606564202084F821
:1022E000410084F842006563002070BDF0B585B000
:1022F0000024009401940294039406460368344F2A
:102300000220344903224502BB4221D18B6943F4A8
:1023100080438B618B6903F4804304938B6943F0A2
:1023200004038B6189692C4E01F0040104910102C0
:10233000CDE90010039269463046FEF7EBFDCDE98A
:102340000054694630460294FEF7E4FD05B0F0BD46
:10235000224FBB42FAD1CB6943F48023CB61CB69D6
:1023600003F4802304938B6943F008038B6189692C
:1023700001F00801CDE90321CDE90050184D69466F
:102380002846FEF7C7FDE814CDE900046946284653
:102390000294FEF7BFFD144D1248C5E900048020E9
:1023A000C5E902402C616C61AC612846EC61FEF726
:1023B000FDFC08B1FEF742F9F56300220521272054
:1023C0006E62FEF753FF2720FEF742FFBEE70000D4
:1023D0000038014000100240000801400048004061
:1023E000000C0140300002406804002070472DE9D5
:1023F000F843044690F841001F4616460D46202833
:1024000002D00220BDE8F8837DB176B1002060647F
:10241000212084F84100FEF78BFEA6848046E684E6
:10242000A068B0F5805F02D003E00120EAE72069F0
:1024300010B12E4600250EE000260CE0802120463B
:1024400001F0A2F8A0B9AEB116F8010B21684860FE
:10245000E08C401EE084E08C43464FF00002009781
:102460000028EBD14FF04001204601F08DF830B14B
:102470000320C7E735F8020BC0F30800E6E7202089
:1024800084F841000020BDE77047FEE7002810B542
:1024900007484FF0000102D0FFF7E4FC01E0FFF72E
:1024A00051FD002803D0BDE81040FEF7C7B810BDAD
:1024B0009003002010B500F009F8002000F034FA75
:1024C000BDE810404FF6FF7000F018B910B5E020DD
:1024D00000F080FB002000F083FB072000F080FB71
:1024E000102000F07DFB092000F07AFB172000F09F
:1024F00077FB0B2000F074FB412000F071FB89207A
:1025000000F06EFB4B2000F06BFB0A2000F068FB34
:102510000C2000F065FB0E2000F062FB182000F09C
:102520005FFB1B2000F05CFB0F2000F059FBE1205B
:1025300000F050FB002000F053FB172000F050FB90
:102540001A2000F04DFB042000F04AFB0E2000F0A2
:1025500047FB062000F044FB2F2000F041FB452004
:1025600000F03EFB432000F03BFB022000F038FB74
:102570000A2000F035FB092000F032FB322000F089
:102580002FFB362000F02CFB0F2000F029FBE92068
:1025900000F020FB002000F023FBF22000F01AFBEB
:1025A000582000F01DFB042000F01AFB122000F060
:1025B00017FB022000F014FB222000F011FB422048
:1025C00000F00EFBFF2000F00BFB0A2000F008FBE0
:1025D000902000F005FB142000F002FB882000F0A2
:1025E000FFFAF72000F0F6FAA92000F0F9FA5120DE
:1025F00000F0F6FA2C2000F0F3FA822000F0F0FA56
:10260000F82000F0E7FA212000F0EAFA042000F0B8
:10261000E7FAC02000F0DEFA112000F0E1FA09200C
:1026200000F0DEFAC12000F0D5FA412000F0D8FA1F
:10263000C52000F0CFFA002000F0D2FA0A2000F006
:10264000CFFA802000F0CCFA362000F0C3FAC82080
:1026500000F0C6FA3A2000F0BDFA552000F0C0FAAA
:10266000B02000F0B7FA002000F0BAFAB12000F074
:10267000B1FAB02000F0B4FA112000F0B1FAB420A1
:1026800000F0A8FA022000F0ABFAB62000F0A2FA9F
:10269000022000F0A5FA222000F0A2FAB72000F0F4
:1026A00099FAC62000F09CFABE2000F093FA0020B0
:1026B00000F096FA042000F093FAE92000F08AFA7C
:1026C000002000F08DFA112000F084FA7820FEF747
:1026D000ABFBBDE81040292000F07CBA012801D0F6
:1026E000002801D1FFF7D2BE70470000642800D94E
:1026F000642001490870704798000020F0B50B4E27
:102700000B4F00247588B18838804D432146204600
:1027100000F0A4F9074930890880891C388801E055
:102720000880641CAC42FBD3F0BD0000C82100202F
:102730009A000020FEFFFF6C2DE9F0438146A2EBDA
:102740000900401C0E4685B2981B401C87B200242D
:10275000DDF81C8017E0301981B2484600F07EF9A0
:102760000B480C490089088000208A1C07E000BF44
:1027700004FB050338F813101180401C80B2A842F6
:10278000F6D3641CA4B2BC42E5D3BDE8F0830000DC
:10279000C8210020FEFFFF6C30B504460A3082B22B
:1027A000A4F10A000D4680B20B4600F00BF805F1CB
:1027B0000A000A3D2246A9B2BDE8304083B2104665
:1027C000AFF300802DE9FE4F161ACDE900104FF04F
:1027D00000085D1A47464FF0FF30002E02DD4FF033
:1027E000010102E003D14FF000018B4602E0834675
:1027F000C6F10006002D02DD4FF0010002E003D11A
:102800004FF00000824602E08246C5F10005AE426C
:1028100001DD344600E02C46601C4FF000090290B8
:1028200018E0009881B2019880B200F019F8B04425
:102830002F44A04504DD0198A8EB040858440190FA
:10284000A74203DD00983F1B5044009009F10100AE
:102850001FFA80F902998945E3DDBDE8FE8F00008B
:1028600000B500F0FBF804480449008908800448DA
:10287000891C4088088000BDC8210020FEFFFF6C35
:102880009A00002070B50F4C0F4D63892B80060A0B
:10289000AB1C1E80C0B218806088401E060A1E80D5
:1028A000C0B21880A0892880080A1880C8B2188091
:1028B000A088401E010A1980C0B218802089288093
:1028C0001A8070BDC8210020FEFFFF6C2DE9F04F7B
:1028D0008346A2EB0B00401C1E4685B20C46DFF877
:1028E0003C90DFF83CA00F4F4FF0DA4812E0214651
:1028F000584600F0B3F8B9F80800AAF80000002024
:102900004246398802E01180401C80B2A842FAD3C6
:10291000641CA4B2B442EAD9BDE8F08FC8210020FB
:10292000FEFFFF6C9A00002070B400F0010207283F
:102930001DD810492A2349F288464B812B238B81CD
:102940002C230B810B46C8801B884FF4A0744FF4D6
:10295000F0753AB11AB1B34201D14D808C8070BC90
:1029600000F050B8B342FAD14C808D80F7E770BCCC
:1029700070470000C82100200749D3200880881C28
:102980000188018801884FF6FF72008802EA012160
:102990000843024908807047FEFFFF6CC8210020F1
:1029A00010B55A20FFF7A2FE0120FFF797FE00F0B6
:1029B0000FF8FFF7E1FF05480088A0F514418839BA
:1029C00003D1BDE81040FFF775BD10BDC821002040
:1029D00070B50B4D4FF40064002221462846FEF7E7
:1029E000A2FB40F6FF26304624F0DAFB0122214606
:1029F0002846FEF798FB3046BDE8704024F0D0BB77
:102A0000001C014030B5104A104B51891980002438
:102A1000991C0C800C805488641E250A0D80E4B239
:102A20000C8094891C8000240C800C809288521E9B
:102A3000140A0C80D2B20A80082242EA40103622E0
:102A4000C0B21A80088030BDC8210020FEFFFF6C94
:102A5000014A1080518070479A00002030B50E4B1B
:102A60000E4C5A892280050AA21C1580C0B2108023
:102A70005888401E050A1580C0B2108098892080B1
:102A8000080A1080C8B210809888401E010A118080
:102A9000C0B2108030BD0000C8210020FEFFFF6CD6
:102AA00001494880704700009A0000202DE9FF4F3F
:102AB0001D460C468A46580700D0012000EBD50081
:102AC00069084843203A00F0FF09D0B20026DFF839
:102AD0009CB0029045E00C2D12D0102D15D0182D71
:102AE00041D10298224900EBC00000BF01EB8000F9
:102AF0004FF00008875D38060CD51E4842880DE06F
:102B000002981D4900EB4000F0E71C49029801EBD8
:102B10000010EDE70D9828B9164802882146009864
:102B2000FFF7B0FE7806070E641CBBF80400A4B2E1
:102B3000A04218D9A4EB0A00A84209D10098544633
:102B4000401C80B20090BBF8021081420BD906E015
:102B500008F1010000F0FF08B8F1080FCBD3761C94
:102B6000F6B24E45B7D3BDE8FF8F0000C821002064
:102B7000FA8E02089A000020968402080A89020848
:102B80002DE9F84F044600F0FF0910190D46DDE964
:102B90000AB61FFA80F8581987B24FF0000A12E0FF
:102BA000444503D305EB0B004C4685B2BD420FD222
:102BB0005B4629462046CDF800A0FFF777FF04EBDF
:102BC0005B0084B2761C3278A2F120005E28E7D93F
:102BD000BDE8F88F0149088070470000FEFFFF6CD8
:102BE0004FF0DA4108807047012024F04DFE184C68
:102BF0002060206820B917A001F024F9FDF71EFD20
:102C000016F078FB1CF08CFA1CF0B0FA4FF47A70D6
:102C100024F010FC4FF0FF352946206825F084F899
:102C2000FDF7BEFE00231A461946206824F0D2FEA6
:102C30002946206825F078F81EF040FF00231A4648
:102C40001946206824F0C6FE052024F0F3FBEFE7C8
:102C5000BC0200206D757465785F6C76676C5F638D
:102C600072656174725F657272210000094808B56F
:102C7000416941F0010141614069002200F0010019
:102C8000009005210D20FEF7F1FABDE808400D2067
:102C9000FEF7DEBA0010024010B5074A00210748CF
:102CA00020F062F8064C044A0021E060243A05480E
:102CB00020F05AF8606010BD488402083D300008DA
:102CC00000000020E92B0008154910B54FF0204006
:102CD0000860144848600620886000201022C86000
:102CE000C1E9040288611202C861C1E90902C8622F
:102CF0000863486388631C3908220860C1E901023F
:102D0000C8600861486188610A460548FEF76CFDA5
:102D1000002803D0BDE81040FDF790BC10BD0000B6
:102D200000030020040100A030B585B0002428482D
:102D30000094019402940394816941F040018161FF
:102D4000816901F040010491816941F010018161C4
:102D5000816901F010010491816941F08001816174
:102D6000816901F080010491816941F00401816170
:102D7000816901F004010491816941F008018161D8
:102D8000816901F008010491816941F020018161AC
:102D9000816901F020010491816941F480718161B0
:102DA00080690C4D00F48070049000222021284698
:102DB000FEF7B9F9202000900120CDE9010402209E
:102DC000039069462846FEF7A5F805B030BD00001F
:102DD00000100240000C014030B5214885B08169E7
:102DE00041F004018161816901F00401049181696C
:102DF00041F004018161816901F00401049181695C
:102E000041F004018161816901F00401049181694B
:102E100041F0040181618069022400F00400049003
:102E2000B02000900120CDE902040E4D01906946CA
:102E30002846FEF76FF84020009000200190694678
:102E400003942846FEF766F8012210212846FEF773
:102E50006AF9002220212846FEF765F905B030BD49
:102E6000001002400008014010B586B0002415484B
:102E7000009401940294039404944FF080410594CB
:102E800001604721C0E90114C46004618461FEF758
:102E90001FFD08B1FDF7D2FB4FF48050009069464A
:102EA0000848FEF7E6FD08B1FDF7C8FB049404A945
:102EB00004480594FEF7CEFC002801D0FDF7BEFBC8
:102EC00006B010BD4803002010B58EB00024079452
:102ED000089409940A940B941C2168460C94FDF7FD
:102EE000F9F91F481D4901604721C0E90114632118
:102EF000C0E903148461FEF7EBFC08B1FDF79EFB0B
:102F00004FF48050079007A91548FEF7B2FD08B1AD
:102F1000FDF794FB1248FEF766FF08B1FDF78EFB44
:102F20000B940BA90E480C94FEF794FC08B1FDF726
:102F300085FB60200090502001900220029000222A
:102F4000694604940648FEF7E8FE08B1FDF776FBF3
:102F50000348FEF7B1FE0EB010BD000000040040B3
:102F6000900300200C4810B50A4901604FF4E1318C
:102F70004160002181600C22C160C0E904128161BE
:102F8000C161FFF781F9002803D0BDE81040FDF7CB
:102F900055BB10BD00380140D80300200C4810B5C7
:102FA0000A4901604FF4E1314160002181600C2247
:102FB000C160C0E904128161C161FFF765F90028B1
:102FC00003D0BDE81040FDF739BB10BD00480040FC
:102FD00020040020FEE7FEE72DE9F0410025DFF8A0
:102FE00058800646FF24F7097006060E6006040E98
:102FF000002220214046FEF796F83A4680214046BE
:10300000FEF791F80A2024F0CBF801222021404657
:10301000FEF789F80A2024F0C3F840214046FEF765
:1030200075F8012801D1641CE4B26D1CEDB2082DC5
:10303000D9D32046BDE8F0810008014000220121DB
:10304000282024F02CFC0A4C0A4DA0602078084966
:10305000C0F16E0000EB80004200A06824F0C8FDC3
:103060000028F3D120212846FEF755F8EEE70000AE
:1030700000000020000C014010B5502080F31188A2
:10308000BFF34F8FBFF36F8F24F0B0FF18B1044927
:103090004FF080500860002080F3118810BD0000C0
:1030A00004ED00E030B58FB028216846FDF712F935
:1030B00014210AA8FDF70EF901210804CDE900103A
:1030C0000024029402250491CDE907504FF4E0104A
:1030D00009906846FEF7F8F960B90F20CDE90A05B6
:1030E0006802CDE90C4002210AA80E94FEF7F0F820
:1030F000002801D0FDF7A2FA0FB030BD70470000E4
:103100000148FEF725BD0000900300200148FEF7AE
:103110001FBD0000AC040020F0B502681C4B1D4D23
:103120001D4E1E4F1E4C4FF0804C984209D0A042BD
:1031300007D0604505D0A84203D0B04201D0B842C4
:1031400004D122F0700E4A6842EA0E02984209D079
:10315000A04207D0604505D0A84203D0B04201D0BC
:10316000B84203D122F44075CA682A434D6922F05F
:1031700080022A4302608A68C2620A6882629842B8
:1031800001D0A04201D10969016301214161F0BD73
:10319000002C01400004004000080040000C0040EA
:1031A0000034014010B501F01F030121046A994069
:1031B0008C430462016A9A401143016210BD10B54C
:1031C000846842EA032224F47F440A432243826053
:1031D00010BD826822F070020A4342F0070181604C
:1031E00070470000F0B5036A026A22F00102026231
:1031F00042688469124E24F073050C682C4323F056
:1032000002058B682B430D4DA84201D0B04205D179
:1032100023F00807CB683B4323F00403A84201D006
:10322000B04205D14D6922F4407215438A692A43A0
:1032300042608461496841630362F0BD002C014033
:1032400000340140F0B5026A036A23F01003036200
:10325000436884690D6824F4E64444EA05248D68D3
:1032600022F0200242EA05120F4D104EA84201D072
:10327000B04206D1CF6822F0800242EA071222F063
:103280004002A84201D0B04207D14D6923F4406307
:1032900043EA85038D6943EA850343608461496895
:1032A00081630262F0BD0000002C01400034014047
:1032B000F0B5026A036A23F4807303624368C46949
:1032C00022F4007224F073050C68124E2C438D68B2
:1032D00042EA05220E4DA84201D0B04206D1CF6885
:1032E00022F4006242EA072222F48062A84201D05E
:1032F000B04207D14D6923F4405343EA05138D6969
:1033000043EA05134360C4614968C1630262F0BDCA
:10331000002C01400034014030B5046A026A22F4F6
:10332000805202624268C3690D6823F4E64343EAAF
:1033300005238D6824F4005444EA0534084DA8425E
:1033400002D0084DA84204D14D6922F4804242EADD
:1033500085124260C36149680164046230BD0000A7
:10336000002C01400034014010B5036A046A24F0C7
:1033700001040462846924F0F00444EA021423F096
:103380000A020A438461026210BD10B5036A046A2E
:1033900024F010040462846923F0A00324F4704430
:1033A00044EA023243EA01118261016210BD10B5A4
:1033B000406A0021C185C184FEF72EFE10BD016860
:1033C0000C3151E8002F22F4907241E80023002BC9
:1033D000F5D10168143151E8002F22F0010241E8D3
:1033E0000023002BF5D1016B012909D101680C31B3
:1033F00051E8002F22F0100241E80023002BF5D104
:10340000202180F8421000210163704708B590F830
:103410004210222901D0022008BD82684FF4805357
:103420009A4201D1016921B1816A9A421BD04AB105
:103430000AE00268816A5268C2F308020A80816A5F
:10344000891C08E0026972B10268526802F07F02CA
:103450000A70816A491C8162C18D491E0904090CE8
:10346000C18503D01BE002685268F1E70168CA68B1
:1034700022F02002CA600168CA6822F48072CA6021
:1034800001684A6922F001024A61202180F8421055
:1034900000214163026B012A03D0FEF7A7FF002041
:1034A00008BD016301680C3151E8002F22F01002C1
:1034B00041E80023002BF5D101680A68D20602D545
:1034C0000A6849680091818DFEF7A5FDE7E70000D5
:1034D00070B5044600680169E26821F44051114367
:1034E00001612169A0680843616908432168CA68CD
:1034F00041F20C639A430243CA6020684169A269A1
:1035000021F44071114341611E492068884202D173
:10351000FDF7A4FF01E0FDF791FF00EBC00101EB17
:103520000012606864218000B2FBF0F3B3FBF1F39A
:103530006FF018067343B2FBF0F5B2FBF0F605EB43
:103540008305322303EB0515B5FBF1F5B6FBF1F668
:1035500005F0F00505EB0615B2FBF0F6B2FBF0F056
:10356000B0FBF1F06FF01802504306EB800003EB64
:103570000010B0FBF1F0216800F00F0028448860D3
:1035800070BD0000003801402DE9F0419846174613
:103590000E460446069D27E0681C25D02DB1FDF798
:1035A000C7FDA0EB0800A8421ED920680C3050E8E7
:1035B000001F21F4D07140E80012002AF5D12068E4
:1035C000143050E8001F21F0010140E80012002AE9
:1035D000F5D1202084F8410084F84200002084F8CE
:1035E00040000320BDE8F0812068006836EA000052
:1035F00004D00020B842CFD00020F3E70120F9E743
:103600000148FEF70BBD000020040020FEE72DE975
:10361000F0470C460546B1F90010B4F91000164603
:103620000A1AB4F90A30B4F9121001275B1A5A4386
:10363000B4F90830C01AB4F90230591A00FB01205D
:10364000FCF739FF10F0FF4FB0617ED0B5F90010E4
:10365000B5F91000B4F90A300A1AB4F912105B1A5D
:103660005A43B5F90830C01AB4F90230591A00FBB0
:103670000120FCF720FF3060B4F90000B4F910100D
:10368000B5F90830421AB5F910001B1A5A43B5F9BA
:103690000030C01AB4F90830591A00FB0120FCF7B9
:1036A0000AFF7060B4F91030B5F90890B4F9081049
:1036B000B5F9108003FB09F001FB180CB4F9020006
:1036C0000CFB00FCB4F9000000FB08F2B5F9008027
:1036D00003FB182201FB08F1B4F90A3000FB1910B2
:1036E00002FB03C3B4F9121000FB0130FCF7E3FE48
:1036F000B060B5F90210B5F91200B4F90A300A1A2F
:10370000B4F912105B1A5A43B5F90A30C01AB4F969
:103710000230591A00FB0120FCF7CDFEF060B4F92D
:103720000010B4F91000B5F90A300A1AB5F91210F0
:103730005B1A5A43B5F90230C91AB4F90830181A9D
:1037400001FB0020FCF7B7FE00E028E03061B4F98F
:103750001020B5F90A80B4F90810B5F9123002FB4F
:1037600008F001FB130CB4F90200B5F902500CFB90
:1037700000FCB4F900006943434302FB1532B4F97D
:103780000A3000FB181002FB03C2B4F9121000FB50
:103790000120FCF790FE70613846BDE8F0870027F5
:1037A000FAE700002DE9FC4707460E464FF00109F5
:1037B000684600F0F7F8C8B3BDF90200FCF77BFEDD
:1037C000DFF87080B8F8061006EB4114E168FCF7EA
:1037D00002FE0546BDF90000FCF76DFEA168FCF78E
:1037E000FAFD2946FCF79FFD2169FCF79CFDFCF7DB
:1037F0006BFE3880BDF90200FCF75DFEB8F80610DC
:1038000006EB4114A169FCF7E6FD0546BDF9000091
:10381000FCF751FE6169FCF7DEFD2946FCF783FDEC
:10382000E169FCF780FDFCF74FFE78804846BDE873
:10383000FC870000C82100202DE9F0473C4A86B0F3
:103840000025906940F040009061906900F04000D0
:103850000490906940F08000906190694FF00108F9
:1038600000F0800004901015CDE90008DFF8C4A036
:1038700003264446694603965046FDF74BFB4FF43A
:103880008070009069465046FDF744FB4027DFF802
:10389000A890CDE90074694648460396FDF73AFBC7
:1038A000039680200026CDE9000669460294504622
:1038B000FDF730FB012240214846FDF734FC00971C
:1038C000CDE9016469465046FDF724FB1B4C208876
:1038D000A0F51441883906D14FF498310D46C02225
:1038E0001748FCF7BDFEE088154F07EB4010016854
:1038F000012902D14068032816D1E08807EB401166
:10390000C0B20E6000F016F90028F6D0E08802215F
:1039100007EB4010C0E900812846FCF769FFC02290
:1039200029460748FCF7CEFE06B0BDE8F087000048
:1039300000100240001C014000180140C821002076
:10394000D82100202DE9F04100F040FA144E002566
:103950002A464FF480713046FDF7E5FB01229702BD
:1039600039463046FDF7DFFB002400223946304659
:10397000FDF7D9FB80213046FDF7C8FBC4F10B01F0
:103980008840284385B2012239463046FDF7CBFBFB
:10399000641CE4B20C2CE8D32846BDE8F08100009A
:1039A000001C01402DE9F0418AB00546002628217F
:1039B0006846FCF78FFCDFF810816C469020FFF71B
:1039C000C1FF0746012023F0EBFBD020FFF7BAFF31
:1039D00024F8167004EB4601761C8882F6B240216A
:1039E0004046FDF793FB08B90A2EE7D30A2E03D011
:1039F00000200AB0BDE8F081BDF90010BDF9140047
:103A00008C4662460346012634F916708F4201DA6D
:103A1000394602E0974200DD3A46761CF6B20A2E9D
:103A2000F2D3012604EB4607B7F914709F4201DA7E
:103A30003B4602E0874200DD3846761CF6B20A2E8D
:103A4000F0D3BDF90240BDF90460BDF906706444CD
:103A50003E443444BDF908603444BDF90A6034443E
:103A6000BDF90C603444BDF90E603444BDF91060FA
:103A70003444BDF912603444611A891AC91029808E
:103A8000BDF91410BDF91620BDF91A401144BDF955
:103A9000182022441144BDF91C201144BDF91E20F8
:103AA0001144BDF920201144BDF922201144BDF973
:103AB00024201144BDF926201144C91A081AC01047
:103AC0006880012095E70000001C01402DE9F041CD
:103AD000164C0026164821783546012731B14FF0A3
:103AE0000208012907D0022918D113E04021FDF76F
:103AF0000DFB68B112E04021FDF708FB08B16560DD
:103B00000CE06068401C6060022801D9656009E033
:103B1000277004E04021FDF7F9FA18B1257030460E
:103B2000BDE8F08184F800800126F8E7B0000020AD
:103B3000001C01402DE9F14F9EB01F210020FEF72F
:103B400087FF1E98FEF7F0FE8A4DDFF82CB26A88D8
:103B50009008ADF80800AB8802EB420242F38F02F6
:103B6000ADF8100003EB4300990840F38F00ADF867
:103B70001820ADF82020ADF80A10ADF81200ADF80D
:103B80001A00ADF82210002240215846FDF7CBFA6A
:103B900000240DF108090C266FF007080DF1500AFA
:103BA0000021AB886A880846FEF790FE73A0CDE935
:103BB0000060A9880C2308EB510081B26888C822F4
:103BC0004008FEF7DDFF6420FDF72EF909EBC40184
:103BD00039F834004988FEF7DFFD0AEBC4073846A0
:103BE000FFF7E0FE0028FAD0641CE4B2042CD7D31F
:103BF000012240215846FDF796FA0AAA14A902A804
:103C0000FFF705FD1098DFF88CA110F0FF4F7CD076
:103C1000BDF96A00FCF74FFC81460B99FCF7DBFB12
:103C20000746BDF96800FCF746FC0A9983460C4636
:103C3000FCF7D1FB3946FCF776FB0C99FCF773FBDC
:103C40001099FCF7FAFBFCF758FC87B248460E992E
:103C5000FCF7C1FB814658460D99FCF7BCFB494671
:103C6000FCF761FB0F99FCF75EFB1099FCF7E5FB95
:103C7000FCF743FCBDF9201080B2B94201DA791A91
:103C800000E0C91B8AB2BDF92210814201DA401A54
:103C900000E0081A80B20F2A42D80F2840D82046E8
:103CA0001099FCF7CAFB3C491E9A01EB4214A06034
:103CB00010990B98FCF7C1FBE06010990C98FCF789
:103CC000BCFB206110990D98FCF7B7FB606110995F
:103CD0000E98FCF7B2FBA061DDE90F01FCF7ADFB2C
:103CE000E061BAF80000FEF709FD4FF4FC60FEF752
:103CF000D7FE2AA0CDE90060A8886A88410808EBB1
:103D000052000C2380B2C82200E009E0FEF738FF21
:103D10004FF47A70FDF788F801201FB0BDE8F08FEE
:103D2000BAF80000FEF7EAFC4FF47840FEF7B8FE60
:103D30001FA0CDE90060A8886A88410808EB5200FE
:103D400080B20C23C822FEF71BFF1DA0CDE9006046
:103D5000A8885C226430410868880C2302EB50007C
:103D6000C822FEF70DFF4FF47A70FDF75DF80020D2
:103D7000D3E70000C821002000180140546F75638C
:103D8000682043616C696272617465202E2E2E2E4C
:103D90002E2E00009A000020D821002043616C697B
:103DA000627261746520537563636564000000008E
:103DB00043616C696272617465206661696C0000C0
:103DC00074727920616761696E0000002DE9F04727
:103DD0001B4D07464FF48076002231462846FDF7FA
:103DE000A2F94FF48068002241462846FDF79BF96E
:103DF000B14600244FEA0806C4F1070027FA00F094
:103E0000C00701D0012200E0002249462846FDF704
:103E10008AF9052023F0C4F9012231462846FDF72E
:103E200082F9052023F0BCF9002231462846FDF72F
:103E30007AF9641CE4B2082CDED3BDE8F0870000F8
:103E4000001C0140014A024901F08BBD41F4000809
:103E5000E00200200907090E002804DB00F1E02041
:103E600080F80014704700F00F0000F1E02080F8A7
:103E7000141D704702E008C8121F08C1002AFAD1B9
:103E800070477047002001E001C1121F002AFBD1DA
:103E9000704770B5044600256FF02F0608E02068D3
:103EA000411C2160007805EB850106EB41014518B6
:103EB0002068007800F004F80028F0D1284670BD92
:103EC0003038092801D801207047002070470000D1
:103ED00010B54021074801F081F800221E21064854
:103EE0001DF0BAFD054CA06002F0D8F8002020704B
:103EF00010BD00009C5600204561000840020020D3
:103F000070B5B1F90030B2F90040A34200DC23469D
:103F10000380B1F90250B2F90240A54200DD2C46FF
:103F20004480B1F90460B2F90450AE4200DA35467B
:103F30008580B1F90610B2F90620914200DB1146E6
:103F4000C1800120AB4201DC8C4200DD002070BD4D
:103F5000F8B50D460446B0F90000B1F90010164658
:103F6000884247DBB4F90210B5F90220914241DBE7
:103F7000B4F90410B5F9042091423BDCB4F9061001
:103F8000B5F90620914235DC96B3ADF800006088A3
:103F9000ADF8020032466946284600F099F800283C
:103FA00027D0A088ADF800006088ADF80200324646
:103FB0006946284600F08CF800281AD02088ADF811
:103FC0000000E088ADF8020032466946284600F05D
:103FD0007FF800280DD0A088ADF80000E088ADF88B
:103FE000020032466946284600F072F8002800D0E8
:103FF0000120F8BD0020F8BDB0F90020B1F904306F
:104000009A4213DCB0F90420B1F900309A420DDB7A
:10401000B0F90220B1F906309A4207DCB0F9060087
:10402000B1F90210884201DB01207047002070477F
:10403000F8B50D460446B0F90400B1F90010164673
:10404000884243DBB4F90600B5F9021088423DDB33
:10405000B4F90000B5F90410884237DCB4F9021055
:10406000B5F90620914231DC76B3ADF800006088E6
:10407000ADF8020032466946284600F029F818BB20
:10408000A088ADF800006088ADF8020032466946AD
:10409000284600F01DF8B8B92088ADF80000E08887
:1040A000ADF8020032466946284600F011F858B9CA
:1040B000A088ADF80000E088ADF8020032466946FD
:1040C000284600F005F808B10020F8BD0120F8BD31
:1040D0002DE9FC4114460E46B1F90020B0F900105C
:1040E00005468A423ADBB5F90400824236DCB6F96D
:1040F0000270B5F90220974230DBB5F906309F42D5
:104100002CDC002C75DD401A9A1A401C521C00B29F
:1041100012B200EBD07002EBD272401052109042FB
:1041200000DB1046844200DD0446ADF8001028880C
:1041300000222044ADF804006888ADF802006888C9
:1041400031462044ADF806006846FFF7C1FF40B194
:10415000BDF804002044ADF804003FE00020BDE8B5
:10416000FC81E8880022001BADF80200E888ADF869
:10417000060031466846FFF7ABFF28B1BDF80400E2
:104180002044ADF8040011E0A8880022001BADF81F
:104190000000A888ADF8040031466846FFF798FF94
:1041A00050B1BDF80000001BADF80000BDF80200E2
:1041B000001BADF8020016E06888ADF802006888C0
:1041C00000222044ADF8060031466846FFF780FF24
:1041D00070B1BDF80000001BADF80000BDF806008E
:1041E0002044ADF80600314668461AF07BFFB6E77A
:1041F000FFE70120B3E710B5B1F90040B2F9003094
:104200009C4200DA23460380B1F90240B2F9023041
:104210009C4200DA23464380B1F90440B2F90430ED
:104220009C4200DD23468380B1F90610B2F90620D6
:10423000914200DC1146C18010BD0000FEB507466A
:104240001DF0B8FB0025354C0646009537B1F868DF
:10425000606038461DF0CEFC606802E010F0F4FBB0
:10426000606000691AF0DAFE6068406908B11AF00F
:10427000D5FE6068C0691AF0D1FE6068006A1AF065
:10428000CDFE60680169E1B31BF072F91BF0EEF836
:104290006068B0F8501199B30168097C890715D599
:1042A00010F030FC401E07B2606810F0E5FB401EC5
:1042B00003B20022114601A800970EF04BFA606885
:1042C00001A90268926B516004F0FEF960684FF436
:1042D0008071303016F0ACFC6068202100F59870D9
:1042E00016F0A6FC6068A0F8505130461DF05CFB4B
:1042F000009060680068436A13B12268009998478B
:1043000000E007E016F0D6FA00F036F8BDE8FE400F
:1043100000F006B8A0F85051FEBD0000F4000020E7
:1043200070B50A4D002400BFC4EBC40655F8260042
:1043300008B116F033FB05EB86001C2116F078FC63
:10434000641CE4B2042CEFD370BD00007857002049
:10435000084949680AE04A68824202D00A688242F3
:1043600003D10A7E42F001020A7649690029F2D19E
:1043700070470000C8000020704700000421014879
:1043800000F02CBE905600201C21014800F026BEF3
:10439000A85600202DE9FF5F0446DDE90E0613B99B
:1043A000B0F5807F7ED0B6F900504FF0FF376D42F8
:1043B000454307EB25252DB22580B6F902C0CCF187
:1043C000000C0CFB00FC07EB2C273FB26780B6F912
:1043D00000C0A1EB0C0141434FF0020C0CEB21217A
:1043E00009B2A180B6F90280A2EB080242430CEBAD
:1043F000222000B2E080002B7ED04FF00A0A93FB0F
:10440000FAF5684200EB800003EB400705F1010973
:1044100028B21DF02FFD00900FFA89F01DF02AFD43
:1044200083465A3528B21DF025FD804609F15A0011
:1044300000B21DF01FFD0146009AC7F10A0000FB03
:1044400002F300FB08F00BFB073301FB070193FBB2
:10445000FAF291FBFAF04FEA601AB4F90010B4F9DD
:1044600002000AFB01FCCDF80CC05511378805FB92
:1044700010C207EBA2220FFA82F905FB01F2BB463C
:10448000029277880AFB002107EBA1210BB2B4F955
:104490000410BE460AFB01FC05FB10C20BEBA22276
:1044A00016B200E02FE005FB01F7CDE9007CB4F97E
:1044B0000680DDF80CC00AFB007005FB18C1DDF8B2
:1044C00004C0009F05FB18C5029A0AFB087C0AFB82
:1044D00008220BEBA1210EEBAC270EEBA02009B2BA
:1044E0000EEBA2220BEBA5250FFA87FC00B212B24D
:1044F0002DB24F46494500E00EE000DA0F46B542C6
:1045000016DAA84615E000202080491E6080A180B0
:10451000521EE280BDE8FF9F32882A4422807288C2
:104520003A44628032881144A180718808444FE087
:10453000B046474504DA4F46494506DA0F4604E0DF
:10454000B54201DA2F4600E0374627804F464945FD
:1045500000DD0F46B54201DDA84600E0B046474504
:1045600003DD4D46494505DC01E0B54201DD294644
:1045700000E03146A1809A4201DA154600E01D466E
:10458000844501DA614600E001468D4205DA9A422F
:1045900001DA114606E0194604E0844501DA614675
:1045A00000E0014661809A4201DD114600E01946B3
:1045B000844501DD654600E00546A94205DD9A42D5
:1045C00001DD104604E0184602E0844500DD604647
:1045D000E0809FE72DE9FE4F0446D0F800B0B0F927
:1045E0000800E589081AB4F90A10511AD4E9093209
:1045F000B5F5807F38D0A589ADB3A66B7043451162
:104600004E437011266BE16A06FB05F701FB10773C
:10461000694306FB001003EBA72902EBA0208046AC
:104620000612B4F904004FEA2927B8424EDD002FE4
:104630004CDBB4F90610B14248DD002E46DB94F89D
:1046400034104A0745D58A0704F1140322D400FB2D
:10465000067045004FF0020A0BEB05015246184662
:1046600016F09CFA27E00DE0256BE66A05FB00F7E3
:1046700006FB1177464305FB016003EBA70902EB3C
:10468000A000CCE7A56B68434D4303EB601902EB38
:104690006510C4E700FB067000EB40054FF0030A0D
:1046A0000BEB05010222184616F078FAE81C584474
:1046B00010F8010CA07594F83400C0071FD04FF417
:1046C000FC60ADF80000A18A814218D10020BDE84D
:1046D000FE8F32B204F118002369CDE901020025F2
:1046E00039B2AA468B4613F0CFFC0090BDF800000B
:1046F000A082DDE90102594613F05EFCDAE7E07CB6
:1047000078B1A4F83C90A4F83E80A4F84070A4F8D6
:104710004260656484F848A02046BDE8FE4F00F082
:1047200002B80120D3E72DE9F04F044690F83C1081
:10473000D0F8009090F83E0087B04FF0FF36702917
:1047400007DAB4F940203546012A00D5002580312A
:104750000DE0902916DDB4F94020B4F904300125AC
:10476000521C9A4200DB0025A1F27F114942C9B2D6
:104770008846702809DAB4F94210012900D50026CC
:10478000803010E00025FF21F2E790280DDDB4F91C
:104790004210B4F906200126491C914200DB002694
:1047A000A0F27F104042C7B201E00026FF276069F7
:1047B0000090A07D0590002082468346049094F8E6
:1047C0003400400744D594F84810606C022201FB85
:1047D0000501494401A816F0E1F9B4F9040094F880
:1047E000481002224843616C06FB0011494403A8AB
:1047F00016F0D4F9B4F9041094F84800626C4143FF
:1048000006FB012200FB05901118022202A816F0F7
:10481000C5F994F83400800761D594F84800616CBC
:1048200000EB090200FB0513134413F8013C049349
:10483000B4F90430434306FB031100FB05000A44AE
:10484000014401EB090012F801AC10F8010C45E03D
:10485000B4F84000B4F94220284401B204F1180031
:104860008146236913F010FC0190B4F84200B4F9BA
:104870004010304402B254F8103F484613F004FC94
:104880000390608E2368304402B2208E284401B227
:10489000484613F0F9FB029094F82400103C80077E
:1048A0001DD5B4F9422034F8400F284401B24846DF
:1048B00013F082FB04906088B4F90010304402B217
:1048C000484613F079FB82466088304402B234F8DF
:1048D0004009284401B2484613F06EFB834694F821
:1048E000340042464546800735D50599049B01FBB7
:1048F00008F1C8F1FF0003FB00110AFB08F30BFBF2
:104900000030C1F30721C0F3072001FB07F3C7F113
:10491000FF0600FB06331B0AA375022907D80228ED
:1049200003D8002007B0BDE8F08F002702E002287E
:1049300000D8FF270598022800D8002204980228F2
:1049400000D8FF22BAF1020F00D80025BBF1020FF8
:1049500003D8FF2501E0FF20A075EAB1FF2A04D0AB
:10496000DDE900010FF06AFC0090BDB1FF2D17D00A
:10497000DDE902102A460FF061FC049097B1FF2F89
:1049800005D001463A4600980FF058FC0090BDF85B
:104990000000A0820120C5E70198E5E70298ECE756
:1049A0000398EAE7BDF81000F3E700002DE9F047AF
:1049B0000446B0F908000A2700026062B4F90A0050
:1049C0000002A062B4F90C1091FBF7F5684200EB0D
:1049D000800001EB4006684205F1010800B21DF0BD
:1049E00049FA8246E84300B21DF044FA8146C5F117
:1049F0005A0000B21DF03EFA0546C8F15A0000B256
:104A00001DF038FAC6F10A0101FB0AF3024609FB60
:104A10000630694390FBF7F002FB061191FBF7F1BA
:104A20004011E06248112063A07C13F0DAFB94F897
:104A3000341060F3000184F83410A07C13F0C1FB43
:104A400094F8341060F3410184F83410A07C0428F9
:104A500024D0052822D0062820D021F0040100BF50
:104A600084F8341021682162A16921F0E00160F32B
:104A70000401A08860F39421E08860F35F51A16194
:104A8000E0894FF4001101EB5001B1FBF0F0A0639D
:104A9000FF20A075208AA082BDE8F08741F00401C4
:104AA000DEE700002DE9F04115460E460746114CA1
:104AB0001CF080FF80462B4632463946204613F0D4
:104AC00011FF20B10020A062E06950B110E02C215C
:104AD000204616F0ADF84FF00040A0620020BDE87F
:104AE000F08140461CF060FFE06108B90120E06100
:104AF0002046F4E7CC56002010B51421074800F0FA
:104B00006DFA13F0B5FE40B10549016005494160F9
:104B1000054981600549C16010BDFEE7B45600201B
:104B20009D820108198601089187010869820108A0
:104B300070B50D4604461021284616F079F8206815
:104B40000078012804D0022807D0042807D008E004
:104B5000208A2880608A688003E0E06800E00A20FC
:104B6000686020684268002A03D02946BDE870408A
:104B7000104770BDFEB5866A0446BEB9A08A218A78
:104B80000844A082E08A618A0844E082204609F055
:104B900066FF060079D020460CF0C6F900220921F4
:104BA000304612F051FD607880076ED4208A10B92B
:104BB000608A002869D00025ADF80450ADF808508F
:104BC00094F83C0000F00F000328304616D017F090
:104BD000B7FD0746304617F06DFC03460C200090E9
:104BE000B4F912103A46304609F0F2FAADF808006E
:104BF000304617F0B1FCC10712D017E017F034FDB2
:104C00000746304617F0D0FC024603200090B4F966
:104C100010103B46304609F0DBFAADF80400E7E738
:104C2000BDF90410002901DDADF80450810705D459
:104C3000BDF90410002901DAADF80450410705D48C
:104C4000BDF90810002901DDADF80850000705D4B2
:104C5000BDF90800002801DAADF8085002AA01A940
:104C600020461FF0C0FA0023BDF90820BDF904104A
:104C7000304619F05FFDA08ABDF804100844A082F8
:104C8000E08ABDF808100844E082FEBD2DE9FC5F13
:104C90000446806A5FEA000B71D094F83C0000077C
:104CA0006DD014F0D7F9019000684021457E584638
:104CB00018F0EEFC4FF0000818B9A4F81A80A4F818
:104CC0001880584617F02EFD8246584617F031FDE1
:104CD000064694F83C004FF0640900F00F000C28E1
:104CE00002D003284CD09AE0A4F8188056B1B4F949
:104CF0001A50002714F0AEF90068407EC0F164013C
:104D0000484622E0B4F91A00C5F16401484390FB1B
:104D1000F9F06083584617F0CDFB0546584617F06A
:104D20000FFD02460C200090B4F91A102B4658468D
:104D300009F04EFA6083024600231EE07A1917B28A
:104D400001FB05F292FBF0F215B2002DF6D1ADF8A1
:104D50000070A4F81A806A46002120461FF043FA2A
:104D600041F6FF72BDF900305142584609F0DCFFB0
:104D7000BDF800100123084402B200214CE09AE083
:104D8000A4F81A80BAF1000F0AD0B4F9185000271D
:104D900014F060F900684946407EC0F1640022E0EA
:104DA000B4F91800C5F16401484390FBF9F0208381
:104DB000584617F0F9FB0546584617F055FC0346D0
:104DC00003200090B4F918102A46584609F000FA5A
:104DD0002083014600231EE07A1917B200FB05F27A
:104DE00092FBF1F215B2002DF6D1ADF80070A4F8E7
:104DF00018800022694620461FF0F5F941F6FF723F
:104E0000BDF900305142584609F006FFBDF80010C8
:104E10000123084401B20022584619F08BFC208B74
:104E2000002848D1608B002845D1C6B9584617F0F4
:104E300087FC0546584617F03DFB002D06DC002890
:104E40000DDD002D02DA01232A4604E0002806DAEF
:104E50000123404202B20021584619F06BFCBAF11E
:104E6000000F19D1584617F09FFB0546584617F01A
:104E7000FBFB002D07DC00280EDD002D03DA0123EB
:104E80000022294605E0002806DA012300224042DC
:104E900001B2584619F04EFC0A215846019A12F008
:104EA000D3FB6078800706D414F83C0F20F00F0085
:104EB000207044F8148CBDE8FC9F00007FB50E46BE
:104EC000040003D10FF0C0FD040023D00025FEB183
:104ED000ADF80050ADF802500FF0CEFD401EADF819
:104EE000040020460FF00EFE401EADF806006A4694
:104EF000314602A8FFF704F800280BD02068017C97
:104F0000890708D5DDE90001C4E90C0101202AE088
:104F1000A0F850517FBD82690AB102A990470026CE
:104F20000BE000BF04EBC601002202A83031FFF7FE
:104F30000FF80028EED1761CB6B2B4F85001B0429A
:104F4000F0D880B2202804D204EBC00002A930308F
:104F500004E0A4F8505104F1300069460DF051FB13
:104F6000B4F85001401CA4F8500160680028D1D06A
:104F70001CF04CFE7FBD70B5054600F012F80446EB
:104F80000CE02146284600F01EF806462146284639
:104F900000F071F8204615F001FD3446002CF0D1E8
:104FA00070BD002800D04068704700B5034600225D
:104FB000FFF7F7FF03E01846521C00F004F8010069
:104FC000F9D1104600BD0068091D405870470068BF
:104FD00040587047002800D0806870470022426027
:104FE000C91C21F0030182600160704770B504465E
:104FF0000068083015F048FC050013D00146002277
:1050000020461DF0E3FD2946204662681DF0D8FDCC
:10501000616819B12A4620461DF0D8FD6560A06878
:1050200000B9A560284670BD70B504460068083018
:1050300015F02AFC050013D00146002220461DF081
:10504000BFFD29462046A2681DF0C0FDA16819B128
:105050002A4620461DF0B4FDA560606800B9656071
:10506000284670BD28B1416809B9806808B10020A0
:1050700070470120704770B504000DD0FFF791FF15
:1050800000228842204608D1FFF79DFF6060011E84
:1050900001D000221EE0A26070BDFFF79BFF884296
:1050A000206808440AD10168A16029B12046BDE802
:1050B000704000221DF084BD626070BD056820460E
:1050C000FFF781FF06460246294620461DF078FD7F
:1050D0002A4631462046BDE870401DF077BD10B528
:1050E0000446006882680AB121469047206800683B
:1050F000002801D02060F5E710BD8068002801D0AD
:10510000B0F91600704700002DE9F047074690B04F
:10511000408C189E40F00400788490463A8499466A
:105120008A463289384618F01FF90546A7F82090BC
:1051300032895146384618F017F90446788CA54252
:1051400020F00400788403D12904B1EB044F68D027
:10515000A7F8208032895146384618F005F90546EF
:105160008046A7F82090514638460AF0B9FF3189A9
:1051700000682A461BF094FB3089602823D147F64B
:10518000FF794D4501D04C451DD1384618F037FA0E
:1051900000EBD0704510384618F031FA00EBD070B3
:1051A0004010C84506D1691C431C994200DA00E052
:1051B000194688464C4506D1691C421C914201DAC9
:1051C0006C1C00E014461948FFF710FF05002BD0B7
:1051D0002F60C5E903843089A8806846C5F808A017
:1051E0000CF02AFD1248FF21CDE900501148029031
:1051F0001148039000200790CDE9080130880A90FB
:1052000070889DF83E1040420B90F0680690002098
:1052100060F300018DF83E103069059068460CF08F
:105220007FFD10B0BDE8F087FEE70000C05600200B
:10523000416D02082D6F0208896E02081421014891
:10524000FFF7CCBEC05600202DE9FC5F002592463A
:105250008B4606462C46042743F60F0843F60E09F4
:1052600001E100BFF06807EBC401405881017CD424
:1052700080B230EA0B0113D05FF0000130EA0A007F
:1052800010D00020814270D0F06801AA41F61001D0
:1052900050F8340000901BF0E9F8002866D103E0D4
:1052A0000121EBE70120EDE701AA41F61101009889
:1052B0001BF0DCF8002873D101AA41F61201009816
:1052C0001BF0D4F800286BD101AA41F61301009815
:1052D0001BF0CCF8002863D101AA41F61501009813
:1052E0001BF0C4F800285BD101AA41F61401009814
:1052F0001BF0BCF8D0BB01AA41F2690100981BF079
:10530000B5F898BB01AA43F20C0100981BF0AEF867
:1053100060BB01AA43F20D0100981BF0A7F828BB5F
:1053200001AA41F2010100981BF0A0F8F0B901AA0E
:1053300041F2040100981BF099F8B8B901AA41F2B2
:10534000020100981BF092F880B901AA41F2030112
:1053500000981BF08BF848B901AA41F205010098AA
:105360001BF084F810B901AA01E07BE018E041F2DB
:10537000060100981BF07AF890B901AA41F23201B7
:1053800000981BF073F858B901AA414600981BF029
:105390006DF828B901AA494600981BF067F810B1CA
:1053A0000320BDE8FC9F01AA40F60A0100981BF00B
:1053B0005DF8E8BB01AA40F60B0100981BF056F817
:1053C000B0BB01AA414600981BF050F880BB01AA6F
:1053D000494600981BF04AF850BB01AA40F63C0130
:1053E00000981BF043F818BB01AA40F63D01009855
:1053F0001BF03CF8E0B901AA40F63A0100981BF016
:1054000035F8A8B901AA4FF4046100981BF02EF8F2
:1054100070B901AA40F6450100981BF027F838B989
:1054200001AA40F6410100981BF020F800B900E005
:1054300014E001AA40F6420100981BF017F868B981
:1054400001AA40F6430100981BF010F830B901AAF8
:1054500040F6490100981BF009F808B1022501E067
:1054600005B90125641C708CC0F3C500A0423FF64D
:10547000F9AE284695E700000148406870470000F3
:10548000F40000207047C0F30410072800D907205B
:105490007047000010B518210348FFF79FFD03492E
:1054A0000120087010BD00006C5600206C02002026
:1054B0002DE9F04190460C46050015D0FAF715FF8E
:1054C0000A4F06462146BA68284690470446BA68FD
:1054D0002819414690470146701A03E06218AA5CF9
:1054E0002A55641CA042F9D2BDE8F0818002002058
:1054F0002DE9F041094D90460E466A681C46074664
:1055000019469047306020B120686A68384400210D
:105510009047C8F80000BDE8F0810000800200203C
:105520002DE9F04F87B08A46DDE910581F469346B3
:105530000446002105B129805CB12078002809D0FB
:10554000BAF1000F05D0002618F0060F15D0002084
:1055500004E0002007B0BDE8F08F401C215C0A2960
:1055600004D00D2902D00029F7D100E0401C002D05
:10557000F0D04FF0FF312980ECE75FEA887001D569
:1055800041F6FF77894608468DF81410049127E00C
:105590000498CDF8189068B34FF0000C05AA06AB3C
:1055A000CDF80CC0CDF80080CDE9013220443B4657
:1055B0005A4651461CF088FC06997A1A314417B2B3
:1055C0000EB288B104990144049120780A280BD0C6
:1055D0000D2809D0605C0A280FD00D280DD0084690
:1055E000205C08B1002FD3DC049848B105B12E80AF
:1055F0000498AFE74FF0010CD0E7481C0490F3E7A4
:10560000064A04A9204652689047002DF0D0014672
:105610000022504612F0F3F806B2E8E780020020BC
:105620002DE9F0411746884606001ED0002F1CD0F9
:10563000FAF75BFE04463846FAF757FE050014D029
:105640000B4A2C444146926830469047411903E08A
:10565000621BB25C3255641EA142F9D930442A461D
:105660003946BDE8F04115F0A5BABDE8F08100006B
:105670008002002000230278232902D0012A0DD0C5
:105680000FE02AB10021012A04D0022A04D008E048
:10569000012101E0017004E0017001E0202902D045
:1056A0000123184670470221F6E72DE9F0410E4626
:1056B000804602460021334608461CF041FE04465F
:1056C0000027401C15F0E0F8050008D02F553346A0
:1056D0004246611C1CF034FE2846BDE8F081FEE71E
:1056E0002DE9F0471E4614460D468246DDF820900F
:1056F00015E000BF4FEA540808FB065739465046EC
:105700004A469047002808DD44F30000C0EB5404EB
:1057100007EB0605A4F1010401E005DA4446002C7C
:10572000E8D12046BDE8F0873846FBE72DE9FC5F6D
:105730009B460CAB8A468146DDE9116093E8121066
:10574000DDE90F575FEA80784FF030031AD45EB17D
:105750005FEAC07808D000F00C0858EA0C0803D0C3
:10576000761E01E00B55641CBC4204D2202CF9D3F8
:1057700001E00B55641C5FEAC07803D0B44201D24B
:10578000202CF6D35FEAC06825D55FEA40580AD4DA
:105790004CB1BC4201D0B44205D1641E03D0102DDF
:1057A00003D1641E04E0102D02D0022D0AD00EE0B9
:1057B000850603D4202C1ED2782506E0202C1AD290
:1057C000582502E0202C16D262250D55641C202C91
:1057D00011D20B55641C202C0DD2BCF1000F01D04E
:1057E0002D2306E0430701D52B2302E0030702D552
:1057F00020230B55641CCDE900BAC84615468146E6
:105800008B46AA46800714D1274607E02A46DDE9E1
:1058100000316D1C2020C446E0477F1CB742F5D301
:1058200007E02A466D1C641EDDE900311BF8040008
:10583000C047002CF5D15FEA897006D409E02A46FA
:10584000DDE900316D1C2020C047A5EB0A00B04205
:10585000F5D32846BDE8FC9F2DE9F04F8FB099465F
:105860008B46DDE91818DDE91C63DDE91A4792462D
:105870008646002209B923F01003580507AD00D56C
:10588000C9B1B1FBF4F004FB1010C0B20A2801D278
:10589000303009E05FEA836C02D54FF0410C01E043
:1058A0004FF0610C60440A38B1FBF4F1A854521C6B
:1058B00009B1202AE5D3CDF80880CDE90563CDE90B
:1058C0000052CDE903474B46524659467046FFF712
:1058D0002DFF0FB0BDE8F08F2DE9FF4F8FB01CAC4E
:1058E000DDE9239594E8030820AC94E8C004002483
:1058F00050EA010201D125F010056A050DF11C08DE
:1059000002D550EA010217D032463B46FAF77AFC3C
:10591000D2B20A2A01D2303206E0AB0601D54123C9
:1059200000E061231A440A3A08F80420641C50EA93
:10593000010201D0202CE7D3CDE90084CDF808B0D6
:10594000CDE90595CDE9036A0FAF97E80F00FFF7A2
:10595000EDFE13B0BDE8F08F9A4200D28854704734
:1059600070472DE9F04116460F460446002503E036
:105970003946B047641C6D1C20780028F8D12846B1
:10598000BDE8F0812DE9FF4F89B005460A98002453
:105990009246002800D1FE4D8FE1252804D02246F2
:1059A000641C53460A990BE2491C4FF00008084654
:1059B0000C9101782B2919D004DC202919D0232936
:1059C00004D119E02D290ED0302909D00026C8B203
:1059D000FEF776FAB0B10CA8FEF75BFA06461FE0B8
:1059E00048F001010AE048F0020107E048F0040134
:1059F00004E048F0080101E048F01001401C88462E
:105A00000C90D6E70C9908782A2809D1169840C836
:105A10001690002E02DA48F002087642491C0C91DA
:105A20000C984FF0000B01782E2919D1401C0C90D6
:105A300048F480680078FEF743FA20B10CA8FEF71E
:105A400028FA83460CE00C9A10782A2808D1169977
:105A500001C91691002800DC0020521C83460C92DC
:105A60000C9801786C290AD004DC68290FD06A29C7
:105A700019D128E0742929D07A2914D126E0401CB4
:105A80000C90017848F480786C291CD00BE0401C05
:105A90000C90017848F08008682904D148F0400152
:105AA000401C88460C9001460078692822D015DCFD
:105AB00062281FD00DDC252872D050281AD0582813
:105AC0007FF46DAF16E048F40071E9E748F48071A7
:105AD000E6E7632879D06428F2D10BE0732875D00B
